:020000040000fa
:080000000002040000000000f2
:020000040000fa
:0400080032030000bf
:020000040000fa
:04000c00f6020000f8
:020000040000fa
:04001000fc020000ee
:020000040000fa
:0400140002030000e3
:020000040000fa
:0400180008030000d9
:020000040000fa
:04001c000e030000cf
:020000040000fa
:0400200032030000a7
:020000040000fa
:0400240032030000a3
:020000040000fa
:04002800320300009f
:020000040000fa
:04002c00320300009b
:020000040000fa
:040030003203000097
:020000040000fa
:040034003203000093
:020000040000fa
:04003800b002000012
:020000040000fa
:04003c00320300008b
:020000040000fa
:040040003203000087
:020000040000fa
:040044003203000083
:020000040000fa
:04004800320300007f
:020000040000fa
:04004c00320300007b
:020000040000fa
:040050003203000077
:020000040000fa
:040054003203000073
:020000040000fa
:04005800320300006f
:020000040000fa
:04005c00320300006b
:020000040000fa
:04006000ee020000ac
:020000040000fa
:040064003203000063
:020000040000fa
:04006800320300005f
:020000040000fa
:04006c00320300005b
:020000040000fa
:040070003203000057
:020000040000fa
:040074003203000053
:020000040000fa
:04007800320300004f
:020000040000fa
:04007c00320300004b
:020000040000fa
:040080003203000047
:020000040000fa
:040084003203000043
:020000040000fa
:04008800320300003f
:020000040000fa
:04008c00320300003b
:020000040000fa
:040090003203000037
:020000040000fa
:040094003203000033
:020000040000fa
:04009800a8020000ba
:020000040000fa
:04009c00320300002b
:020000040000fa
:0400a0003203000027
:020000040000fa
:0400a4003203000023
:020000040000fa
:0400a800320300001f
:020000040000fa
:0400ac00320300001b
:020000040000fa
:0400b0003203000017
:020000040000fa
:0400b4003203000013
:020000040000fa
:0400b800320300000f
:020000040000fa
:0400bc00320300000b
:020000040000fa
:0400c0003203000007
:020000040000fa
:0400c4003203000003
:020000040000fa
:0400c80032030000ff
:020000040000fa
:0400cc0032030000fb
:020000040000fa
:0400d00032030000f7
:020000040000fa
:0400d40032030000f3
:020000040000fa
:0400d80032030000ef
:020000040000fa
:0400dc0032030000eb
:020000040000fa
:0400e00032030000e7
:020000040000fa
:0400e40032030000e3
:020000040000fa
:0400e80032030000df
:020000040000fa
:0400ec0032030000db
:020000040000fa
:0400f00032030000d7
:020000040000fa
:0400f40032030000d3
:020000040000fa
:0400f80032030000cf
:020000040000fa
:0400fc0032030000cb
:020000040000fa
:0401000032030000c6
:020000040000fa
:0401040032030000c2
:020000040000fa
:0401080032030000be
:020000040000fa
:04010c0032030000ba
:020000040000fa
:0401100032030000b6
:020000040000fa
:0401140032030000b2
:020000040000fa
:0401180032030000ae
:020000040000fa
:04011c0032030000aa
:020000040000fa
:0401200032030000a6
:020000040000fa
:0401240032030000a2
:020000040000fa
:04012800320300009e
:020000040000fa
:04012c00320300009a
:020000040000fa
:040130003203000096
:020000040000fa
:040134003203000092
:020000040000fa
:04013800320300008e
:020000040000fa
:04013c00320300008a
:020000040000fa
:040140003203000086
:020000040000fa
:040144003203000082
:020000040000fa
:04014800320300007e
:020000040000fa
:04014c00320300007a
:020000040000fa
:040150003203000076
:020000040000fa
:040154003203000072
:020000040000fa
:04015800320300006e
:020000040000fa
:04015c00320300006a
:020000040000fa
:040160003203000066
:020000040000fa
:040164003203000062
:020000040000fa
:0402080032030000bd
:020000040000fa
:04020c0014030000d7
:020000040000fa
:040210001a030000cd
:020000040000fa
:0402140020030000c3
:020000040000fa
:0402180026030000b9
:020000040000fa
:04021c002c030000af
:020000040000fa
:0402200032030000a5
:020000040000fa
:0402240032030000a1
:020000040000fa
:04022800320300009d
:020000040000fa
:04022c003203000099
:020000040000fa
:040230003203000095
:020000040000fa
:040234003203000091
:020000040000fa
:04023800320300008d
:020000040000fa
:04023c003203000089
:020000040000fa
:040240003203000085
:020000040000fa
:040244003203000081
:020000040000fa
:04024800320300007d
:020000040000fa
:04024c003203000079
:020000040000fa
:040250003203000075
:020000040000fa
:040254003203000071
:020000040000fa
:04025800320300006d
:020000040000fa
:04025c003203000069
:020000040000fa
:040260003203000065
:020000040000fa
:040264003203000061
:020000040000fa
:04026800320300005d
:020000040000fa
:04026c003203000059
:020000040000fa
:040270003203000055
:020000040000fa
:040274003203000051
:020000040000fa
:04027800320300004d
:020000040000fa
:04027c003203000049
:020000040000fa
:040280003203000045
:020000040000fa
:040284003203000041
:020000040000fa
:04028800320300003d
:020000040000fa
:04028c003203000039
:020000040000fa
:040290003203000035
:020000040000fa
:040294003203000031
:020000040000fa
:04029800320300002d
:020000040000fa
:04029c003203000029
:020000040000fa
:0402a0003203000025
:020000040000fa
:0402a4003203000021
:020000040000fa
:0402a800320300001d
:020000040000fa
:0402ac003203000019
:020000040000fa
:0402b0003203000015
:020000040000fa
:0402b4003203000011
:020000040000fa
:0402b800320300000d
:020000040000fa
:0402bc003203000009
:020000040000fa
:0402c0003203000005
:020000040000fa
:0402c4003203000001
:020000040000fa
:0402c80032030000fd
:020000040000fa
:0402cc0032030000f9
:020000040000fa
:0402d00032030000f5
:020000040000fa
:0402d40032030000f1
:020000040000fa
:0402d80032030000ed
:020000040000fa
:0402dc0032030000e9
:020000040000fa
:0402e00032030000e5
:020000040000fa
:0402e40032030000e1
:020000040000fa
:0402e80032030000dd
:020000040000fa
:0402ec0032030000d9
:020000040000fa
:0402f00032030000d5
:020000040000fa
:0402f40032030000d1
:020000040000fa
:0402f80032030000cd
:020000040000fa
:0402fc0032030000c9
:020000040000fa
:0403000032030000c4
:020000040000fa
:0403040032030000c0
:020000040000fa
:0403080032030000bc
:020000040000fa
:04030c0032030000b8
:020000040000fa
:0403100032030000b4
:020000040000fa
:0403140032030000b0
:020000040000fa
:0403180032030000ac
:020000040000fa
:04031c0032030000a8
:020000040000fa
:0403200032030000a4
:020000040000fa
:0403240032030000a0
:020000040000fa
:04032800320300009c
:020000040000fa
:04032c003203000098
:020000040000fa
:040330003203000094
:020000040000fa
:040334003203000090
:020000040000fa
:04033800320300008c
:020000040000fa
:04033c003203000088
:020000040000fa
:040340003203000084
:020000040000fa
:040344003203000080
:020000040000fa
:04034800320300007c
:020000040000fa
:04034c003203000078
:020000040000fa
:040350003203000074
:020000040000fa
:040354003203000070
:020000040000fa
:04035800320300006c
:020000040000fa
:04035c003203000068
:020000040000fa
:040360003203000064
:020000040000fa
:040364003203000060
:020000040000fa
:10040000cfbe20000ebf23000e01880000000000b8
:10041000000020000000e000020032000001200087
:10042000200288000c000700003c20000100200092
:1004300011000700000020000000e0000200320070
:10044000000002000000000044080200000000005c
:100450000040da000000fe004440a9000000200037
:100460000000e0000300320000002000a00188002e
:100470004440a80000000600910188008000780038
:100480000000eb0015003700e280400032a0b4000d
:100490009101ba00e280400032a0b4009102ba009b
:1004a000e280400032a0b4000002eb00472bde00e7
:1004b000f507b200602ce10004003a000059eb009f
:1004c0008301e900fdff3e00040037006128e100e0
:1004d000010032000082eb000b00070011c3ba00dc
:1004e0001101ba000604e00003003a000200e00037
:1004f000e5ff3a0000000600f607b200960188000a
:1005000082007800f5ff37003159ba008301e90015
:100510000c0032002159ba008301e90008003200c2
:100520000400e00003003a00e280400032a0b40082
:10053000f5ff370011d9ba008301e900faff3a004c
:100540008100e800e180400032a0b4000000060015
:100550000000fa008780a9000080fa000040060031
:100560003600f800809fbe00829fbe00849fbe00c0
:10057000869fbe000000fa00101f8000610060002e
:100580000000e00005003200505f8000a3fe230061
:10059000027c2400017424003b000700101f80002f
:1005a000610060000000e00005003a00505f80003c
:1005b000a3fe23000278240001702400320007000b
:1005c0000080fa004f03be004f02be004f01be0084
:1005d0004f00be003600f900004006000000fa009f
:1005e00085c0a9000080fa00004006000000fa0063
:1005f0008020a900ffff37000000fa008060a900fa
:10060000ffff37000000fa008040a900ffff37001d
:100610000000fa008080a900ffff37000000fa0008
:1006200080a0a900ffff37000000fa008020a90089
:10063000ffff37000000fa008060a900ffff3700cd
:100640000000fa008040a900ffff37000000fa0018
:100650008080a900ffff37000000fa0080a0a900f9
:10066000ffff37000000fa00ffff37008000900016
:100670000101e900c0009000000020000280090094
:100680008018780000000600889fbe008a9fbe0088
:100690008c9fbe008e1f78004400f800080f2000d9
:1006a000280288003400f8004600f8004800f800ee
:1006b0004a00f8004c00f8004e00f8008a0a2c00ae
:1006c0003a02880023049000580288001304900026
:1006d00048028800530590007a0288004305900084
:1006e0006a028800811f78000f07780033059000a8
:1006f00007f02f000a38e1000400320027028000d2
:100700004700b30027028800aa0188006305900013
:1007100003029000630252000000e900008008001c
:1007200007000000320d7800000000004618c300ea
:10073000048009004618c4004218c4001201c40015
:100740003100cd00ea0198008e0778004f00780054
:100750004e00f9004c00f9004a00f9004800f90089
:100760004600f9003400f9004400f9004f07780012
:100770004f06be004f05be004f04be00000006003d
:020000040000fa
:10078000ea3f00000e00000000000000c04700002b
:100790004000000000000000804700004000000012
:1007a0000000000040470000400000000000000082
:1007b000004700004000000000000000ea0b0000bd
:1007c00002000000020000002000000000080000fd
:1007d000ea0300000200000005000500000600001a
:1007e00006000500000500000400030000020000f0
:1007f0000000ff00fffdff00fcfffb00fffaff0011
:10080000fafffa00fffaff00fafffb00fffdff000e
:10081000feff0000000100000300050000060000cc
:10082000070008000008000008000700000600009c
:100830000400020000000000fefffc00fffaff00c1
:10084000f8fff700fff6ff00f5fff600fff7ff00e7
:10085000f8fffa00fffdff00ffff020000050000a7
:1008600008000a00000c00000e000e00000e000040
:100870000c000a00000800000400010000fdff0059
:10088000f9fff500fff2ff00f0ffee00ffeeff00c2
:10089000eefff000fff2ff00f6fffa00ffffff009f
:1008a00004000900000d00001100140000160000f3
:1008b000170016000014000011000d0000070000d2
:1008c0000100fb00fff5ff00efffea00ffe7ff007c
:1008d000e4ffe300ffe4ff00e7ffeb00fff0ff00b1
:1008e000f7fffe00ff0600000d001400001a0000d4
:1008f0001f0022000023000022001f00001a000039
:1009000013000b0000030000f9fff100ffe8ff00f7
:10091000e1ffdc00ffd8ff00d7ffd800ffdcff00bd
:10092000e2ffe900fff3ff00fdff070000120000f7
:100930001b002400002a00002e002f00002e0000c3
:100940002a002300001a00001000040000f8ff0035
:10095000ecffe100ffd7ff00d0ffcc00ffcaff0093
:10096000ccffd100ffd8ff00e2ffee00fffbff004d
:1009700009001600002300002d003500003a000099
:100980003c003a00003500002c002100001400005b
:100990000600f600ffe8ff00daffcf00ffc6ff0009
:1009a000c0ffbe00ffc0ff00c6ffcf00ffdbff009f
:1009b000eafffa00ff0a00001a00290000350000d3
:1009c0003f0045000047000045003f0000350000a3
:1009d0002800180000070000f6ffe400ffd5ff0024
:1009e000c7ffbd00ffb7ff00b5ffb700ffbdff00a9
:1009f000c8ffd600ffe6ff00f8ff0b00001d000057
:100a00002d003b00004600004d004f00004d00004f
:100a100046003b00002c00001b00090000f5ff0011
:100a2000e2ffd100ffc3ff00b8ffb100ffaeff003f
:100a3000b1ffb800ffc3ff00d2ffe300fff7ff00e4
:100a40000b001e00003000003e004a000051000074
:100a500053005100004a00003e002f00001d00001e
:100a60000a00f600ffe2ff00d0ffc100ffb6ff0062
:100a7000afff8d007fafff00b6ffc100ffd0ff00ca
:100a8000e2fff600ff0a00001d002f00003e0000fc
:100a90004a0051000053000051004a00003e00008f
:100aa00030001e00000b0000f7ffe300ffd2ff0044
:100ab000c3ffb800ffb1ff00aeffb100ffb8ff00f9
:100ac000c3ffd100ffe2ff00f5ff0900001b00009b
:100ad0002c003b00004600004d004f00004d000080
:100ae00046003b00002d00001d000b0000f8ff0039
:100af000e6ffd600ffc8ff00bdffb700ffb5ff004f
:100b0000b7ffbd00ffc7ff00d5ffe400fff6ff0001
:100b1000070018000028000035003f0000450000d5
:100b200047004500003f000035002900001a000082
:100b30000a00fa00ffeaff00dbffcf00ffc6ff005c
:100b4000c0ffbe00ffc0ff00c6ffcf00ffdaff00fe
:100b5000e8fff600ff06000014002100002c000052
:100b600035003a00003c00003a003500002d00003e
:100b70002300160000090000fbffee00ffe2ff006b
:100b8000d8ffd100ffccff00caffcc00ffd0ff0090
:100b9000d7ffe100ffecff00f8ff040000100000a9
:100ba0001a002300002a00002e002f00002e000053
:100bb0002a002400001b00001200070000fdff00b7
:100bc000f3ffe900ffe2ff00dcffd800ffd7ff00e2
:100bd000d8ffdc00ffe1ff00e8fff100fff9ff00b4
:100be00003000b00001300001a001f000022000089
:100bf00023002200001f00001a001400000d000056
:100c00000600fe00fff7ff00f0ffeb00ffe7ff002c
:100c1000e4ffe300ffe4ff00e7ffea00ffefff006f
:100c2000f5fffb00ff01000007000d0000110000b0
:100c30001400160000170000160014000011000038
:100c40000d00090000040000fffffa00fff6ff009e
:100c5000f2fff000ffeeff00eeffee00fff0ff00fe
:100c6000f2fff500fff9ff00fdff010000040000a6
:100c700008000a00000c00000e000e00000e00002c
:100c80000c000a00000800000500020000ffff0041
:100c9000fdfffa00fff8ff00f7fff600fff5ff0089
:100ca000f6fff700fff8ff00fafffc00fffeff0071
:100cb0000000020000040000060007000008000019
:100cc00008000800000700000600050000030000ff
:100cd0000100000000feff00fdfffb00fffaff0027
:100ce000fafffa00fffaff00fafffb00fffcff002b
:100cf000fdffff00ff0000000200030000040000f1
:100d000005000500000600000600050000050000c3
:100d1000003c0000ea030000000000004c088000d6
:020000040000fa
:100d20000000fa0006000700180007005b0007003b
:100d30002b000700940007000080fa000000060066
:100d40000000fa00401f200050ff890000802000b2
:100d500060ff890060be200070ff890000f02f0056
:100d600080ff890000c0230090ff890060fe2300ff
:100d7000a0ff890000c02300b0ff8900a0fe23006f
:100d80003afe07000080fa00000006000000fa00aa
:100d900021e1a9002021a90020c1a90000098000ab
:100da0000040a1000050a100000988001821ef00b8
:100db00000402000e0088800900580000000a000ae
:100dc0000010a1000020a100900588008780a900e4
:100dd0009780a80021e1a8000080fa00000006002a
:100de0000000fa002143a8001019800000d0a100e3
:100df00000e0a10000f0a1001019880025e3a9007f
:100e000090c0b30024e3b7002c03a900e0ff2f003b
:100e100060198800101980000080a1000090a100d6
:100e2000101988004119800000fe2f00008060002a
:100e30004019880028e3a9002043a8000019800079
:100e40000080a0000090a000001988001019800008
:100e50000020a1000030a1000040a1000050a1002e
:100e600010198800001980000050a1000060a10046
:100e70000070a0000019880021198000f00f2e00da
:100e80008080600000502000010070002019880060
:100e900021e3a8000080fa00000006000000fa002c
:100ea000001c80000040a1000050a100001c880030
:100eb000001c80000000a1000010a000001c8800a1
:100ec00081a3a90081c3a90000302000401c880034
:100ed000f0012000501c8800d0002000101c880069
:100ee000007c2000201c880000782000301c880036
:100ef000300580000000a0000010a1000020a1002b
:100f0000300588008480a9009480a80081e3a800af
:100f1000601c80000040a1000050a100601c8800ff
:100f2000601c80000000a1000010a000601c880070
:100f30008da3a8008dc3a900603f2000a01c8800dd
:100f4000f0012000b01c8800e0042000701c880024
:100f500000742000801c880000702000901c880015
:100f6000500580000080a0000090a10000a0a1001a
:100f70005005880085c0a90095c0a8008de3a80091
:100f80000080fa00000006000000fa00f2e3a8006a
:100f9000f3e3a800f243a800f343a800f183a900fb
:100fa000811f800000f82f00008060003000b30037
:100fb000801f8800f103a800f1e3a800f423ef00ec
:100fc0000080fa00000006000000fa00e0012000a6
:100fd000303a8800203a80000060a1000070a10033
:100fe000203a8800213a800000fe2f000080600037
:100ff000203a880040a7a900320020008007200086
:10100000a1092000337420008049780081497800cc
:1010100082497800103a8000000178000200a000a8
:1010200060042000710520002374200080497800ae
:10103000814978008249780000000000113a800060
:10104000000027008080600000002300808f500097
:10105000faff3a0000000000113a80000002200070
:10106000008060000000e000fbff3200503a80008a
:101070000080a0000090a10000a0a000503a8800cd
:101080000080fa00000006000000fa00ceff070012
:0810900023ff0700ffff3700fa
:020000040000fa
:041098000000000054
:020000040000fa
:0200000401f009
:04000c0000000000f0
:020000040000fa
:0200000401f009
:040010006500000087
:020000040000fa
:0200000401f009
:040014005f00000089
:020000040000fa
:0200000401f009
:04001800f7000000ed
:020000040000fa
:0200000401f009
:04001c00dfff000002
:00000001FF
