:020000040000fa
:080000000002040000000000f2
:020000040000fa
:0400080026030000cb
:020000040000fa
:04000c00ea02000004
:020000040000fa
:04001000f0020000fa
:020000040000fa
:04001400f6020000f0
:020000040000fa
:04001800fc020000e6
:020000040000fa
:04001c0002030000db
:020000040000fa
:0400200026030000b3
:020000040000fa
:0400240026030000af
:020000040000fa
:0400280026030000ab
:020000040000fa
:04002c0026030000a7
:020000040000fa
:0400300026030000a3
:020000040000fa
:04003400260300009f
:020000040000fa
:04003800e2020000e0
:020000040000fa
:04003c002603000097
:020000040000fa
:040040002603000093
:020000040000fa
:04004400260300008f
:020000040000fa
:04004800260300008b
:020000040000fa
:04004c002603000087
:020000040000fa
:040050002603000083
:020000040000fa
:04005400260300007f
:020000040000fa
:04005800260300007b
:020000040000fa
:04005c002603000077
:020000040000fa
:04006000da020000c0
:020000040000fa
:04006400260300006f
:020000040000fa
:04006800260300006b
:020000040000fa
:04006c002603000067
:020000040000fa
:040070002603000063
:020000040000fa
:04007400260300005f
:020000040000fa
:04007800260300005b
:020000040000fa
:04007c002603000057
:020000040000fa
:040080002603000053
:020000040000fa
:04008400260300004f
:020000040000fa
:04008800d2020000a0
:020000040000fa
:04008c002603000047
:020000040000fa
:040090002603000043
:020000040000fa
:04009400260300003f
:020000040000fa
:04009800a8020000ba
:020000040000fa
:04009c002603000037
:020000040000fa
:0400a0002603000033
:020000040000fa
:0400a400260300002f
:020000040000fa
:0400a800260300002b
:020000040000fa
:0400ac002603000027
:020000040000fa
:0400b0002603000023
:020000040000fa
:0400b400260300001f
:020000040000fa
:0400b800260300001b
:020000040000fa
:0400bc002603000017
:020000040000fa
:0400c0002603000013
:020000040000fa
:0400c400260300000f
:020000040000fa
:0400c800260300000b
:020000040000fa
:0400cc002603000007
:020000040000fa
:0400d0002603000003
:020000040000fa
:0400d40026030000ff
:020000040000fa
:0400d80026030000fb
:020000040000fa
:0400dc0026030000f7
:020000040000fa
:0400e00026030000f3
:020000040000fa
:0400e40026030000ef
:020000040000fa
:0400e80026030000eb
:020000040000fa
:0400ec0026030000e7
:020000040000fa
:0400f00026030000e3
:020000040000fa
:0400f40026030000df
:020000040000fa
:0400f80026030000db
:020000040000fa
:0400fc0026030000d7
:020000040000fa
:0401000026030000d2
:020000040000fa
:0401040026030000ce
:020000040000fa
:0401080026030000ca
:020000040000fa
:04010c0026030000c6
:020000040000fa
:0401100026030000c2
:020000040000fa
:0401140026030000be
:020000040000fa
:0401180026030000ba
:020000040000fa
:04011c0026030000b6
:020000040000fa
:0401200026030000b2
:020000040000fa
:0401240026030000ae
:020000040000fa
:0401280026030000aa
:020000040000fa
:04012c0026030000a6
:020000040000fa
:0401300026030000a2
:020000040000fa
:04013400260300009e
:020000040000fa
:04013800260300009a
:020000040000fa
:04013c002603000096
:020000040000fa
:040140002603000092
:020000040000fa
:04014400260300008e
:020000040000fa
:04014800260300008a
:020000040000fa
:04014c002603000086
:020000040000fa
:040150002603000082
:020000040000fa
:04015400260300007e
:020000040000fa
:04015800260300007a
:020000040000fa
:04015c002603000076
:020000040000fa
:040160002603000072
:020000040000fa
:04016400260300006e
:020000040000fa
:0402080026030000c9
:020000040000fa
:04020c0008030000e3
:020000040000fa
:040210000e030000d9
:020000040000fa
:0402140014030000cf
:020000040000fa
:040218001a030000c5
:020000040000fa
:04021c0020030000bb
:020000040000fa
:0402200026030000b1
:020000040000fa
:0402240026030000ad
:020000040000fa
:0402280026030000a9
:020000040000fa
:04022c0026030000a5
:020000040000fa
:0402300026030000a1
:020000040000fa
:04023400260300009d
:020000040000fa
:040238002603000099
:020000040000fa
:04023c002603000095
:020000040000fa
:040240002603000091
:020000040000fa
:04024400260300008d
:020000040000fa
:040248002603000089
:020000040000fa
:04024c002603000085
:020000040000fa
:040250002603000081
:020000040000fa
:04025400260300007d
:020000040000fa
:040258002603000079
:020000040000fa
:04025c002603000075
:020000040000fa
:040260002603000071
:020000040000fa
:04026400260300006d
:020000040000fa
:040268002603000069
:020000040000fa
:04026c002603000065
:020000040000fa
:040270002603000061
:020000040000fa
:04027400260300005d
:020000040000fa
:040278002603000059
:020000040000fa
:04027c002603000055
:020000040000fa
:040280002603000051
:020000040000fa
:04028400260300004d
:020000040000fa
:040288002603000049
:020000040000fa
:04028c002603000045
:020000040000fa
:040290002603000041
:020000040000fa
:04029400260300003d
:020000040000fa
:040298002603000039
:020000040000fa
:04029c002603000035
:020000040000fa
:0402a0002603000031
:020000040000fa
:0402a400260300002d
:020000040000fa
:0402a8002603000029
:020000040000fa
:0402ac002603000025
:020000040000fa
:0402b0002603000021
:020000040000fa
:0402b400260300001d
:020000040000fa
:0402b8002603000019
:020000040000fa
:0402bc002603000015
:020000040000fa
:0402c0002603000011
:020000040000fa
:0402c400260300000d
:020000040000fa
:0402c8002603000009
:020000040000fa
:0402cc002603000005
:020000040000fa
:0402d0002603000001
:020000040000fa
:0402d40026030000fd
:020000040000fa
:0402d80026030000f9
:020000040000fa
:0402dc0026030000f5
:020000040000fa
:0402e00026030000f1
:020000040000fa
:0402e40026030000ed
:020000040000fa
:0402e80026030000e9
:020000040000fa
:0402ec0026030000e5
:020000040000fa
:0402f00026030000e1
:020000040000fa
:0402f40026030000dd
:020000040000fa
:0402f80026030000d9
:020000040000fa
:0402fc0026030000d5
:020000040000fa
:0403000026030000d0
:020000040000fa
:0403040026030000cc
:020000040000fa
:0403080026030000c8
:020000040000fa
:04030c0026030000c4
:020000040000fa
:0403100026030000c0
:020000040000fa
:0403140026030000bc
:020000040000fa
:0403180026030000b8
:020000040000fa
:04031c0026030000b4
:020000040000fa
:0403200026030000b0
:020000040000fa
:0403240026030000ac
:020000040000fa
:0403280026030000a8
:020000040000fa
:04032c0026030000a4
:020000040000fa
:0403300026030000a0
:020000040000fa
:04033400260300009c
:020000040000fa
:040338002603000098
:020000040000fa
:04033c002603000094
:020000040000fa
:040340002603000090
:020000040000fa
:04034400260300008c
:020000040000fa
:040348002603000088
:020000040000fa
:04034c002603000084
:020000040000fa
:040350002603000080
:020000040000fa
:04035400260300007c
:020000040000fa
:040358002603000078
:020000040000fa
:04035c002603000074
:020000040000fa
:040360002603000070
:020000040000fa
:04036400260300006c
:020000040000fa
:100400000f8020000e7724000e01880000000000fd
:10041000000020000000e000020032000001200087
:10042000200288000c000700404a20000100200044
:1004300011000700000020000000e0000200320070
:100440000000020000000000ea04020000000000ba
:100450000040da000000fe004440a9000000200037
:100460000000e0000300320000002000a00188002e
:100470004440a80000000600910188008000780038
:100480000000eb0015003700e280400032a0b4000d
:100490009101ba00e280400032a0b4009102ba009b
:1004a000e280400032a0b4000002eb00472bde00e7
:1004b000f507b200602ce10004003a000059eb009f
:1004c0008301e900fdff3e00040037006128e100e0
:1004d000010032000082eb000b00070011c3ba00dc
:1004e0001101ba000604e00003003a000200e00037
:1004f000e5ff3a0000000600f607b200960188000a
:1005000082007800f5ff37003159ba008301e90015
:100510000c0032002159ba008301e90008003200c2
:100520000400e00003003a00e280400032a0b40082
:10053000f5ff370011d9ba008301e900faff3a004c
:100540008100e800e180400032a0b4000000060015
:10055000809fbe00821f78000000fa008780a900fb
:10056000a01680004800de006140600000c0ea0084
:10057000614060000080fb00610060004800dd0019
:10058000a2168000f1ef2f008100610001007000d1
:10059000a01688000080fa004f0178004f00be00ce
:1005a000004006000000fa008700a9000080fa0061
:1005b000004006000000fa0085c0a9000080fa0093
:1005c000004006000000fa008480a9000080fa00c4
:1005d000004006000000fa008020a900ffff37005d
:1005e0000000fa008060a900ffff37000000fa0059
:1005f0008040a900ffff37000000fa008080a900ba
:10060000ffff37000000fa0080a0a900ffff3700bd
:100610000000fa008020a900ffff37000000fa0068
:100620008060a900ffff37000000fa008040a900a9
:10063000ffff37000000fa008080a900ffff3700ad
:100640000000fa0080a0a900ffff37000000fa00b8
:04065000ffff370071
:020000040000fa
:100654000000fa0021e1a9002021a90020c1a9007d
:10066400000980000040a1000050a100000988009a
:100674001821ef0000402000e00888009005800069
:100684000000a0000010a1000020a1009005880037
:100694008780a9009780a90021e1a8001019800093
:1006a40000d0a10000e0a10000f0a0001019880013
:1006b400101980000080a1000090a100101988008a
:1006c4002043a800001980000080a0000090a00032
:1006d40000198800001980000050a1000060a100ea
:1006e4000070a0000019880025e3a90090c0b300a1
:1006f40024e3b7002143a8002203a8002183a80013
:10070400101980000020a1000030a1000040a100c9
:100714000050a100101988004119800000fe2f002c
:10072400008060004019880028e3a9000080eb00e5
:10073400601988002c03a90085a0a90095a0a90030
:1007440021e3a800c01c80000040a1000050a100cb
:10075400c01c8800c01c80000000a1000010a00084
:10076400c01c880099a3a90000302000001d880047
:10077400f0002000101d8800d0002000d01c88004c
:10078400007c2000e01c8800007e2000f01c880013
:100794008700a9009700a80099e3a800001c800026
:1007a4000040a1000050a100001c8800001c800033
:1007b4000000a1000010a000001c880081a3a80074
:1007c400603f2000401c8800f0002000501c88007e
:1007d400e0042000101c8800007e2000201c8800fb
:1007e400007c2000301c88008480a9009480a8002c
:1007f40081e3a800601c80000040a1000050a1001b
:10080400601c8800601c80000000a1000010a00093
:10081400601c88008da3a800803f2000a01c8800d5
:10082400f0002000b01c8800f0042000701c880038
:10083400007a2000801c880000782000901c88002a
:1008440085c0a90095c0a8008de3a800f2e3a80024
:10085400f3e3a800f243a800f343a800f183a9003e
:10086400811f800000f82f00008060003000b3007a
:10087400801f8800f103a800f1e3a800f423ef002f
:100884000080fa00000006000000fa00e0012000e9
:10089400303a8800203a80000060a1000070a10076
:1008a400203a8800213a800000fe2f00008060007a
:1008b400203a88003200200080072000a10920008f
:1008c4003374200080497800814978008249780097
:1008d400103a8000000178000200a00060042000ab
:1008e4007105200023742000804978008149780034
:1008f4008249780000000000113a800000002700bf
:100904008080600000002300808f5000faff3a00ce
:1009140000000000113a8000000220000080600006
:100924000000e000fbff3200503a80000080a0008d
:100934000090a10000a0a000503a88000080fa00b6
:0409440000000600a9
:020000040000fa
:10094800e04700002000000000000000c047000051
:100958002000000000000000a04700002000000068
:10096800020000000000f90018fc30001d4782005a
:100978005a6e6a0042768a007dff7f008a7d4200b7
:10098800766e6a00825a1d0047fc3000f918000094
:10099800804700002000000002000000000007005f
:1009a800e704cf00e3b87e00a5929500be897600e3
:1009b800820080007682be00899295007ea5e300c1
:0c09c800b804cf0007e70000f404800032
:020000040000fa
:1009d4000000fa00acff0700d102a9001cff0700c9
:0409e400ffff3700da
:020000040000fa
:0409e800000000000b
:020000040000fa
:0200000401f009
:04000000ffff0000fe
:020000040000fa
:0200000401f009
:04000400ffff0000fa
:020000040000fa
:0200000401f009
:04000800ffff0000f6
:020000040000fa
:0200000401f009
:04000c0000000000f0
:020000040000fa
:0200000401f009
:040010006500000087
:020000040000fa
:0200000401f009
:040014005f00000089
:020000040000fa
:0200000401f009
:04001800f7000000ed
:020000040000fa
:0200000401f009
:04001c00dfff000002
:00000001FF
