:020000040000fa
:080000000002040000000000f2
:020000040000fa
:0400080028030000c9
:020000040000fa
:04000c00ec02000002
:020000040000fa
:04001000f2020000f8
:020000040000fa
:04001400f8020000ee
:020000040000fa
:04001800fe020000e4
:020000040000fa
:04001c0004030000d9
:020000040000fa
:0400200028030000b1
:020000040000fa
:0400240028030000ad
:020000040000fa
:0400280028030000a9
:020000040000fa
:04002c0028030000a5
:020000040000fa
:0400300028030000a1
:020000040000fa
:04003400280300009d
:020000040000fa
:040038002803000099
:020000040000fa
:04003c002803000095
:020000040000fa
:040040002803000091
:020000040000fa
:04004400280300008d
:020000040000fa
:040048002803000089
:020000040000fa
:04004c002803000085
:020000040000fa
:040050002803000081
:020000040000fa
:04005400280300007d
:020000040000fa
:040058002803000079
:020000040000fa
:04005c002803000075
:020000040000fa
:040060002803000071
:020000040000fa
:04006400280300006d
:020000040000fa
:040068002803000069
:020000040000fa
:04006c002803000065
:020000040000fa
:040070002803000061
:020000040000fa
:04007400280300005d
:020000040000fa
:040078002803000059
:020000040000fa
:04007c002803000055
:020000040000fa
:040080002803000051
:020000040000fa
:04008400280300004d
:020000040000fa
:040088002803000049
:020000040000fa
:04008c002803000045
:020000040000fa
:040090002803000041
:020000040000fa
:04009400280300003d
:020000040000fa
:040098002803000039
:020000040000fa
:04009c002803000035
:020000040000fa
:0400a0002803000031
:020000040000fa
:0400a400280300002d
:020000040000fa
:0400a8002803000029
:020000040000fa
:0400ac002803000025
:020000040000fa
:0400b0002803000021
:020000040000fa
:0400b400280300001d
:020000040000fa
:0400b8002803000019
:020000040000fa
:0400bc002803000015
:020000040000fa
:0400c0002803000011
:020000040000fa
:0400c400280300000d
:020000040000fa
:0400c8002803000009
:020000040000fa
:0400cc002803000005
:020000040000fa
:0400d0002803000001
:020000040000fa
:0400d40028030000fd
:020000040000fa
:0400d80028030000f9
:020000040000fa
:0400dc0028030000f5
:020000040000fa
:0400e00028030000f1
:020000040000fa
:0400e40028030000ed
:020000040000fa
:0400e80028030000e9
:020000040000fa
:0400ec0028030000e5
:020000040000fa
:0400f00028030000e1
:020000040000fa
:0400f40028030000dd
:020000040000fa
:0400f80028030000d9
:020000040000fa
:0400fc0028030000d5
:020000040000fa
:0401000028030000d0
:020000040000fa
:0401040028030000cc
:020000040000fa
:0401080028030000c8
:020000040000fa
:04010c0028030000c4
:020000040000fa
:0401100028030000c0
:020000040000fa
:0401140028030000bc
:020000040000fa
:0401180028030000b8
:020000040000fa
:04011c0028030000b4
:020000040000fa
:0401200028030000b0
:020000040000fa
:0401240028030000ac
:020000040000fa
:0401280028030000a8
:020000040000fa
:04012c0028030000a4
:020000040000fa
:0401300028030000a0
:020000040000fa
:04013400280300009c
:020000040000fa
:040138002803000098
:020000040000fa
:04013c002803000094
:020000040000fa
:040140002803000090
:020000040000fa
:04014400280300008c
:020000040000fa
:040148002803000088
:020000040000fa
:04014c002803000084
:020000040000fa
:040150002803000080
:020000040000fa
:04015400280300007c
:020000040000fa
:040158002803000078
:020000040000fa
:04015c002803000074
:020000040000fa
:04016000a8020000f1
:020000040000fa
:04016400ca020000cb
:020000040000fa
:0402080028030000c7
:020000040000fa
:04020c000a030000e1
:020000040000fa
:0402100010030000d7
:020000040000fa
:0402140016030000cd
:020000040000fa
:040218001c030000c3
:020000040000fa
:04021c0022030000b9
:020000040000fa
:0402200028030000af
:020000040000fa
:0402240028030000ab
:020000040000fa
:0402280028030000a7
:020000040000fa
:04022c0028030000a3
:020000040000fa
:04023000280300009f
:020000040000fa
:04023400280300009b
:020000040000fa
:040238002803000097
:020000040000fa
:04023c002803000093
:020000040000fa
:04024000280300008f
:020000040000fa
:04024400280300008b
:020000040000fa
:040248002803000087
:020000040000fa
:04024c002803000083
:020000040000fa
:04025000280300007f
:020000040000fa
:04025400280300007b
:020000040000fa
:040258002803000077
:020000040000fa
:04025c002803000073
:020000040000fa
:04026000280300006f
:020000040000fa
:04026400280300006b
:020000040000fa
:040268002803000067
:020000040000fa
:04026c002803000063
:020000040000fa
:04027000280300005f
:020000040000fa
:04027400280300005b
:020000040000fa
:040278002803000057
:020000040000fa
:04027c002803000053
:020000040000fa
:04028000280300004f
:020000040000fa
:04028400280300004b
:020000040000fa
:040288002803000047
:020000040000fa
:04028c002803000043
:020000040000fa
:04029000280300003f
:020000040000fa
:04029400280300003b
:020000040000fa
:040298002803000037
:020000040000fa
:04029c002803000033
:020000040000fa
:0402a000280300002f
:020000040000fa
:0402a400280300002b
:020000040000fa
:0402a8002803000027
:020000040000fa
:0402ac002803000023
:020000040000fa
:0402b000280300001f
:020000040000fa
:0402b400280300001b
:020000040000fa
:0402b8002803000017
:020000040000fa
:0402bc002803000013
:020000040000fa
:0402c000280300000f
:020000040000fa
:0402c400280300000b
:020000040000fa
:0402c8002803000007
:020000040000fa
:0402cc002803000003
:020000040000fa
:0402d00028030000ff
:020000040000fa
:0402d40028030000fb
:020000040000fa
:0402d80028030000f7
:020000040000fa
:0402dc0028030000f3
:020000040000fa
:0402e00028030000ef
:020000040000fa
:0402e40028030000eb
:020000040000fa
:0402e80028030000e7
:020000040000fa
:0402ec0028030000e3
:020000040000fa
:0402f00028030000df
:020000040000fa
:0402f40028030000db
:020000040000fa
:0402f80028030000d7
:020000040000fa
:0402fc0028030000d3
:020000040000fa
:0403000028030000ce
:020000040000fa
:0403040028030000ca
:020000040000fa
:0403080028030000c6
:020000040000fa
:04030c0028030000c2
:020000040000fa
:0403100028030000be
:020000040000fa
:0403140028030000ba
:020000040000fa
:0403180028030000b6
:020000040000fa
:04031c0028030000b2
:020000040000fa
:0403200028030000ae
:020000040000fa
:0403240028030000aa
:020000040000fa
:0403280028030000a6
:020000040000fa
:04032c0028030000a2
:020000040000fa
:04033000280300009e
:020000040000fa
:04033400280300009a
:020000040000fa
:040338002803000096
:020000040000fa
:04033c002803000092
:020000040000fa
:04034000280300008e
:020000040000fa
:04034400280300008a
:020000040000fa
:040348002803000086
:020000040000fa
:04034c002803000082
:020000040000fa
:04035000280300007e
:020000040000fa
:04035400280300007a
:020000040000fa
:040358002803000076
:020000040000fa
:04035c002803000072
:020000040000fa
:04036000280300006e
:020000040000fa
:04036400280300006a
:020000040000fa
:100400004f8020000e7f24000e01880000000000b5
:10041000000020000000e000020032000001200087
:10042000200288000c000700603c20000100200032
:1004300011000700000020000000e0000200320070
:100440000000020000000000be03020000000000e7
:100450000040da000000fe004440a9000000200037
:100460000000e0000300320000002000a00188002e
:100470004440a80000000600910188008000780038
:100480000000eb0015003700e280400032a0b4000d
:100490009101ba00e280400032a0b4009102ba009b
:1004a000e280400032a0b4000002eb00472bde00e7
:1004b000f507b200602ce10004003a000059eb009f
:1004c0008301e900fdff3e00040037006128e100e0
:1004d000010032000082eb000b00070011c3ba00dc
:1004e0001101ba000604e00003003a000200e00037
:1004f000e5ff3a0000000600f607b200960188000a
:1005000082007800f5ff37003159ba008301e90015
:100510000c0032002159ba008301e90008003200c2
:100520000400e00003003a00e280400032a0b40082
:10053000f5ff370011d9ba008301e900faff3a004c
:100540008100e800e180400032a0b4000000060015
:10055000809fbe000000fa008dc0a900014080000d
:10056000f0ff2700808f500003003a0000002800b1
:100570000040880002003700f0ff2700004088009c
:1005800000408000b01f88000080fa004f00be00cd
:1005900000400600809fbe000000fa008de0a90028
:1005a00011408000f0ff2700808f500003003a00c8
:1005b000000028001040880002003700f0ff2700ec
:1005c0001040880010408000c01f88000080fa00a2
:1005d0004f00be00004006000000fa008020a90085
:1005e000ffff37000000fa008060a900ffff37001e
:1005f0000000fa008040a900ffff37000000fa0069
:100600008080a900ffff37000000fa0080a0a90049
:10061000ffff37000000fa008020a900ffff37002d
:100620000000fa008060a900ffff37000000fa0018
:100630008040a900ffff37000000fa008080a90079
:10064000ffff37000000fa0080a0a900ffff37007d
:080650000000fa00ffff370073
:020000040000fa
:100658000000fa00e0012000303a8800203a8000cb
:100668000060a1000070a100203a8800213a8000b3
:1006780000fe2f0000806000203a880040a7a900f3
:100688003200200080072000a109200033742000d8
:10069800804978008149780082497800103a8000c2
:1006a800000178000200a00060042000710520000d
:1006b80023742000804978008149780082497800b5
:1006c80000000000113a80000000270080806000d0
:1006d80000002300808f5000faff3a00000000005d
:1006e800113a800000022000008060000000e00055
:1006f800fbff3200503a80000080a0000090a1006b
:1007080000a0a000503a88000080fa00000006000f
:100718000000fa00020007000080fa00000006004e
:100728000000fa00f2e3a800f3e3a800f243a800ef
:10073800f343a800f183a900811f800000f82f006f
:10074800008060003000b300801f8800f103a8001b
:1007580000002800a01f88008dc0a9008de0a90016
:100768009dc0a8009de0a800f1e3a8000080fa0061
:10077800000006000000fa00b5ff0700e4ff0700cc
:04078800ffff370038
:020000040000fa
:10078c00000800000400000000000000ce03800000
:020000040000fa
:04079c000000000059
:020000040000fa
:0200000401f009
:04000c0078ff000079
:020000040000fa
:0200000401f009
:040010007dff000070
:020000040000fa
:0200000401f009
:040014007fff00006a
:020000040000fa
:0200000401f009
:04001800ffff0000e6
:020000040000fa
:0200000401f009
:04001c00dfff000002
:00000001FF
