:020000040000fa
:080000000002040000000000f2
:020000040000fa
:0400080038030000b9
:020000040000fa
:04000c00fc020000f2
:020000040000fa
:0400100002030000e7
:020000040000fa
:0400140008030000dd
:020000040000fa
:040018000e030000d3
:020000040000fa
:04001c0014030000c9
:020000040000fa
:0400200038030000a1
:020000040000fa
:04002400380300009d
:020000040000fa
:040028003803000099
:020000040000fa
:04002c003803000095
:020000040000fa
:040030003803000091
:020000040000fa
:04003400380300008d
:020000040000fa
:040038003803000089
:020000040000fa
:04003c003803000085
:020000040000fa
:040040003803000081
:020000040000fa
:04004400380300007d
:020000040000fa
:040048003803000079
:020000040000fa
:04004c003803000075
:020000040000fa
:040050003803000071
:020000040000fa
:04005400380300006d
:020000040000fa
:040058003803000069
:020000040000fa
:04005c003803000065
:020000040000fa
:04006000d2020000c8
:020000040000fa
:04006400380300005d
:020000040000fa
:040068003803000059
:020000040000fa
:04006c003803000055
:020000040000fa
:040070003803000051
:020000040000fa
:04007400380300004d
:020000040000fa
:040078003803000049
:020000040000fa
:04007c003803000045
:020000040000fa
:040080003803000041
:020000040000fa
:04008400380300003d
:020000040000fa
:040088003803000039
:020000040000fa
:04008c003803000035
:020000040000fa
:040090003803000031
:020000040000fa
:04009400380300002d
:020000040000fa
:04009800a8020000ba
:020000040000fa
:04009c003803000025
:020000040000fa
:0400a0003803000021
:020000040000fa
:0400a400380300001d
:020000040000fa
:0400a8003803000019
:020000040000fa
:0400ac003803000015
:020000040000fa
:0400b0003803000011
:020000040000fa
:0400b400380300000d
:020000040000fa
:0400b8003803000009
:020000040000fa
:0400bc003803000005
:020000040000fa
:0400c0003803000001
:020000040000fa
:0400c40038030000fd
:020000040000fa
:0400c80038030000f9
:020000040000fa
:0400cc0038030000f5
:020000040000fa
:0400d00038030000f1
:020000040000fa
:0400d40038030000ed
:020000040000fa
:0400d80038030000e9
:020000040000fa
:0400dc0038030000e5
:020000040000fa
:0400e00038030000e1
:020000040000fa
:0400e40038030000dd
:020000040000fa
:0400e80038030000d9
:020000040000fa
:0400ec0038030000d5
:020000040000fa
:0400f00038030000d1
:020000040000fa
:0400f40038030000cd
:020000040000fa
:0400f80038030000c9
:020000040000fa
:0400fc0038030000c5
:020000040000fa
:0401000038030000c0
:020000040000fa
:0401040038030000bc
:020000040000fa
:0401080038030000b8
:020000040000fa
:04010c0038030000b4
:020000040000fa
:0401100038030000b0
:020000040000fa
:0401140038030000ac
:020000040000fa
:0401180038030000a8
:020000040000fa
:04011c0038030000a4
:020000040000fa
:0401200038030000a0
:020000040000fa
:04012400380300009c
:020000040000fa
:040128003803000098
:020000040000fa
:04012c003803000094
:020000040000fa
:040130003803000090
:020000040000fa
:04013400380300008c
:020000040000fa
:040138003803000088
:020000040000fa
:04013c003803000084
:020000040000fa
:040140003803000080
:020000040000fa
:04014400380300007c
:020000040000fa
:040148003803000078
:020000040000fa
:04014c003803000074
:020000040000fa
:040150003803000070
:020000040000fa
:04015400380300006c
:020000040000fa
:040158003803000068
:020000040000fa
:04015c003803000064
:020000040000fa
:040160003803000060
:020000040000fa
:04016400380300005c
:020000040000fa
:0402080038030000b7
:020000040000fa
:04020c001a030000d1
:020000040000fa
:0402100020030000c7
:020000040000fa
:0402140026030000bd
:020000040000fa
:040218002c030000b3
:020000040000fa
:04021c0032030000a9
:020000040000fa
:04022000380300009f
:020000040000fa
:04022400380300009b
:020000040000fa
:040228003803000097
:020000040000fa
:04022c003803000093
:020000040000fa
:04023000380300008f
:020000040000fa
:04023400380300008b
:020000040000fa
:040238003803000087
:020000040000fa
:04023c003803000083
:020000040000fa
:04024000380300007f
:020000040000fa
:04024400380300007b
:020000040000fa
:040248003803000077
:020000040000fa
:04024c003803000073
:020000040000fa
:04025000380300006f
:020000040000fa
:04025400380300006b
:020000040000fa
:040258003803000067
:020000040000fa
:04025c003803000063
:020000040000fa
:04026000380300005f
:020000040000fa
:04026400380300005b
:020000040000fa
:040268003803000057
:020000040000fa
:04026c003803000053
:020000040000fa
:04027000380300004f
:020000040000fa
:04027400380300004b
:020000040000fa
:040278003803000047
:020000040000fa
:04027c003803000043
:020000040000fa
:04028000380300003f
:020000040000fa
:04028400380300003b
:020000040000fa
:040288003803000037
:020000040000fa
:04028c003803000033
:020000040000fa
:04029000380300002f
:020000040000fa
:04029400380300002b
:020000040000fa
:040298003803000027
:020000040000fa
:04029c003803000023
:020000040000fa
:0402a000380300001f
:020000040000fa
:0402a400380300001b
:020000040000fa
:0402a8003803000017
:020000040000fa
:0402ac003803000013
:020000040000fa
:0402b000380300000f
:020000040000fa
:0402b400380300000b
:020000040000fa
:0402b8003803000007
:020000040000fa
:0402bc003803000003
:020000040000fa
:0402c00038030000ff
:020000040000fa
:0402c40038030000fb
:020000040000fa
:0402c80038030000f7
:020000040000fa
:0402cc0038030000f3
:020000040000fa
:0402d00038030000ef
:020000040000fa
:0402d40038030000eb
:020000040000fa
:0402d80038030000e7
:020000040000fa
:0402dc0038030000e3
:020000040000fa
:0402e00038030000df
:020000040000fa
:0402e40038030000db
:020000040000fa
:0402e80038030000d7
:020000040000fa
:0402ec0038030000d3
:020000040000fa
:0402f00038030000cf
:020000040000fa
:0402f40038030000cb
:020000040000fa
:0402f80038030000c7
:020000040000fa
:0402fc0038030000c3
:020000040000fa
:0403000038030000be
:020000040000fa
:0403040038030000ba
:020000040000fa
:0403080038030000b6
:020000040000fa
:04030c0038030000b2
:020000040000fa
:0403100038030000ae
:020000040000fa
:0403140038030000aa
:020000040000fa
:0403180038030000a6
:020000040000fa
:04031c0038030000a2
:020000040000fa
:04032000380300009e
:020000040000fa
:04032400380300009a
:020000040000fa
:040328003803000096
:020000040000fa
:04032c003803000092
:020000040000fa
:04033000380300008e
:020000040000fa
:04033400380300008a
:020000040000fa
:040338003803000086
:020000040000fa
:04033c003803000082
:020000040000fa
:04034000380300007e
:020000040000fa
:04034400380300007a
:020000040000fa
:040348003803000076
:020000040000fa
:04034c003803000072
:020000040000fa
:04035000380300006e
:020000040000fa
:04035400380300006a
:020000040000fa
:040358003803000066
:020000040000fa
:04035c003803000062
:020000040000fa
:04036000380300005e
:020000040000fa
:04036400380300005a
:020000040000fa
:100400000f8020000e7724000e01880000000000fd
:10041000000020000000e000020032000001200087
:10042000200288000c000700a045200001002000e9
:1004300011000700000020000000e0000200320070
:10044000000002000000000068040200000000003c
:100450000040da000000fe004440a9000000200037
:100460000000e0000300320000002000a00188002e
:100470004440a80000000600910188008000780038
:100480000000eb0015003700e280400032a0b4000d
:100490009101ba00e280400032a0b4009102ba009b
:1004a000e280400032a0b4000002eb00472bde00e7
:1004b000f507b200602ce10004003a000059eb009f
:1004c0008301e900fdff3e00040037006128e100e0
:1004d000010032000082eb000b00070011c3ba00dc
:1004e0001101ba000604e00003003a000200e00037
:1004f000e5ff3a0000000600f607b200960188000a
:1005000082007800f5ff37003159ba008301e90015
:100510000c0032002159ba008301e90008003200c2
:100520000400e00003003a00e280400032a0b40082
:10053000f5ff370011d9ba008301e900faff3a004c
:100540008100e800e180400032a0b4000000060015
:10055000809fbe00821f78000000fa00a016800075
:100560004700de006140600000c0ea0061406000ba
:100570000080fb00610060004700dd00a2168000e3
:10058000f1f72f008100610001007000a0168800c3
:100590008780a9000080fa004f0178004f00be005c
:1005a00000400600809fbe00821f78000000fa0015
:1005b00085c0a900a01680004600de0061406000f2
:1005c00000c0ea00614060000080fb006100600044
:1005d0004600dd00a2168000f1fb2f0081006100c3
:1005e00001007000a01688000080fa004f0178001a
:1005f0004f00be00004006000000fa008020a90065
:10060000ffff37000000fa008060a900ffff3700fd
:100610000000fa008040a900ffff37000000fa0048
:100620008080a900ffff37000000fa0080a0a90029
:10063000ffff37000000fa008020a900ffff37000d
:100640000000fa008060a900ffff37000000fa00f8
:100650008040a900ffff37000000fa008080a90059
:10066000ffff37000000fa0080a0a900ffff37005d
:080670000000fa00ffff370053
:020000040000fa
:100678000000fa0021e1a9002021a90020c1a90059
:10068800000980000040a1000050a1000009880076
:100698001821ef0000402000e00888009005800045
:1006a8000000a0000010a1000020a1009005880013
:1006b8008780a9009780a80021e1a800d0c2a900de
:1006c800d0e2a9002143a8001019800000d0a100a1
:1006d80000e0a10000f0a1001019880025e3a9009e
:1006e800a0c0b30024e3b7002c03a900e0ff2f004b
:1006f80060198800101980000080a1000090a100f6
:10070800101988004119800000fe2f000080600049
:100718004019880028e3a9002043a8000019800098
:100728000080a0000090a000001988001019800027
:100738000020a1000030a1000040a1000050a1004d
:1007480010198800001980000050a1000060a10065
:100758000070a0000019880021198000f00f2e00f9
:10076800808060000050200001007000201988007f
:1007780021e3a800601c80000040a1000050a100f7
:10078800601c8800601c80000000a1000010a00010
:10079800601c88008da3a9008dc3a900003020002b
:1007a800a01c8800f0012000b01c8800d0002000a8
:1007b800701c8800007c2000801c880000782000c5
:1007c800901c8800500580000080a0000090a100c7
:1007d80000a0a1005005880085c0a90095c0a80008
:1007e8008de3a8000080fa00000006000000fa006f
:1007f800e0012000303a8800203a80000060a10023
:100808000070a100203a8800213a800000fe2f00e5
:1008180000806000203a880040a7a900320020002c
:1008280080072000a1092000337420008049780047
:100838008149780082497800103a800000017800e8
:100848000200a0006004200071052000237420002d
:1008580080497800814978008249780000000000ca
:10086800113a80000000270080806000000023000b
:10087800808f5000faff3a0000000000113a800013
:1008880000022000008060000000e000fbff320052
:10089800503a80000080a0000090a10000a0a000b5
:0c08a800503a88000080fa0000000600b2
:020000040000fa
:1008b400c047000040000000000000008047000026
:0c08c400400000000000000070048000f4
:020000040000fa
:1008d0000000fa00c7ff070067ff0700ffff3700af
:020000040000fa
:0408e0000000000014
:020000040000fa
:0200000401f009
:04000c0000000000f0
:020000040000fa
:0200000401f009
:040010006500000087
:020000040000fa
:0200000401f009
:040014005f00000089
:020000040000fa
:0200000401f009
:04001800f7000000ed
:020000040000fa
:0200000401f009
:04001c00dfff000002
:00000001FF
