:020000040000fa
:080000000002040000000000f2
:020000040000fa
:04000800f4020000fe
:020000040000fa
:04000c00b802000036
:020000040000fa
:04001000be0200002c
:020000040000fa
:04001400c402000022
:020000040000fa
:04001800ca02000018
:020000040000fa
:04001c00d00200000e
:020000040000fa
:04002000f4020000e6
:020000040000fa
:04002400f4020000e2
:020000040000fa
:04002800f4020000de
:020000040000fa
:04002c00f4020000da
:020000040000fa
:04003000f4020000d6
:020000040000fa
:04003400f4020000d2
:020000040000fa
:04003800a80200001a
:020000040000fa
:04003c00f4020000ca
:020000040000fa
:04004000f4020000c6
:020000040000fa
:04004400f4020000c2
:020000040000fa
:04004800f4020000be
:020000040000fa
:04004c00f4020000ba
:020000040000fa
:04005000f4020000b6
:020000040000fa
:04005400f4020000b2
:020000040000fa
:04005800f4020000ae
:020000040000fa
:04005c00f4020000aa
:020000040000fa
:04006000b0020000ea
:020000040000fa
:04006400f4020000a2
:020000040000fa
:04006800f40200009e
:020000040000fa
:04006c00f40200009a
:020000040000fa
:04007000f402000096
:020000040000fa
:04007400f402000092
:020000040000fa
:04007800f40200008e
:020000040000fa
:04007c00f40200008a
:020000040000fa
:04008000f402000086
:020000040000fa
:04008400f402000082
:020000040000fa
:04008800f40200007e
:020000040000fa
:04008c00f40200007a
:020000040000fa
:04009000f402000076
:020000040000fa
:04009400f402000072
:020000040000fa
:04009800f40200006e
:020000040000fa
:04009c00f40200006a
:020000040000fa
:0400a000f402000066
:020000040000fa
:0400a400f402000062
:020000040000fa
:0400a800f40200005e
:020000040000fa
:0400ac00f40200005a
:020000040000fa
:0400b000f402000056
:020000040000fa
:0400b400f402000052
:020000040000fa
:0400b800f40200004e
:020000040000fa
:0400bc00f40200004a
:020000040000fa
:0400c000f402000046
:020000040000fa
:0400c400f402000042
:020000040000fa
:0400c800f40200003e
:020000040000fa
:0400cc00f40200003a
:020000040000fa
:0400d000f402000036
:020000040000fa
:0400d400f402000032
:020000040000fa
:0400d800f40200002e
:020000040000fa
:0400dc00f40200002a
:020000040000fa
:0400e000f402000026
:020000040000fa
:0400e400f402000022
:020000040000fa
:0400e800f40200001e
:020000040000fa
:0400ec00f40200001a
:020000040000fa
:0400f000f402000016
:020000040000fa
:0400f400f402000012
:020000040000fa
:0400f800f40200000e
:020000040000fa
:0400fc00f40200000a
:020000040000fa
:04010000f402000005
:020000040000fa
:04010400f402000001
:020000040000fa
:04010800f4020000fd
:020000040000fa
:04010c00f4020000f9
:020000040000fa
:04011000f4020000f5
:020000040000fa
:04011400f4020000f1
:020000040000fa
:04011800f4020000ed
:020000040000fa
:04011c00f4020000e9
:020000040000fa
:04012000f4020000e5
:020000040000fa
:04012400f4020000e1
:020000040000fa
:04012800f4020000dd
:020000040000fa
:04012c00f4020000d9
:020000040000fa
:04013000f4020000d5
:020000040000fa
:04013400f4020000d1
:020000040000fa
:04013800f4020000cd
:020000040000fa
:04013c00f4020000c9
:020000040000fa
:04014000f4020000c5
:020000040000fa
:04014400f4020000c1
:020000040000fa
:04014800f4020000bd
:020000040000fa
:04014c00f4020000b9
:020000040000fa
:04015000f4020000b5
:020000040000fa
:04015400f4020000b1
:020000040000fa
:04015800f4020000ad
:020000040000fa
:04015c00f4020000a9
:020000040000fa
:04016000f4020000a5
:020000040000fa
:04016400f4020000a1
:020000040000fa
:04020800f4020000fc
:020000040000fa
:04020c00d602000016
:020000040000fa
:04021000dc0200000c
:020000040000fa
:04021400e202000002
:020000040000fa
:04021800e8020000f8
:020000040000fa
:04021c00ee020000ee
:020000040000fa
:04022000f4020000e4
:020000040000fa
:04022400f4020000e0
:020000040000fa
:04022800f4020000dc
:020000040000fa
:04022c00f4020000d8
:020000040000fa
:04023000f4020000d4
:020000040000fa
:04023400f4020000d0
:020000040000fa
:04023800f4020000cc
:020000040000fa
:04023c00f4020000c8
:020000040000fa
:04024000f4020000c4
:020000040000fa
:04024400f4020000c0
:020000040000fa
:04024800f4020000bc
:020000040000fa
:04024c00f4020000b8
:020000040000fa
:04025000f4020000b4
:020000040000fa
:04025400f4020000b0
:020000040000fa
:04025800f4020000ac
:020000040000fa
:04025c00f4020000a8
:020000040000fa
:04026000f4020000a4
:020000040000fa
:04026400f4020000a0
:020000040000fa
:04026800f40200009c
:020000040000fa
:04026c00f402000098
:020000040000fa
:04027000f402000094
:020000040000fa
:04027400f402000090
:020000040000fa
:04027800f40200008c
:020000040000fa
:04027c00f402000088
:020000040000fa
:04028000f402000084
:020000040000fa
:04028400f402000080
:020000040000fa
:04028800f40200007c
:020000040000fa
:04028c00f402000078
:020000040000fa
:04029000f402000074
:020000040000fa
:04029400f402000070
:020000040000fa
:04029800f40200006c
:020000040000fa
:04029c00f402000068
:020000040000fa
:0402a000f402000064
:020000040000fa
:0402a400f402000060
:020000040000fa
:0402a800f40200005c
:020000040000fa
:0402ac00f402000058
:020000040000fa
:0402b000f402000054
:020000040000fa
:0402b400f402000050
:020000040000fa
:0402b800f40200004c
:020000040000fa
:0402bc00f402000048
:020000040000fa
:0402c000f402000044
:020000040000fa
:0402c400f402000040
:020000040000fa
:0402c800f40200003c
:020000040000fa
:0402cc00f402000038
:020000040000fa
:0402d000f402000034
:020000040000fa
:0402d400f402000030
:020000040000fa
:0402d800f40200002c
:020000040000fa
:0402dc00f402000028
:020000040000fa
:0402e000f402000024
:020000040000fa
:0402e400f402000020
:020000040000fa
:0402e800f40200001c
:020000040000fa
:0402ec00f402000018
:020000040000fa
:0402f000f402000014
:020000040000fa
:0402f400f402000010
:020000040000fa
:0402f800f40200000c
:020000040000fa
:0402fc00f402000008
:020000040000fa
:04030000f402000003
:020000040000fa
:04030400f4020000ff
:020000040000fa
:04030800f4020000fb
:020000040000fa
:04030c00f4020000f7
:020000040000fa
:04031000f4020000f3
:020000040000fa
:04031400f4020000ef
:020000040000fa
:04031800f4020000eb
:020000040000fa
:04031c00f4020000e7
:020000040000fa
:04032000f4020000e3
:020000040000fa
:04032400f4020000df
:020000040000fa
:04032800f4020000db
:020000040000fa
:04032c00f4020000d7
:020000040000fa
:04033000f4020000d3
:020000040000fa
:04033400f4020000cf
:020000040000fa
:04033800f4020000cb
:020000040000fa
:04033c00f4020000c7
:020000040000fa
:04034000f4020000c3
:020000040000fa
:04034400f4020000bf
:020000040000fa
:04034800f4020000bb
:020000040000fa
:04034c00f4020000b7
:020000040000fa
:04035000f4020000b3
:020000040000fa
:04035400f4020000af
:020000040000fa
:04035800f4020000ab
:020000040000fa
:04035c00f4020000a7
:020000040000fa
:04036000f4020000a3
:020000040000fa
:04036400f40200009f
:020000040000fa
:100400000f8020000e6f24000e0188000000000005
:10041000000020000000e000020032000001200087
:10042000200288000c000700203f2000010020006f
:1004300011000700000020000000e0000200320070
:1004400000000200000000001c0502000000000087
:100450000040da000000fe004440a9000000200037
:100460000000e0000300320000002000a00188002e
:100470004440a80000000600910188008000780038
:100480000000eb0015003700e280400032a0b4000d
:100490009101ba00e280400032a0b4009102ba009b
:1004a000e280400032a0b4000002eb00472bde00e7
:1004b000f507b200602ce10004003a000059eb009f
:1004c0008301e900fdff3e00040037006128e100e0
:1004d000010032000082eb000b00070011c3ba00dc
:1004e0001101ba000604e00003003a000200e00037
:1004f000e5ff3a0000000600f607b200960188000a
:1005000082007800f5ff37003159ba008301e90015
:100510000c0032002159ba008301e90008003200c2
:100520000400e00003003a00e280400032a0b40082
:10053000f5ff370011d9ba008301e900faff3a004c
:100540008100e800e180400032a0b4000000060015
:100550000000fa008480a9000080fa000040060034
:100560000000fa0085c0a9000080fa0000400600e3
:100570000000fa008020a900ffff37000000fa0009
:100580008060a900ffff37000000fa008040a9004a
:10059000ffff37000000fa008080a900ffff37004e
:1005a0000000fa0080a0a900ffff37000000fa0059
:1005b0008020a900ffff37000000fa008060a9003a
:1005c000ffff37000000fa008040a900ffff37005e
:1005d0000000fa008080a900ffff37000000fa0049
:1005e00080a0a900ffff37000000fa00ffff3700de
:020000040000fa
:1005f0000000fa00001c80000040a1000050a10093
:10060000001c8800001c80000000a1000010a00059
:10061000001c880081a3a80081c3a900603f2000be
:10062000401c8800f0012000501c8800e0042000dd
:10063000101c8800007c2000201c8800007820000e
:10064000301c88008480a9009480a80081e3a80061
:10065000601c80000040a1000050a100601c8800c8
:10066000601c80000000a1000010a000601c880039
:100670008da3a8008dc3a900803f2000a01c880086
:10068000f0012000b01c8800f0042000701c8800dd
:1006900000742000801c880000702000901c8800de
:1006a00085c0a90095c0a8008de3a800f2e3a800ca
:1006b000f3e3a800f243a800f343a800f183a900e4
:1006c000811f800000f82f00008060003000b30020
:1006d000801f8800f103a800f1e3a8000080fa0061
:1006e000000006000000fa00f2e3a800f3e3a8000f
:1006f000f243a800f343a800f183a900811f800002
:1007000000f82f00008060000030a000801f8800eb
:10071000f103a800f1e3a8000080fa000000060041
:100720000000fa00001c80000040a1000050a10061
:10073000001c8800001c80000000a1000010a00028
:10074000001c880081a3a80081c3a900603f20008d
:10075000401c8800f0012000501c8800e0042000ac
:10076000101c8800007c2000201c880000782000dd
:10077000301c88008480a9009480a80081e3a80030
:10078000601c80000040a1000050a100601c880097
:10079000601c80000000a1000010a000601c880008
:1007a0008da3a8008dc3a900803f2000a01c880055
:1007b000f0012000b01c8800f0042000701c8800ac
:1007c00000742000801c880000702000901c8800ad
:1007d00085c0a90095c0a8008de3a8000080fa009c
:0407e000000006000f
:020000040000fa
:1007e400c047000040000000020000000000f800c4
:1007f40018fb30001c4781005a6c6a00407689005f
:100804007dff7f00897d4000766c6a00815a1c0060
:1008140047fb3000f81800000007e70004cfe300ae
:10082400b87ea5009395bf0089768200018076008a
:1008340082bf890093957e00a5e3b80004cf07002a
:10084400e7000000804700004000000002000000b4
:100854000000f80018fb30001c4781005a6c6a0045
:10086400407689007dff7f00897d4000766c6a00b8
:10087400815a1c0047fb3000f81800000007e7000d
:1008840004cfe300b87ea5009395bf00897682006b
:100894000180760082bf890093957e00a5e3b800ad
:1008a40004cf0700e70000004047000040000000bc
:1008b400020000000000f80018fb30001c47810013
:1008c4005a6c6a00407689007dff7f00897d400074
:1008d400766c6a00815a1c0047fb3000f81800004f
:1008e4000007e70004cfe300b87ea5009395bf009e
:1008f400897682000180760082bf890093957e000c
:10090400a5e3b80004cf0700e7000000004700009b
:1009140040000000020000000000f80018fb300056
:100924001c4781005a6c6a00407689007dff7f0075
:10093400897d4000766c6a00815a1c0047fb3000b8
:10094400f81800000007e70004cfe300b87ea50014
:100954009395bf00897682000180760082bf89006a
:1009640093957e00a5e3b80004cf0700e7000000dc
:0409740024058000d6
:020000040000fa
:100978000000fa00e0012000303a8800203a8000a8
:100988000060a1000070a100203a8800213a800090
:1009980000fe2f0000806000203a880040a7a900d0
:1009a8003200200080072000a109200033742000b5
:1009b800804978008149780082497800103a80009f
:1009c800000178000200a0006004200071052000ea
:1009d8002374200080497800814978008249780092
:1009e80000000000113a80000000270080806000ad
:1009f80000002300808f5000faff3a00000000003a
:100a0800113a800000022000008060000000e00031
:100a1800fbff3200503a80000080a0000090a10047
:100a280000a0a000503a88000080fa0000000600ec
:100a38000000fa00ceff0700ebfe0700ffff3700bb
:020000040000fa
:040a480000000000aa
:020000040000fa
:0200000401f009
:04000c0078ff000079
:020000040000fa
:0200000401f009
:040010007dff000070
:020000040000fa
:0200000401f009
:040014007fff00006a
:020000040000fa
:0200000401f009
:04001800ffff0000e6
:020000040000fa
:0200000401f009
:04001c00dfff000002
:00000001FF
