:020000040000fa
:080000000002040000000000f2
:020000040000fa
:04000800e40200000e
:020000040000fa
:04000c00a802000046
:020000040000fa
:04001000ae0200003c
:020000040000fa
:04001400b402000032
:020000040000fa
:04001800ba02000028
:020000040000fa
:04001c00c00200001e
:020000040000fa
:04002000e4020000f6
:020000040000fa
:04002400e4020000f2
:020000040000fa
:04002800e4020000ee
:020000040000fa
:04002c00e4020000ea
:020000040000fa
:04003000e4020000e6
:020000040000fa
:04003400e4020000e2
:020000040000fa
:04003800e4020000de
:020000040000fa
:04003c00e4020000da
:020000040000fa
:04004000e4020000d6
:020000040000fa
:04004400e4020000d2
:020000040000fa
:04004800e4020000ce
:020000040000fa
:04004c00e4020000ca
:020000040000fa
:04005000e4020000c6
:020000040000fa
:04005400e4020000c2
:020000040000fa
:04005800e4020000be
:020000040000fa
:04005c00e4020000ba
:020000040000fa
:04006000e4020000b6
:020000040000fa
:04006400e4020000b2
:020000040000fa
:04006800e4020000ae
:020000040000fa
:04006c00e4020000aa
:020000040000fa
:04007000e4020000a6
:020000040000fa
:04007400e4020000a2
:020000040000fa
:04007800e40200009e
:020000040000fa
:04007c00e40200009a
:020000040000fa
:04008000e402000096
:020000040000fa
:04008400e402000092
:020000040000fa
:04008800e40200008e
:020000040000fa
:04008c00e40200008a
:020000040000fa
:04009000e402000086
:020000040000fa
:04009400e402000082
:020000040000fa
:04009800e40200007e
:020000040000fa
:04009c00e40200007a
:020000040000fa
:0400a000e402000076
:020000040000fa
:0400a400e402000072
:020000040000fa
:0400a800e40200006e
:020000040000fa
:0400ac00e40200006a
:020000040000fa
:0400b000e402000066
:020000040000fa
:0400b400e402000062
:020000040000fa
:0400b800e40200005e
:020000040000fa
:0400bc00e40200005a
:020000040000fa
:0400c000e402000056
:020000040000fa
:0400c400e402000052
:020000040000fa
:0400c800e40200004e
:020000040000fa
:0400cc00e40200004a
:020000040000fa
:0400d000e402000046
:020000040000fa
:0400d400e402000042
:020000040000fa
:0400d800e40200003e
:020000040000fa
:0400dc00e40200003a
:020000040000fa
:0400e000e402000036
:020000040000fa
:0400e400e402000032
:020000040000fa
:0400e800e40200002e
:020000040000fa
:0400ec00e40200002a
:020000040000fa
:0400f000e402000026
:020000040000fa
:0400f400e402000022
:020000040000fa
:0400f800e40200001e
:020000040000fa
:0400fc00e40200001a
:020000040000fa
:04010000e402000015
:020000040000fa
:04010400e402000011
:020000040000fa
:04010800e40200000d
:020000040000fa
:04010c00e402000009
:020000040000fa
:04011000e402000005
:020000040000fa
:04011400e402000001
:020000040000fa
:04011800e4020000fd
:020000040000fa
:04011c00e4020000f9
:020000040000fa
:04012000e4020000f5
:020000040000fa
:04012400e4020000f1
:020000040000fa
:04012800e4020000ed
:020000040000fa
:04012c00e4020000e9
:020000040000fa
:04013000e4020000e5
:020000040000fa
:04013400e4020000e1
:020000040000fa
:04013800e4020000dd
:020000040000fa
:04013c00e4020000d9
:020000040000fa
:04014000e4020000d5
:020000040000fa
:04014400e4020000d1
:020000040000fa
:04014800e4020000cd
:020000040000fa
:04014c00e4020000c9
:020000040000fa
:04015000e4020000c5
:020000040000fa
:04015400e4020000c1
:020000040000fa
:04015800e4020000bd
:020000040000fa
:04015c00e4020000b9
:020000040000fa
:04016000e4020000b5
:020000040000fa
:04016400e4020000b1
:020000040000fa
:04020800e40200000c
:020000040000fa
:04020c00c602000026
:020000040000fa
:04021000cc0200001c
:020000040000fa
:04021400d202000012
:020000040000fa
:04021800d802000008
:020000040000fa
:04021c00de020000fe
:020000040000fa
:04022000e4020000f4
:020000040000fa
:04022400e4020000f0
:020000040000fa
:04022800e4020000ec
:020000040000fa
:04022c00e4020000e8
:020000040000fa
:04023000e4020000e4
:020000040000fa
:04023400e4020000e0
:020000040000fa
:04023800e4020000dc
:020000040000fa
:04023c00e4020000d8
:020000040000fa
:04024000e4020000d4
:020000040000fa
:04024400e4020000d0
:020000040000fa
:04024800e4020000cc
:020000040000fa
:04024c00e4020000c8
:020000040000fa
:04025000e4020000c4
:020000040000fa
:04025400e4020000c0
:020000040000fa
:04025800e4020000bc
:020000040000fa
:04025c00e4020000b8
:020000040000fa
:04026000e4020000b4
:020000040000fa
:04026400e4020000b0
:020000040000fa
:04026800e4020000ac
:020000040000fa
:04026c00e4020000a8
:020000040000fa
:04027000e4020000a4
:020000040000fa
:04027400e4020000a0
:020000040000fa
:04027800e40200009c
:020000040000fa
:04027c00e402000098
:020000040000fa
:04028000e402000094
:020000040000fa
:04028400e402000090
:020000040000fa
:04028800e40200008c
:020000040000fa
:04028c00e402000088
:020000040000fa
:04029000e402000084
:020000040000fa
:04029400e402000080
:020000040000fa
:04029800e40200007c
:020000040000fa
:04029c00e402000078
:020000040000fa
:0402a000e402000074
:020000040000fa
:0402a400e402000070
:020000040000fa
:0402a800e40200006c
:020000040000fa
:0402ac00e402000068
:020000040000fa
:0402b000e402000064
:020000040000fa
:0402b400e402000060
:020000040000fa
:0402b800e40200005c
:020000040000fa
:0402bc00e402000058
:020000040000fa
:0402c000e402000054
:020000040000fa
:0402c400e402000050
:020000040000fa
:0402c800e40200004c
:020000040000fa
:0402cc00e402000048
:020000040000fa
:0402d000e402000044
:020000040000fa
:0402d400e402000040
:020000040000fa
:0402d800e40200003c
:020000040000fa
:0402dc00e402000038
:020000040000fa
:0402e000e402000034
:020000040000fa
:0402e400e402000030
:020000040000fa
:0402e800e40200002c
:020000040000fa
:0402ec00e402000028
:020000040000fa
:0402f000e402000024
:020000040000fa
:0402f400e402000020
:020000040000fa
:0402f800e40200001c
:020000040000fa
:0402fc00e402000018
:020000040000fa
:04030000e402000013
:020000040000fa
:04030400e40200000f
:020000040000fa
:04030800e40200000b
:020000040000fa
:04030c00e402000007
:020000040000fa
:04031000e402000003
:020000040000fa
:04031400e4020000ff
:020000040000fa
:04031800e4020000fb
:020000040000fa
:04031c00e4020000f7
:020000040000fa
:04032000e4020000f3
:020000040000fa
:04032400e4020000ef
:020000040000fa
:04032800e4020000eb
:020000040000fa
:04032c00e4020000e7
:020000040000fa
:04033000e4020000e3
:020000040000fa
:04033400e4020000df
:020000040000fa
:04033800e4020000db
:020000040000fa
:04033c00e4020000d7
:020000040000fa
:04034000e4020000d3
:020000040000fa
:04034400e4020000cf
:020000040000fa
:04034800e4020000cb
:020000040000fa
:04034c00e4020000c7
:020000040000fa
:04035000e4020000c3
:020000040000fa
:04035400e4020000bf
:020000040000fa
:04035800e4020000bb
:020000040000fa
:04035c00e4020000b7
:020000040000fa
:04036000e4020000b3
:020000040000fa
:04036400e4020000af
:020000040000fa
:100400000f8020000e7f24000e01880000000000f5
:10041000000020000000e000020032000001200087
:10042000200288000c000700003620000100200098
:1004300011000700000020000000e0000200320070
:100440000000020000000000e802020000000000be
:100450000040da000000fe004440a9000000200037
:100460000000e0000300320000002000a00188002e
:100470004440a80000000600910188008000780038
:100480000000eb0015003700e280400032a0b4000d
:100490009101ba00e280400032a0b4009102ba009b
:1004a000e280400032a0b4000002eb00472bde00e7
:1004b000f507b200602ce10004003a000059eb009f
:1004c0008301e900fdff3e00040037006128e100e0
:1004d000010032000082eb000b00070011c3ba00dc
:1004e0001101ba000604e00003003a000200e00037
:1004f000e5ff3a0000000600f607b200960188000a
:1005000082007800f5ff37003159ba008301e90015
:100510000c0032002159ba008301e90008003200c2
:100520000400e00003003a00e280400032a0b40082
:10053000f5ff370011d9ba008301e900faff3a004c
:100540008100e800e180400032a0b4000000060015
:100550000000fa008020a900ffff37000000fa0029
:100560008060a900ffff37000000fa008040a9006a
:10057000ffff37000000fa008080a900ffff37006e
:100580000000fa0080a0a900ffff37000000fa0079
:100590008020a900ffff37000000fa008060a9005a
:1005a000ffff37000000fa008040a900ffff37007e
:1005b0000000fa008080a900ffff37000000fa0069
:1005c00080a0a900ffff37000000fa00ffff3700fe
:020000040000fa
:1005d0000000fa00370007003000070001000700a4
:1005e000feff37000000fa00501680004700de00d2
:1005f000614060000080fb00610060004700dd009a
:10060000a2168000f1f72f00810061000100700048
:10061000a01688000080fa00000006000400fa001e
:100620006000b800008fbe000400370012002000f8
:10063000030020001e0f41005e97490070d725007f
:10064000210020001e01be00800f5100818f590043
:10065000f6ff3400a116800000102000008060002a
:1006600000f0a7000000ea000000e9004f00de00f3
:10067000004078000080fb00610060004800dd0061
:10068000a2168000f1ef2f008100610001007000d0
:10069000a01688000080fa00000006000000fa00a2
:1006a000d0e2a900c8e2a800d102a9000080fa00a7
:1006b000000006000000fa000080fa0000000600ba
:020000040000fa
:0406c0006203800051
:020000040000fa
:0406c4000000000032
:00000001FF
