:020000040000fa
:080000000002040000000000f2
:020000040000fa
:040008002e030000c3
:020000040000fa
:04000c00f2020000fc
:020000040000fa
:04001000f8020000f2
:020000040000fa
:04001400fe020000e8
:020000040000fa
:0400180004030000dd
:020000040000fa
:04001c000a030000d3
:020000040000fa
:040020002e030000ab
:020000040000fa
:040024002e030000a7
:020000040000fa
:040028002e030000a3
:020000040000fa
:04002c002e0300009f
:020000040000fa
:040030002e0300009b
:020000040000fa
:040034002e03000097
:020000040000fa
:040038002e03000093
:020000040000fa
:04003c002e0300008f
:020000040000fa
:040040002e0300008b
:020000040000fa
:040044002e03000087
:020000040000fa
:04004800c8020000ea
:020000040000fa
:04004c002e0300007f
:020000040000fa
:040050002e0300007b
:020000040000fa
:040054002e03000077
:020000040000fa
:040058002e03000073
:020000040000fa
:04005c002e0300006f
:020000040000fa
:040060002e0300006b
:020000040000fa
:040064002e03000067
:020000040000fa
:040068002e03000063
:020000040000fa
:04006c002e0300005f
:020000040000fa
:040070002e0300005b
:020000040000fa
:040074002e03000057
:020000040000fa
:040078002e03000053
:020000040000fa
:04007c002e0300004f
:020000040000fa
:040080002e0300004b
:020000040000fa
:040084002e03000047
:020000040000fa
:040088002e03000043
:020000040000fa
:04008c002e0300003f
:020000040000fa
:040090002e0300003b
:020000040000fa
:040094002e03000037
:020000040000fa
:040098002e03000033
:020000040000fa
:04009c002e0300002f
:020000040000fa
:0400a0002e0300002b
:020000040000fa
:0400a4002e03000027
:020000040000fa
:0400a8002e03000023
:020000040000fa
:0400ac002e0300001f
:020000040000fa
:0400b0002e0300001b
:020000040000fa
:0400b4002e03000017
:020000040000fa
:0400b8002e03000013
:020000040000fa
:0400bc002e0300000f
:020000040000fa
:0400c0002e0300000b
:020000040000fa
:0400c4002e03000007
:020000040000fa
:0400c8002e03000003
:020000040000fa
:0400cc002e030000ff
:020000040000fa
:0400d0002e030000fb
:020000040000fa
:0400d4002e030000f7
:020000040000fa
:0400d8002e030000f3
:020000040000fa
:0400dc002e030000ef
:020000040000fa
:0400e0002e030000eb
:020000040000fa
:0400e4002e030000e7
:020000040000fa
:0400e8002e030000e3
:020000040000fa
:0400ec002e030000df
:020000040000fa
:0400f0002e030000db
:020000040000fa
:0400f4002e030000d7
:020000040000fa
:0400f8002e030000d3
:020000040000fa
:0400fc002e030000cf
:020000040000fa
:040100002e030000ca
:020000040000fa
:040104002e030000c6
:020000040000fa
:040108002e030000c2
:020000040000fa
:04010c002e030000be
:020000040000fa
:040110002e030000ba
:020000040000fa
:040114002e030000b6
:020000040000fa
:040118002e030000b2
:020000040000fa
:04011c002e030000ae
:020000040000fa
:040120002e030000aa
:020000040000fa
:040124002e030000a6
:020000040000fa
:040128002e030000a2
:020000040000fa
:04012c002e0300009e
:020000040000fa
:040130002e0300009a
:020000040000fa
:040134002e03000096
:020000040000fa
:040138002e03000092
:020000040000fa
:04013c002e0300008e
:020000040000fa
:040140002e0300008a
:020000040000fa
:040144002e03000086
:020000040000fa
:040148002e03000082
:020000040000fa
:04014c002e0300007e
:020000040000fa
:040150002e0300007a
:020000040000fa
:040154002e03000076
:020000040000fa
:040158002e03000072
:020000040000fa
:04015c002e0300006e
:020000040000fa
:040160002e0300006a
:020000040000fa
:040164002e03000066
:020000040000fa
:040208002e030000c1
:020000040000fa
:04020c0010030000db
:020000040000fa
:0402100016030000d1
:020000040000fa
:040214001c030000c7
:020000040000fa
:0402180022030000bd
:020000040000fa
:04021c0028030000b3
:020000040000fa
:040220002e030000a9
:020000040000fa
:040224002e030000a5
:020000040000fa
:040228002e030000a1
:020000040000fa
:04022c002e0300009d
:020000040000fa
:040230002e03000099
:020000040000fa
:040234002e03000095
:020000040000fa
:040238002e03000091
:020000040000fa
:04023c002e0300008d
:020000040000fa
:040240002e03000089
:020000040000fa
:040244002e03000085
:020000040000fa
:040248002e03000081
:020000040000fa
:04024c002e0300007d
:020000040000fa
:040250002e03000079
:020000040000fa
:040254002e03000075
:020000040000fa
:040258002e03000071
:020000040000fa
:04025c002e0300006d
:020000040000fa
:040260002e03000069
:020000040000fa
:040264002e03000065
:020000040000fa
:040268002e03000061
:020000040000fa
:04026c002e0300005d
:020000040000fa
:040270002e03000059
:020000040000fa
:040274002e03000055
:020000040000fa
:040278002e03000051
:020000040000fa
:04027c002e0300004d
:020000040000fa
:040280002e03000049
:020000040000fa
:040284002e03000045
:020000040000fa
:040288002e03000041
:020000040000fa
:04028c002e0300003d
:020000040000fa
:040290002e03000039
:020000040000fa
:040294002e03000035
:020000040000fa
:040298002e03000031
:020000040000fa
:04029c002e0300002d
:020000040000fa
:0402a0002e03000029
:020000040000fa
:0402a4002e03000025
:020000040000fa
:0402a8002e03000021
:020000040000fa
:0402ac002e0300001d
:020000040000fa
:0402b0002e03000019
:020000040000fa
:0402b4002e03000015
:020000040000fa
:0402b8002e03000011
:020000040000fa
:0402bc002e0300000d
:020000040000fa
:0402c0002e03000009
:020000040000fa
:0402c4002e03000005
:020000040000fa
:0402c8002e03000001
:020000040000fa
:0402cc002e030000fd
:020000040000fa
:0402d0002e030000f9
:020000040000fa
:0402d4002e030000f5
:020000040000fa
:0402d8002e030000f1
:020000040000fa
:0402dc002e030000ed
:020000040000fa
:0402e0002e030000e9
:020000040000fa
:0402e4002e030000e5
:020000040000fa
:0402e8002e030000e1
:020000040000fa
:0402ec002e030000dd
:020000040000fa
:0402f0002e030000d9
:020000040000fa
:0402f4002e030000d5
:020000040000fa
:0402f8002e030000d1
:020000040000fa
:0402fc002e030000cd
:020000040000fa
:040300002e030000c8
:020000040000fa
:040304002e030000c4
:020000040000fa
:040308002e030000c0
:020000040000fa
:04030c002e030000bc
:020000040000fa
:040310002e030000b8
:020000040000fa
:040314002e030000b4
:020000040000fa
:040318002e030000b0
:020000040000fa
:04031c002e030000ac
:020000040000fa
:040320002e030000a8
:020000040000fa
:040324002e030000a4
:020000040000fa
:040328002e030000a0
:020000040000fa
:04032c002e0300009c
:020000040000fa
:040330002e03000098
:020000040000fa
:040334002e03000094
:020000040000fa
:040338002e03000090
:020000040000fa
:04033c002e0300008c
:020000040000fa
:040340002e03000088
:020000040000fa
:040344002e03000084
:020000040000fa
:040348002e03000080
:020000040000fa
:04034c002e0300007c
:020000040000fa
:040350002e03000078
:020000040000fa
:040354002e03000074
:020000040000fa
:040358002e03000070
:020000040000fa
:04035c002e0300006c
:020000040000fa
:040360002e03000068
:020000040000fa
:040364002e03000064
:020000040000fa
:100400004f8020000e7f24000e01880000000000b5
:10041000000020000000e000020032000001200087
:1004200020028800140007008e0007000000e00092
:1004300003003a0060442000010020000200370061
:100440000000200001002000810f70000100320038
:1004500014000700000020000000e000020032004d
:10046000000002000000000036040200000000004e
:100470000040da000000fe004440a9000000200017
:100480000000e0000300320000002000a00188000e
:100490004440a800000006008a1f78008b1f7800e7
:1004a0000000060091018800800478000000eb0045
:1004b0001a003700e284440032a0b4009905ba0063
:1004c000e284440032a0b4009906ba00e2844400f9
:1004d00032a0b4000006eb00476fde00fd07b2005b
:1004e000636ce10003003a00ebff07000000eb0043
:1004f0000a003700606ce10004003a00005deb0088
:100500008b05e900fdff3e00040037006168e10053
:10051000010032000086eb000b00070019c7ba008b
:100520001905ba000e04e00003003a000a00e000da
:10053000e0ff3a0000000600fe07b2009e018800be
:100540008a047800f5ff3700395dba008b05e900b1
:100550000c003200295dba008b05e900080032006a
:100560000c00e00003003a00e284440032a0b40032
:10057000f5ff370019ddba008b05e900faff3a00f4
:100580008904e800e184440032a0b40000000600c1
:10059000809fbe000000fa00a11680000008200025
:1005a0000080600000f0a7000000ea000000e90001
:1005b0004f00de00004078000080fb00610060001a
:1005c0004700dd00a11680000170a100010070004d
:1005d000a01688008500a9000080fa004f00be0028
:1005e000004006000000fa008020a900ffff37004d
:1005f0000000fa008060a900ffff37000000fa0049
:100600008040a900ffff37000000fa008080a900a9
:10061000ffff37000000fa0080a0a900ffff3700ad
:100620000000fa008020a900ffff37000000fa0058
:100630008060a900ffff37000000fa008040a90099
:10064000ffff37000000fa008080a900ffff37009d
:100650000000fa0080a0a900ffff37000000fa00a8
:08066000ffff37000000050058
:020000040000fa
:100668000000fa000080fa00000006000000fa000e
:10067800c8e2a800d102a900d0c2a900d0e2a9000e
:100688000080fa00000006000200fa005016800000
:100698004700de0061406000004f78009e4078000f
:1006a80061c060000080fb00610060004800dd0060
:1006b800a11680000180a10001007000a01688002a
:1006c8000080fa00000006000000fa00a116800071
:1006d800000420000080600000f0a7000000ea008d
:1006e8000000e9004f00de00004078000080fb00b9
:1006f800610060004600dd00a11680000160a100d5
:1007080001007000a01688000028ef000228ef0002
:100718000600370000408000114080006100400062
:10072800e0804800004088001140880002408000b6
:1007380013408000d042200041002000800f51006b
:10074800818f5900f3ff36000080fa000000060090
:100758000000fa0013e1a90011e1a9001061a80046
:100768001021a90010c1a90081088000f0fc2f0009
:1007780000806000800888000a21ef000621ef0051
:10078800202620007008880000a025006008880046
:100798004105800080ff2f00008060000000a0005d
:1007a800400588008500a9009500a80011e1a8006f
:1007b8000080fa00000006000000fa00e0012000b6
:1007c800303a8800213a8000f0f32f000080600062
:1007d800203a8800213a800000fe2f000080600047
:1007e800203a880040a7a900320020008007200096
:1007f800a1092000337420008049780081497800dd
:1008080082497800103a8000000178000200a000b8
:1008180060042000710520002374200080497800be
:10082800814978008249780000000000113a800070
:10083800000027008080600000002300808f5000a7
:10084800faff3a0000000000113a80000002200080
:10085800008060000000e000fbff32000080fa002a
:10086800000006000000fa00d3ff07007cff070025
:100878007eff0700b6ff070083ff070092ff07000f
:04088800fdff370039
:020000040000fa
:10088c000008000004000000000000000000000050
:020000040000fa
:0200000401f009
:04000000ffff0000fe
:020000040000fa
:0200000401f009
:04000400ffff0000fa
:020000040000fa
:0200000401f009
:04000800ffff0000f6
:020000040000fa
:0200000401f009
:04000c0000000000f0
:020000040000fa
:0200000401f009
:040010006500000087
:020000040000fa
:0200000401f009
:040014005f00000089
:020000040000fa
:0200000401f009
:04001800f7000000ed
:020000040000fa
:0200000401f009
:04001c00dfff000002
:00000001FF
