:020000040000fa
:080000000002040000000000f2
:020000040000fa
:04000800ce04000022
:020000040000fa
:04000c00920400005a
:020000040000fa
:040010009804000050
:020000040000fa
:040014009e04000046
:020000040000fa
:04001800a40400003c
:020000040000fa
:04001c00aa04000032
:020000040000fa
:04002000ce0400000a
:020000040000fa
:04002400ce04000006
:020000040000fa
:04002800ce04000002
:020000040000fa
:04002c00ce040000fe
:020000040000fa
:04003000ce040000fa
:020000040000fa
:04003400ce040000f6
:020000040000fa
:04003800260400009a
:020000040000fa
:04003c00ce040000ee
:020000040000fa
:04004000ce040000ea
:020000040000fa
:04004400ce040000e6
:020000040000fa
:04004800ce040000e2
:020000040000fa
:04004c00ce040000de
:020000040000fa
:04005000ce040000da
:020000040000fa
:04005400ce040000d6
:020000040000fa
:040058002e04000072
:020000040000fa
:04005c00ce040000ce
:020000040000fa
:040060001e0400007a
:020000040000fa
:04006400ce040000c6
:020000040000fa
:04006800ce040000c2
:020000040000fa
:04006c00ce040000be
:020000040000fa
:04007000ce040000ba
:020000040000fa
:04007400ce040000b6
:020000040000fa
:04007800ce040000b2
:020000040000fa
:04007c00ce040000ae
:020000040000fa
:04008000ce040000aa
:020000040000fa
:04008400ce040000a6
:020000040000fa
:04008800d2020000a0
:020000040000fa
:04008c00ce0400009e
:020000040000fa
:04009000ce0400009a
:020000040000fa
:04009400ce04000096
:020000040000fa
:04009800a8020000ba
:020000040000fa
:04009c00ce0400008e
:020000040000fa
:0400a000ce0400008a
:020000040000fa
:0400a400ce04000086
:020000040000fa
:0400a800ce04000082
:020000040000fa
:0400ac00ce0400007e
:020000040000fa
:0400b000ce0400007a
:020000040000fa
:0400b400ce04000076
:020000040000fa
:0400b800ce04000072
:020000040000fa
:0400bc00ce0400006e
:020000040000fa
:0400c000ce0400006a
:020000040000fa
:0400c400ce04000066
:020000040000fa
:0400c800ce04000062
:020000040000fa
:0400cc00ce0400005e
:020000040000fa
:0400d000ce0400005a
:020000040000fa
:0400d400ce04000056
:020000040000fa
:0400d800ce04000052
:020000040000fa
:0400dc00ce0400004e
:020000040000fa
:0400e000ce0400004a
:020000040000fa
:0400e400ce04000046
:020000040000fa
:0400e800ce04000042
:020000040000fa
:0400ec00ce0400003e
:020000040000fa
:0400f000ce0400003a
:020000040000fa
:0400f400ce04000036
:020000040000fa
:0400f800ce04000032
:020000040000fa
:0400fc00ce0400002e
:020000040000fa
:04010000ce04000029
:020000040000fa
:04010400ce04000025
:020000040000fa
:04010800ce04000021
:020000040000fa
:04010c00ce0400001d
:020000040000fa
:04011000ce04000019
:020000040000fa
:04011400ce04000015
:020000040000fa
:04011800ce04000011
:020000040000fa
:04011c00ce0400000d
:020000040000fa
:04012000ce04000009
:020000040000fa
:04012400ce04000005
:020000040000fa
:04012800ce04000001
:020000040000fa
:04012c00ce040000fd
:020000040000fa
:04013000ce040000f9
:020000040000fa
:04013400ce040000f5
:020000040000fa
:04013800ce040000f1
:020000040000fa
:04013c00ce040000ed
:020000040000fa
:04014000ce040000e9
:020000040000fa
:04014400ce040000e5
:020000040000fa
:04014800ce040000e1
:020000040000fa
:04014c00ce040000dd
:020000040000fa
:04015000ce040000d9
:020000040000fa
:04015400ce040000d5
:020000040000fa
:04015800ce040000d1
:020000040000fa
:04015c00ce040000cd
:020000040000fa
:04016000ce040000c9
:020000040000fa
:04016400ce040000c5
:020000040000fa
:04020800ce04000020
:020000040000fa
:04020c00b00400003a
:020000040000fa
:04021000b604000030
:020000040000fa
:04021400bc04000026
:020000040000fa
:04021800c20400001c
:020000040000fa
:04021c00c804000012
:020000040000fa
:04022000ce04000008
:020000040000fa
:04022400ce04000004
:020000040000fa
:04022800ce04000000
:020000040000fa
:04022c00ce040000fc
:020000040000fa
:04023000ce040000f8
:020000040000fa
:04023400ce040000f4
:020000040000fa
:04023800ce040000f0
:020000040000fa
:04023c00ce040000ec
:020000040000fa
:04024000ce040000e8
:020000040000fa
:04024400ce040000e4
:020000040000fa
:04024800ce040000e0
:020000040000fa
:04024c00ce040000dc
:020000040000fa
:04025000ce040000d8
:020000040000fa
:04025400ce040000d4
:020000040000fa
:04025800ce040000d0
:020000040000fa
:04025c00ce040000cc
:020000040000fa
:04026000ce040000c8
:020000040000fa
:04026400ce040000c4
:020000040000fa
:04026800ce040000c0
:020000040000fa
:04026c00ce040000bc
:020000040000fa
:04027000ce040000b8
:020000040000fa
:04027400ce040000b4
:020000040000fa
:04027800ce040000b0
:020000040000fa
:04027c00ce040000ac
:020000040000fa
:04028000ce040000a8
:020000040000fa
:04028400ce040000a4
:020000040000fa
:04028800ce040000a0
:020000040000fa
:04028c00ce0400009c
:020000040000fa
:04029000ce04000098
:020000040000fa
:04029400ce04000094
:020000040000fa
:04029800ce04000090
:020000040000fa
:04029c00ce0400008c
:020000040000fa
:0402a000ce04000088
:020000040000fa
:0402a400ce04000084
:020000040000fa
:0402a800ce04000080
:020000040000fa
:0402ac00ce0400007c
:020000040000fa
:0402b000ce04000078
:020000040000fa
:0402b400ce04000074
:020000040000fa
:0402b800ce04000070
:020000040000fa
:0402bc00ce0400006c
:020000040000fa
:0402c000ce04000068
:020000040000fa
:0402c400ce04000064
:020000040000fa
:0402c800ce04000060
:020000040000fa
:0402cc00ce0400005c
:020000040000fa
:0402d000ce04000058
:020000040000fa
:0402d400ce04000054
:020000040000fa
:0402d800ce04000050
:020000040000fa
:0402dc00ce0400004c
:020000040000fa
:0402e000ce04000048
:020000040000fa
:0402e400ce04000044
:020000040000fa
:0402e800ce04000040
:020000040000fa
:0402ec00ce0400003c
:020000040000fa
:0402f000ce04000038
:020000040000fa
:0402f400ce04000034
:020000040000fa
:0402f800ce04000030
:020000040000fa
:0402fc00ce0400002c
:020000040000fa
:04030000ce04000027
:020000040000fa
:04030400ce04000023
:020000040000fa
:04030800ce0400001f
:020000040000fa
:04030c00ce0400001b
:020000040000fa
:04031000ce04000017
:020000040000fa
:04031400ce04000013
:020000040000fa
:04031800ce0400000f
:020000040000fa
:04031c00ce0400000b
:020000040000fa
:04032000ce04000007
:020000040000fa
:04032400ce04000003
:020000040000fa
:04032800ce040000ff
:020000040000fa
:04032c00ce040000fb
:020000040000fa
:04033000ce040000f7
:020000040000fa
:04033400ce040000f3
:020000040000fa
:04033800ce040000ef
:020000040000fa
:04033c00ce040000eb
:020000040000fa
:04034000ce040000e7
:020000040000fa
:04034400ce040000e3
:020000040000fa
:04034800ce040000df
:020000040000fa
:04034c00ce040000db
:020000040000fa
:04035000ce040000d7
:020000040000fa
:04035400ce040000d3
:020000040000fa
:04035800ce040000cf
:020000040000fa
:04035c00ce040000cb
:020000040000fa
:04036000ce040000c7
:020000040000fa
:04036400ce040000c3
:020000040000fa
:100400008f8720000e5f24000e018800000000008e
:10041000000020000000e000020032000001200087
:10042000200288000c00070000fd200001002000d1
:1004300011000700000020000000e0000200320070
:100440000000020000000000161002000000000082
:100450000040da000000fe004440a9000000200037
:100460000000e0000300320000002000a00188002e
:100470004440a80000000600910188008000780038
:100480000000eb0015003700e280400032a0b4000d
:100490009101ba00e280400032a0b4009102ba009b
:1004a000e280400032a0b4000002eb00472bde00e7
:1004b000f507b200602ce10004003a000059eb009f
:1004c0008301e900fdff3e00040037006128e100e0
:1004d000010032000082eb000b00070011c3ba00dc
:1004e0001101ba000604e00003003a000200e00037
:1004f000e5ff3a0000000600f607b200960188000a
:1005000082007800f5ff37003159ba008301e90015
:100510000c0032002159ba008301e90008003200c2
:100520000400e00003003a00e280400032a0b40082
:10053000f5ff370011d9ba008301e900faff3a004c
:100540008100e800e180400032a0b4000000060015
:10055000809fbe00821f78000000fa008780a900fb
:10056000a01680004800de006140600000c0ea0084
:10057000614060000080fb00610060004800dd0019
:10058000a2168000f1ef2f008100610001007000d1
:10059000a01688000080fa004f0178004f00be00ce
:1005a000004006003600f800809fbe00829fbe001b
:1005b000849fbe00869fbe000200fa008700a9004b
:1005c000101f8000640060000000e00028003a0076
:1005d0000000eb00000f7800120037001e007800ca
:1005e0008000400000782400008040001000780067
:1005f000800078001e0078004201dd0000602400c9
:1006000000004100010878001e007800c200dd00f3
:1006100020602400008040008000eb00010878008a
:100620001e0fe8001e007800ff0f5000ebff3400a3
:100630001142800020428000808f500008003a0064
:1006400004f02f00038020000260240001682400d1
:10065000500020008e0107004228ef002b003700d9
:10066000104280000000e800104288002700370098
:100670000000eb00000f7800120037001e00780029
:1006800080004000007c24000080400010007800c2
:10069000800078001e0078004201dd000060240028
:1006a00000004100010878001e007800c200dd0053
:1006b00020602400008040008000eb0001087800ea
:1006c0001e0fe8001e007800ff0f5000ebff340003
:1006d0001142800020428000808f500008003a00c4
:1006e00004f02f0003802000026024000168240031
:1006f00050002000660107004228ef000300370089
:10070000104280000000e800104288008084200031
:1007100001c3b300014878009084200081c7b30072
:1007200001487800a084200011c4b300014878007b
:10073000b084200011c4b300014878000000eb0031
:10074000000f78000d0037009e00780064804000a4
:100750009e0078004209dd0001682400810041000c
:1007600091007800814078000143b0000141780099
:1007700081842000827078001e0fe8001e0078003f
:10078000ef0f5000f0ff3400c085200001c3b3001c
:1007900001487800d085200081c7b3000148780067
:1007a0000000eb00000f78000e0037009e0078007c
:1007b000768040009e007800c208dd000181e800dc
:1007c0000168240081004100910078008140780098
:1007d0000143b000014178008184200082707800dc
:1007e0001e0fe8001e007800ef0f5000efff3400ee
:1007f000e086200001c3b30001487800f0862000a5
:1008000081c7b300014878000087200051c3b300be
:10081000014878001087200051c3b30001487800d8
:100820000080fa004f03be004f02be004f01be0021
:100830004f00be003600f900004006000000fa003c
:1008400085c0a9000080fa00004006000000fa0000
:100850008480a9000080fa0000400600809fbe004e
:10086000821f78003400f80000002000a0018800fa
:100870000200fa008580a90069100900000000004c
:100880000042800081842000614078000000fb006d
:1008900020118800004280000000e800004288002b
:1008a0000142800090022000808f50001800340028
:1008b0004028ef00a01680004900de006140600083
:1008c00000c0ea00614060000080fb006100600041
:1008d0004900dd00a2168000f1df2f0081006100d9
:1008e00001007000a01688000000eb00000f7800e7
:1008f0000300370069100900000000001e0fe80027
:10090000f0e124009e007800808f5000f9ff340051
:100910000080fa003400f9004f0178004f00be005b
:10092000004006000000fa008020a900ffff370009
:100930000000fa008060a900ffff37000000fa0005
:100940008040a900ffff37000000fa008080a90066
:10095000ffff37000000fa0080a0a900ffff37006a
:100960000000fa008020a900ffff37000000fa0015
:100970008060a900ffff37000000fa008040a90056
:10098000ffff37000000fa008080a900ffff37005a
:100990000000fa0080a0a900ffff37000000fa0065
:1009a000ffff3700f2874700889fbe008a9fbe0086
:1009b0008c9fbe008e1f780091b79f0002057800c3
:1009c0001c0020000066dd0022002000110009004c
:1009d0000206d800000678000000200001f823007d
:1009e000d70007009fb09700800878000001eb0057
:1009f000920098006160b900df0207000001be00ac
:100a0000b0fd2000910424004d020700800478000e
:100a10000104780009007800880078004602070089
:100a2000c0b79f00b1b79f00e00f550091003200a2
:100a30000801be000300780082007800cb030700a5
:100a40000005be000c83e900830033001fb097004f
:100a500064004000f0b79f008a0678000b0778001a
:100a6000cfb09700e1b79f003fb09700d0b79f008d
:100a70000001be00030078008200780086bf9f005e
:100a8000af000700ffb09700800878000d007800e5
:100a90008e007800aa000700ffb097009000980031
:100aa000e4804000f1b79f00cfb197003fb19700bd
:100ab00003027800820278000401be006fb2970042
:100ac000dfb297000400be000b0307000004be0065
:100ad0000a01be000d0278008e0278000400be00fc
:100ae000050307000001be000800be00ac010700be
:100af000a0b79f00010678004fb19700bfb19700e3
:100b00000202be000401be000d0278008e027800d1
:100b10000400be00f8020700800478000104780099
:100b20000a01be006fb29700dfb297000400be005a
:100b3000f10207000801be0003027800820278007b
:100b40000401be00970107008006780001077800c5
:100b50000fbb97000603e9003f003300afb09700da
:100b6000e1b79f00dcb79f00810178000c0178009d
:100b7000030078008200780086bf9f0070000700a5
:100b8000ffb09700800878000d0078008e00780094
:100b90006b000700ffb0970090009800e4804000d1
:100ba000f1b79f00cfb197003fb1970003027800e3
:100bb000820278000401be006fb29700dfb2970096
:100bc0000400be00cc0207000004be000a01be0003
:100bd0000d0278008e0278000400be00c6020700f5
:100be0000001be000800be006d010700a0b79f0015
:100bf000010678004fb19700bfb197000202be0016
:100c00000401be000d0278008e0278000400be00d0
:100c1000b902070080047800010478000a01be00d0
:100c20006fb29700dfb297000400be00b202070067
:100c30000801be0003027800820278000401be00b1
:100c40005801070080067800010778000fbb970065
:100c50000603e900c1ff3b001fb097004f07780073
:100c60004f06be004f05be004f04be002f01b1006d
:100c7000000006000801be00030078008200780032
:100c80003a0307000005be000bf0a2006dff37001d
:100c9000809fbe00831f7800841f780023002000ff
:100ca0000018dd0044080200000000004f01be00f3
:100cb0004f00be00801f78005008020000000000b6
:100cc000800078004f0078006a06020000000000f3
:100cd000000006004600f8005000f8000220200046
:100ce0003202880002002800130020008019dd0075
:100cf0000281710082028800010078000101780001
:100d000026002000470020008301e900038008003e
:100d1000070000000110e100040034001102be00d1
:100d200092087800e2307b000489be008780400092
:100d3000121978005000f9004600f9000000060082
:100d4000ea874700889fbe008a9fbe008c9fbe0036
:100d50008e1f78000004be000200200003702400f3
:100d60006502070080067800010678006011b8006f
:100d70000800be00dd010700e00f50003b00350019
:100d80000d0078008c007800fe010700d9010700f3
:100d90000003780001077800060078008e007800d4
:100da00086bf9f00f40107000004be00020020007f
:100db00003f0230050020700f0b79f00e1b79f0047
:100dc000f00107000005be000801be000d0078001c
:100dd0008c03780000027800870278000400be00cf
:100de000ef0007008006780001067800020020006e
:100df00003f023000d0278008c0278000400be008e
:100e0000ba01070000017800e00f51007f003400b4
:100e10000200200003f823000800be00e1000700e4
:100e2000b40107000003780001077800860178000c
:100e30000e0178000300780082007800f2ff27009e
:100e4000820f5000e08f580002003400f0ff2700ae
:100e5000010020004f0778004f06be004f05be007e
:100e60004f04be00af00b100000006000d00780086
:100e70008c007800280107009e010700f0b79f0052
:100e8000010778008e007800bb0107000004be0057
:100e90000d0178008c0178000800be00c101070038
:100ea00000017800e00f51000a003200020020002b
:100eb00003f823000800be00b90007008d010700f9
:100ec000f0b79f00010778008e007800aa010700a4
:100ed0000004be000200200003f023000800be0052
:100ee00005020700e0b79f00d1b79f00a5010700ea
:100ef0000005be000801be000c03be00070278001a
:100f0000860278000400be00a50007008006780075
:100f1000010678000200200003f023000d02780093
:100f20008c0278000400be00700107000001780008
:100f3000e00f5100180034000200200003f82300e5
:100f40000800be00970007006a010700f0b79f0085
:100f500001077800ffb197000e01780003007800c8
:100f60008200780002002800f3ff2f00820f50005b
:100f7000838f5800b7ff3d000200be004f07780086
:100f80004f06be004f05be004f04be00af00b100cb
:100f900000000600b5ff37000200200003f0230028
:100fa0000c00be0001027800800278000400be0040
:100fb0004c01070000067800e00f5600e5ff3a00fc
:100fc0000a01be00efb297005fb2970005007800fb
:100fd00084007800720007000001be007100070065
:100fe000440107008c0f5000daff3200020020009d
:100ff00003f823000800be006a0007003d01070057
:10100000f0b79f0001077800d2ff370002002000f0
:1010100003f023000c00be0001027800800278007b
:101020000400be002f010700000678000fbb9700e8
:10103000e00f56007dff3a000a01be00ffb29700a4
:101040006fb2970005007800840078005400070014
:101050000001be0053000700260107000fbb9700e8
:101060008c0f500071ff32000200200003f82300b3
:101070000800be004b0007001e01070000037800b7
:101080000107780069ff3700810178000000e9005e
:1010900000800900b2187800030078000000060004
:1010a000889fbe008a9fbe008c9fbe008e1f780066
:1010b0004400f800070f2000270288003400f800e1
:1010c000811f78000f07780007f02f000338e10038
:1010d00004003200270280004700b3002702880086
:1010e000a301880019002000804cdd0013002000bf
:1010f00002047800800678008904d100424edd00a9
:10110000010578000302e9000480080017000000d0
:101110008a0546004218dd000902e9000480080043
:1011200010000000000000004620c3003b025200f7
:10113000df35c100080440001381c200ab825200b9
:10114000264dc5003e85c400bb00cd00bb80cd0050
:101150003a00ca002a80ca000700c9000580c900f9
:10116000ba00cd00ba80cd000a054600020478001e
:101170008301d0008d06e900dfff3c008e07780078
:101180004f0078003400f9004400f9004f07780060
:101190004f06be004f05be004f04be000000060013
:1011a00003f0a200889fbe008a9fbe008c1f7800bb
:1011b00039010700400133006450e1004f00320064
:1011c0006420e1005200320003826c0007003b0003
:1011d0000905d0000306d000820f54000c065d0004
:1011e000020039000200320089017800030678000d
:1011f0008582550004003d000003fd008103fd00d1
:101200008502ea008b854200840f720002003b00d9
:1012100060001000e08018006011b8000005eb00cd
:101220007a28e1000a00390006007800c75ddd0079
:10123000f707b200878075002d00370082817100aa
:101240000a017800610560008180d1000080d30030
:101250008502e900f9ff3b0006044000878448004e
:1012600002003b0060041400e0841c000988a30015
:10127000070032008a81710082817100610164007f
:101280008904d1000884d3008b05e80017003700db
:101290000978a30013003a000b00e00013003400ab
:1012a0008b05e9000804440089844c000a4474005a
:1012b0000978a3000d003a000b00e000070034009d
:1012c0008b05e9000804440089844c0001003a00c1
:1012d0000b0020000978a300f7ff32000001eb00ab
:1012e00002003700828171000a017800af00070018
:1012f0000cf0a70001f0a000f80037006420e10026
:1013000002003a00838f6c00f80033000801be0031
:101310000200be00f10037000001eb004a000700a8
:10132000040032000200200003f8230001f0a600b0
:101330009cff0700000006000081eb00220137003f
:10134000889fbe008a9fbe008c1f7800d2000700d5
:10135000d900330003866c006450e1002e00320097
:101360006420e100330032006150e1002f003200c0
:101370006120e1003100320085855500eb07b000a7
:10138000090020000804200005003700080444007c
:1013900089844c000a0031000603430087834b0018
:1013a0000001530081815b00f8ff33000203be009f
:1013b0000800a0000804440089844c00f6ff3900ae
:1013c000c639dd00830173000100320013002000e4
:1013d0008904d1000884d3000998a30005003200d5
:1013e0000800a7000300a0008904d1000884d300ee
:1013f0008b05e8008904d1000884d3000001eb00cc
:101400000281d2006900070001f0a1000cf0a700e2
:1014100001f0a000b10037006420e100b300320009
:101420000801be000200be00f7ff37006120e100a6
:10143000ae0032006000b800f3ff3700000020006b
:1014400001f82700f0ff3700889fbe008a9fbe008a
:101450000003be007b0007008505780082815200f2
:10146000020020006220e10004003a00f307b1000e
:10147000040035007718e100040035000600be00c6
:10148000140037006000b8000f003700f50f20008f
:10149000faff2f008502d1000a85d3008301e900fd
:1014a000fcff3b008184620000046500890f74002a
:1014b000f2ff32008582ea000a85ea008184620038
:1014c000000465003900070007f0a70001f0a00044
:1014d0000081eb000200e0004f05be004f04be009b
:1014e000000006001400200022013700f4ff2f0046
:1014f000200137000001be00520007000470a70061
:1015000003f0a1006509b100160032000d0035009e
:101510006828e10006003500f0ff2f00f1ff2700ea
:101520000300e00013003b0001002800000005005c
:1015300000004000818048008502e900fcff3a007d
:1015400008003700f88f420002003c008000eb00ea
:10155000000005008100d1000080d3008502e80072
:10156000fcff3a000300e00002003b0060001000b6
:10157000e0801800000006004f89de00820178003c
:10158000170137000001eb00afff07000400320035
:101590000200200003f8230001f0a70000ff07006d
:1015a0000000060004002000f20037008100200047
:1015b000618055000b003d000b00200061fe2f00f4
:1015c0000100e1001d0034008281710061016400ae
:1015d0008904d1000884d3000000e800faff3a0033
:1015e00071002000610064000300700002006000d0
:1015f0000900320061044400e0844c000988a50021
:10160000050032008b05e8006808e10002003a009e
:101610008904d1000884d300f20f20000258e100b1
:1016200005003d00c75ddd00f907b2008980750047
:1016300008007800000006000bf827008b007800f7
:1016400000000500c70ade00f107b200f50fb20086
:1016500008003200e1cf4200020032000170a00019
:1016600024000500810f700001003200040805000d
:1016700044000500810f700002003a0014000500cc
:101680008502e9000000400081c04800fcff3b00eb
:101690000170a000240005000004be00e9ff07005f
:1016a0000003be000405be000200be00e5ff070007
:1016b000844f7500000006000200be006450e10087
:1016c000050036006420e100020036000968a3002e
:1016d00001003a000800be000160a0004f0678003b
:1016e0004f05be004f04be0000000600f0ff2f00b3
:1016f000f1ff2700f9ff3700889fbe008a9fbe00d8
:101700008c1f7800e4ff0700ebff330003866c00ba
:101710006450e100240032006420e1002700320020
:101720006150e100220032006120e100210032001e
:101730008b854200eb07b1000134b800003ab800d5
:101740000804420089844a00013ab8000030b80019
:101750008880400009014a00040033000000400076
:1017600081804800020149008b05e900c909dd00bc
:10177000830170000100320013002000c814de0055
:101780004814dd004709de001200b200c808de0080
:101790000884700085ff070001f0a1000cf0a7008d
:1017a00001f0a000cdff37006120e100cfff320043
:1017b0000801be000200be00f7ff37006150e100e3
:1017c000fcff3a00c9ff3700889fbe008a9fbe0019
:1017d0008c9fbe00820578000004be0099ff0700c0
:1017e0000800be006420e1000700390002003a0052
:1017f000f1ff2700f0ff2f000160a000120220007f
:1018000032428800550037006120e10003003a00b1
:101810000b00a70001f823005000370001f0a100e1
:1018200002002100936424002eff07000800be0080
:1018300004003500b2fd2000930c2400a70007002f
:101840000004be000005eb000b00a6004f0dde00fb
:1018500001f0a1000004be0032982f0023ea23000b
:10186000a5ff07000001eb0003f023000b00a70019
:1018700003f823004bfe07001eff07000000a7002f
:101880000a00a2003cff07000b00e000030032004a
:101890000200200003f0230041fe070001f0a20037
:1018a0000006be00020020009304240092ff0700ff
:1018b0000801be003bfe0700809fbe000c00be007a
:1018c00022a22a00d3a723008bff07004f01be00ee
:1018d00034fe07000004be0001f0a1000200200059
:1018e00003982300fffe07000800be001900350022
:1018f0000001be0080ff07000006be00b2c529003f
:10190000e36223007cff070022222b00f3942b00cc
:1019100024fe07000c01be0077ff0700e2732800d9
:1019200083c023001ffe07000c01be0072ff0700ea
:1019300042aa2a00a3e22b001afe07000c01be00f7
:101940006dff07000801be006bff07000801be0025
:1019500014fe07000a00a70001f0a2004f06be0017
:101960004f05be004f04be00000006000001eb0062
:1019700095ff3700889fbe008a9fbe00841f7800b5
:1019800045ff07004f00780011003300f0ff2f00e3
:10199000838f6c0006003b00040565000a00a70069
:1019a0000800370009f0a6001000200008003700ea
:1019b000820f5400838f5c00030039001000200068
:1019c00001003e000000200009f0a7000000ea002e
:1019d0004f05be004f04be000000e00000000600fe
:1019e000881f7800030478000300e00007003d0032
:1019f00060001000e080180060011900e08119000b
:101a000002003b0001f02d00030037000400070036
:101a100008f0a70001f0a0004f04780000000600c5
:101a2000889fbe008a9fbe00008270000402710081
:101a300004827100260032000004be000200be00d5
:101a40006011b8006b092000950220000182cf00d0
:101a50000a0039000541b1000082cf0007003900bb
:101a60000541b1000982cf00040039000541b100f1
:101a70000882cf00010039000541b1000542520043
:101a8000120032000a003b00828171006101640093
:101a90008100d1000080d3008984d3000884d30062
:101aa0008b05e8000442e800f7ff3a000700370022
:101ab0000804440089844c000000480081804800ec
:101ac0008b05e9000442e900f9ff3a00b7fe070080
:101ad0004f05be004f04be000000060004002000b9
:101ae00000003700889fbe008a9fbe008c1f7800d0
:101af0004f26dd00e8fe0700effe33006120e10025
:101b0000430032006250e10041003e003e003900d7
:101b10006420e1003c003200058255000f003b00cc
:101b20000402e80038003a00800f5300818f5b0008
:101b3000350034000800be0003f0a10001f0a6004b
:101b400003f0a0000cf0a70096fd0700e3fe3700ad
:101b50000603430087834b000c46460000055300f4
:101b600081855b00020033000a03be000c00a00068
:101b70000402e900f6ff3b008505780006024300f9
:101b800087824b0004003a006000b80009f0a7000b
:101b900001f0a000d1fe37000002520081825a00fd
:101ba0000704e000040033000603430087834b0072
:101bb0008b05e900faff3700090578000604be002e
:101bc0000203be006011b80078fe0700e00f52006b
:101bd000e08f5a000700350002003c000c08a3000b
:101be000040032000601be0003f0a0000cf0a700c4
:101bf0006cfd07000a85680001f0a1000af0a7004b
:101c000001f0a000b5fe37000800be00b3fe3700ab
:101c1000100220000cf0a60030428800b3fe37000e
:020000040000fa
:101c20000000fa0021e1a9002021a90020c1a9009b
:101c3000000980000040a1000050a10000098800b8
:101c40001821ef0000402000e00888009005800087
:101c50000000a0000010a1000020a1009005880055
:101c60008780a9009780a90021e1a80000198000c1
:101c70000080a0000090a0000019880000198000da
:101c80000050a1000060a1000070a00000198800b1
:101c90002043a8001019800000d0a10000e0a1009e
:101ca00000f0a000101988002143a8002203a8001a
:101cb000101980000080a1000090a1001019880078
:101cc00025e3a90090c0b30024e3b7002183a80056
:101cd000101980000020a1000030a1000040a100e8
:101ce0000050a100101988004119800000fe2f004b
:101cf000008060004019880028e3a9000080eb0004
:101d0000601988002c03a90085a0a90095a0a9004e
:101d100021e3a800c01c80000040a1000050a100e9
:101d2000c01c8800c01c80000000a1000010a000a2
:101d3000c01c880099a3a90000302000001d880065
:101d4000f0012000101d8800d0002000d01c880069
:101d500000782000e01c8800007c2000f01c880037
:101d60008700a9009700a80099e3a800001c800044
:101d70000040a1000050a100001c8800001c800051
:101d80000000a1000010a000001c880081a3a80092
:101d9000603f2000401c8800f0012000501c88009b
:101da000e0042000101c8800007c2000201c88001b
:101db00000782000301c88008480a9009480a8004e
:101dc00081e3a900601c80000040a1000050a10038
:101dd000601c8800601c80000000a1000010a000b2
:101de000601c88008da3a800803f2000a01c8800f4
:101df000f0012000b01c8800f0042000701c880056
:101e000000742000801c880000702000901c880056
:101e100085c0a90095c0a9008de3a800f2e3a80041
:101e2000f3e3a800f243a800f343a800f183a9005c
:101e3000811f800000f82f00008060003000b30098
:101e4000801f8800f103a800f1e3a800f423ef004d
:101e50002135800000fe2f00008060004001b300ab
:101e60002035880091368000f00f2e0080806000c1
:101e700000302000010070009036880021e2a900a7
:101e80002002a900001180000010a1000020a10084
:101e90000011880020a2a9002062a90030102000b3
:101ea00040118800101180000060a1000070a100a6
:101eb000101188009560a9008560a9009580a80090
:101ec0008580a90021e2a8002342a8000001eb00c0
:101ed0000180200050002000b2fa07000080fa00c4
:101ee000000006000000fa00e0012000303a8800ff
:101ef000203a80000060a1000070a100203a880014
:101f0000213a800000fe2f0000806000203a880007
:101f10003200200080072000a10920003374200037
:101f2000804978008149780082497800103a800021
:101f3000000178000200a00060042000710520006c
:101f40002374200080497800814978008249780014
:101f500000000000113a800000002700808060002f
:101f600000002300808f5000faff3a0000000000bc
:101f7000113a800000022000008060000000e000b4
:101f8000fbff3200503a80000080a0000090a100ca
:101f900000a0a000503a88000080fa00000006006f
:020000040000fa
:101fa0004808000030000000000000004008000069
:101fb0000400000000000000c047000040000000d6
:101fc000000000008047000040000000000000000a
:101fd00040470000400000000000000000470000f3
:101fe0004000000000000000440800000200000063
:101ff0000200000001000000004600008000000018
:10200000000000008046000080000000000000008a
:10201000000800004000000000000000460800002a
:0c202000020000000000000026108000fc
:020000040000fa
:10202c000000fa00acff0700d122a900d102a900e0
:10203c00d0e2a900d0c2a900f6fe0700ffff3700ce
:020000040000fa
:04204c000000000090
:020000040000fa
:0200000401f009
:04000000ffff0000fe
:020000040000fa
:0200000401f009
:04000400ffff0000fa
:020000040000fa
:0200000401f009
:04000800ffff0000f6
:020000040000fa
:0200000401f009
:04000c0000000000f0
:020000040000fa
:0200000401f009
:040010006500000087
:020000040000fa
:0200000401f009
:040014005f00000089
:020000040000fa
:0200000401f009
:04001800f7000000ed
:020000040000fa
:0200000401f009
:04001c00dfff000002
:00000001FF
