:020000040000fa
:080000000002040000000000f2
:020000040000fa
:04000800bc03000035
:020000040000fa
:04000c00800300006d
:020000040000fa
:040010008603000063
:020000040000fa
:040014008c03000059
:020000040000fa
:04001800920300004f
:020000040000fa
:04001c009803000045
:020000040000fa
:04002000bc0300001d
:020000040000fa
:04002400bc03000019
:020000040000fa
:04002800bc03000015
:020000040000fa
:04002c00bc03000011
:020000040000fa
:04003000bc0300000d
:020000040000fa
:04003400bc03000009
:020000040000fa
:040038007803000049
:020000040000fa
:04003c00bc03000001
:020000040000fa
:04004000bc030000fd
:020000040000fa
:04004400bc030000f9
:020000040000fa
:04004800bc030000f5
:020000040000fa
:04004c00bc030000f1
:020000040000fa
:04005000bc030000ed
:020000040000fa
:04005400bc030000e9
:020000040000fa
:04005800bc030000e5
:020000040000fa
:04005c00bc030000e1
:020000040000fa
:040060001603000083
:020000040000fa
:04006400bc030000d9
:020000040000fa
:04006800bc030000d5
:020000040000fa
:04006c00bc030000d1
:020000040000fa
:04007000bc030000cd
:020000040000fa
:04007400bc030000c9
:020000040000fa
:04007800bc030000c5
:020000040000fa
:04007c00bc030000c1
:020000040000fa
:04008000bc030000bd
:020000040000fa
:04008400bc030000b9
:020000040000fa
:04008800d2020000a0
:020000040000fa
:04008c00bc030000b1
:020000040000fa
:04009000bc030000ad
:020000040000fa
:04009400bc030000a9
:020000040000fa
:04009800a8020000ba
:020000040000fa
:04009c00bc030000a1
:020000040000fa
:0400a000bc0300009d
:020000040000fa
:0400a400bc03000099
:020000040000fa
:0400a800bc03000095
:020000040000fa
:0400ac00bc03000091
:020000040000fa
:0400b000bc0300008d
:020000040000fa
:0400b400bc03000089
:020000040000fa
:0400b800bc03000085
:020000040000fa
:0400bc00bc03000081
:020000040000fa
:0400c000bc0300007d
:020000040000fa
:0400c400bc03000079
:020000040000fa
:0400c800bc03000075
:020000040000fa
:0400cc00bc03000071
:020000040000fa
:0400d000bc0300006d
:020000040000fa
:0400d400bc03000069
:020000040000fa
:0400d800bc03000065
:020000040000fa
:0400dc00bc03000061
:020000040000fa
:0400e000bc0300005d
:020000040000fa
:0400e400bc03000059
:020000040000fa
:0400e800bc03000055
:020000040000fa
:0400ec00bc03000051
:020000040000fa
:0400f000bc0300004d
:020000040000fa
:0400f400bc03000049
:020000040000fa
:0400f800bc03000045
:020000040000fa
:0400fc00bc03000041
:020000040000fa
:04010000bc0300003c
:020000040000fa
:04010400bc03000038
:020000040000fa
:04010800bc03000034
:020000040000fa
:04010c00bc03000030
:020000040000fa
:04011000bc0300002c
:020000040000fa
:04011400bc03000028
:020000040000fa
:04011800bc03000024
:020000040000fa
:04011c00bc03000020
:020000040000fa
:04012000bc0300001c
:020000040000fa
:04012400bc03000018
:020000040000fa
:04012800bc03000014
:020000040000fa
:04012c00bc03000010
:020000040000fa
:04013000bc0300000c
:020000040000fa
:04013400bc03000008
:020000040000fa
:04013800bc03000004
:020000040000fa
:04013c00bc03000000
:020000040000fa
:04014000bc030000fc
:020000040000fa
:04014400bc030000f8
:020000040000fa
:04014800bc030000f4
:020000040000fa
:04014c00bc030000f0
:020000040000fa
:04015000bc030000ec
:020000040000fa
:04015400bc030000e8
:020000040000fa
:04015800bc030000e4
:020000040000fa
:04015c00bc030000e0
:020000040000fa
:04016000bc030000dc
:020000040000fa
:04016400bc030000d8
:020000040000fa
:04020800bc03000033
:020000040000fa
:04020c009e0300004d
:020000040000fa
:04021000a403000043
:020000040000fa
:04021400aa03000039
:020000040000fa
:04021800b00300002f
:020000040000fa
:04021c00b603000025
:020000040000fa
:04022000bc0300001b
:020000040000fa
:04022400bc03000017
:020000040000fa
:04022800bc03000013
:020000040000fa
:04022c00bc0300000f
:020000040000fa
:04023000bc0300000b
:020000040000fa
:04023400bc03000007
:020000040000fa
:04023800bc03000003
:020000040000fa
:04023c00bc030000ff
:020000040000fa
:04024000bc030000fb
:020000040000fa
:04024400bc030000f7
:020000040000fa
:04024800bc030000f3
:020000040000fa
:04024c00bc030000ef
:020000040000fa
:04025000bc030000eb
:020000040000fa
:04025400bc030000e7
:020000040000fa
:04025800bc030000e3
:020000040000fa
:04025c00bc030000df
:020000040000fa
:04026000bc030000db
:020000040000fa
:04026400bc030000d7
:020000040000fa
:04026800bc030000d3
:020000040000fa
:04026c00bc030000cf
:020000040000fa
:04027000bc030000cb
:020000040000fa
:04027400bc030000c7
:020000040000fa
:04027800bc030000c3
:020000040000fa
:04027c00bc030000bf
:020000040000fa
:04028000bc030000bb
:020000040000fa
:04028400bc030000b7
:020000040000fa
:04028800bc030000b3
:020000040000fa
:04028c00bc030000af
:020000040000fa
:04029000bc030000ab
:020000040000fa
:04029400bc030000a7
:020000040000fa
:04029800bc030000a3
:020000040000fa
:04029c00bc0300009f
:020000040000fa
:0402a000bc0300009b
:020000040000fa
:0402a400bc03000097
:020000040000fa
:0402a800bc03000093
:020000040000fa
:0402ac00bc0300008f
:020000040000fa
:0402b000bc0300008b
:020000040000fa
:0402b400bc03000087
:020000040000fa
:0402b800bc03000083
:020000040000fa
:0402bc00bc0300007f
:020000040000fa
:0402c000bc0300007b
:020000040000fa
:0402c400bc03000077
:020000040000fa
:0402c800bc03000073
:020000040000fa
:0402cc00bc0300006f
:020000040000fa
:0402d000bc0300006b
:020000040000fa
:0402d400bc03000067
:020000040000fa
:0402d800bc03000063
:020000040000fa
:0402dc00bc0300005f
:020000040000fa
:0402e000bc0300005b
:020000040000fa
:0402e400bc03000057
:020000040000fa
:0402e800bc03000053
:020000040000fa
:0402ec00bc0300004f
:020000040000fa
:0402f000bc0300004b
:020000040000fa
:0402f400bc03000047
:020000040000fa
:0402f800bc03000043
:020000040000fa
:0402fc00bc0300003f
:020000040000fa
:04030000bc0300003a
:020000040000fa
:04030400bc03000036
:020000040000fa
:04030800bc03000032
:020000040000fa
:04030c00bc0300002e
:020000040000fa
:04031000bc0300002a
:020000040000fa
:04031400bc03000026
:020000040000fa
:04031800bc03000022
:020000040000fa
:04031c00bc0300001e
:020000040000fa
:04032000bc0300001a
:020000040000fa
:04032400bc03000016
:020000040000fa
:04032800bc03000012
:020000040000fa
:04032c00bc0300000e
:020000040000fa
:04033000bc0300000a
:020000040000fa
:04033400bc03000006
:020000040000fa
:04033800bc03000002
:020000040000fa
:04033c00bc030000fe
:020000040000fa
:04034000bc030000fa
:020000040000fa
:04034400bc030000f6
:020000040000fa
:04034800bc030000f2
:020000040000fa
:04034c00bc030000ee
:020000040000fa
:04035000bc030000ea
:020000040000fa
:04035400bc030000e6
:020000040000fa
:04035800bc030000e2
:020000040000fa
:04035c00bc030000de
:020000040000fa
:04036000bc030000da
:020000040000fa
:04036400bc030000d6
:020000040000fa
:100400000fc120000e7f23000e01880000000000b5
:10041000000020000000e000020032000001200087
:10042000200288000c000700a044200001002000ea
:1004300011000700000020000000e0000200320070
:1004400000000200000000009a0802000000000006
:100450000040da000000fe004440a9000000200037
:100460000000e0000300320000002000a00188002e
:100470004440a80000000600910188008000780038
:100480000000eb0015003700e280400032a0b4000d
:100490009101ba00e280400032a0b4009102ba009b
:1004a000e280400032a0b4000002eb00472bde00e7
:1004b000f507b200602ce10004003a000059eb009f
:1004c0008301e900fdff3e00040037006128e100e0
:1004d000010032000082eb000b00070011c3ba00dc
:1004e0001101ba000604e00003003a000200e00037
:1004f000e5ff3a0000000600f607b200960188000a
:1005000082007800f5ff37003159ba008301e90015
:100510000c0032002159ba008301e90008003200c2
:100520000400e00003003a00e280400032a0b40082
:10053000f5ff370011d9ba008301e900faff3a004c
:100540008100e800e180400032a0b4000000060015
:10055000809fbe00821f78000000fa008780a900fb
:10056000a01680004800de006140600000c0ea0084
:10057000614060000080fb00610060004800dd0019
:10058000a2168000f1ef2f008100610001007000d1
:10059000a01688000080fa004f0178004f00be00ce
:1005a000004006003600f800809fbe00829fbe001b
:1005b000849fbe00869fbe000000fa00d502a800fe
:1005c0008700a900101f8000640060000000e000a8
:1005d00008003a00d4e2a8000078240003c12300f8
:1005e00000017800e1c12300000220006b00070039
:1005f00007003700d4c2a800007c240003c12300f8
:1006000000017800e1c12300000220006300070020
:100610000080fa004f03be004f02be004f01be0033
:100620004f00be003600f90000400600809fbe006b
:10063000821f78000200fa0085c0a900101f800008
:10064000620060000000e000130032000000eb00d8
:10065000000f78000c0037001e007800800040007a
:10066000e0c1230000804000100078008000780086
:100670001e007800000140000074240000004100ca
:10068000010878001e0fe8001e007800ff0f5000e0
:10069000f1ff3400120037000000eb00000f78007b
:1006a0000c0037001e00780080004000e0c12300ed
:1006b0000080400010007800800078001e00780064
:1006c0000001400000702400000041000108780093
:1006d0001e0fe8001e007800ff0f5000f1ff3400ed
:1006e0000080fa004f0178004f00be000040060075
:1006f0000000fa008480a9000080fa000040060093
:100700000000fa008020a900ffff37000000fa0077
:100710008060a900ffff37000000fa008040a900b8
:10072000ffff37000000fa008080a900ffff3700bc
:100730000000fa0080a0a900ffff37000000fa00c7
:100740008020a900ffff37000000fa008060a900a8
:10075000ffff37000000fa008040a900ffff3700cc
:100760000000fa008080a900ffff37000000fa00b7
:1007700080a0a900ffff37000000fa00ffff37004c
:10078000800090000101e900c000900000002000fe
:10079000028009008018780000000600889fbe00d3
:1007a0008a9fbe008c9fbe008e1f78004400f80018
:1007b000080f2000280288003400f8004600f800e6
:1007c0004800f8004a00f8004c00f8004e00f8001d
:1007d0008a0a2c003a0288002304900058028800fc
:1007e0001304900048028800530590007a028800a4
:1007f000430590006a028800811f78000f07780087
:100800003305900007f02f000a38e10004003200a1
:10081000270280004700b30027028800aa01880051
:100820006305900003029000630252000000e9009b
:100830000080080007000000320d78000000000072
:100840004618c300048009004618c4004218c400ba
:100850001201c4003100cd00ea0198008e07780033
:100860004f0078004e00f9004c00f9004a00f900f2
:100870004800f9004600f9003400f9004400f9008e
:100880004f0778004f06be004f05be004f04be0064
:04089000000006005e
:020000040000fa
:10089400103c00004e0000000000000000080000b2
:1008a400100400000200000000000000000000002e
:1008b4000000000000000000000000000000000034
:1008c4000000000000000000000000000000000024
:1008d4000000000000000000000000000000000014
:1008e40000000000000000000000000000ffff0006
:1008f400ffffff00ffffff000000000000010000f9
:1009040001000100000100000100000000ffff00e1
:10091400fefffe00fffeff00ffff000000010000dd
:1009240002000300000300000200010000ffff00ba
:10093400fefffc00fffcff00fcfffd00ff000000c9
:10094400020004000005000006000400000200008c
:10095400fffffc00fffaff00f8fff900fffcff00b7
:10096400ffff03000007000009000a000008000060
:100974000400fe00fff9ff00f5fff400fff5ff009f
:10098400f9ffff00ff0500000b000f00000f00003f
:100994000c00060000feff00f6fff000ffedff0074
:1009a400effff500fffeff00080011000016000035
:1009b4001700120000090000fdfff100ffe8ff002e
:1009c400e4ffe600ffefff00fcff0b00001800004f
:1009d40020002100001b00000d00fc00ffebff00c5
:1009e400ddffd700ffdbff00e7fffa00ff0f000089
:1009f40022002e00003000002600130000fbff0040
:100a0400e2ffcf00ffc7ff00cbffdd00fff7ff00d1
:100a140015002f000040000043003600001b0000ba
:100a2400f9ffd700ffbdff00b1ffb700ffcfff0004
:100a3400f3ff1c000040000057005b00004a000068
:100a44002600f800ffc9ff00a5ff9500ff9dff00e9
:100a5400bcffed00ff25000056007600007c00007e
:100a64006500350000f7ff00b8ff8700ff70ff0046
:100a74007affa300ffe5ff0030007300009e000032
:100a8400a700880000490000f5ffa000ff5eff00fa
:100a94003eff4a00ff82ff00d9ff3e00009900009c
:100aa400d400e10000b900006400f400ff81ff00fd
:100ab40026fffa00fe09ff0053ffc900ff520000a1
:100ac400cf0021000134010000018d0000f3ff007c
:100ad40053ffd400fe94fe00a7fe0b00ffafff00ff
:100ae4006f00200001970100b6016f0001ce0000e5
:100af400f2ff0b00ff50fe00eefd0300fe92fe002d
:100b040082ffa00000ae01006a02a100023d0200c3
:100b14004801f100ff7ffe0047fd9a00fcacfc0099
:100b24008dfd1c00ff0f0100fb026a0004f50400a8
:100b34005d049d0002f0ff00d3fced00f9f7f7001f
:100b44009cf75400f949fd004d03d4000a0a130030
:100b5400ed1a7a0021ce250052a7d100258021006c
:100b6400f51a110013d90a004f034800fd4ff9008c
:100b740095f7f000f7e7f900cffcf000ffa00200c2
:100b84006304fc000471040000031100011bff0056
:100b940088fda500fc92fc0041fd7b00fef1ff00f6
:100ba4004c01430002a802007002b30001a200003d
:100bb40080ff8e00fefdfd00e7fd4a00fe08ff00f9
:100bc400f1ffd10000750100bd019e000124010068
:100bd4007100ae00ff07ff00a1fe8e00fecffe00f5
:100be40050fff200ff90000005013b0001270100c7
:100bf400d300540000c8ff004fff0300fff3fe00c2
:100c040021ff7e00fff3ff006700be0000e7000045
:100c1400da009d0000400000d8ff7e00ff45ff0081
:100c240039ff5900ff9dff00f5ff4b00008c0000c9
:100c3400ac00a300007600003100e400ffa0ff0038
:100c440075ff6b00ff82ff00b5fff600ff37000061
:100c540068008000007a00005900260000ecff00c4
:100c6400baff9900ff91ff00a2ffc700fff8ff0041
:100c740028004d00005f00005b004300001d0000e1
:100c8400f2ffcc00ffb4ff00aeffba00ffd5ff00b7
:100c9400f9ff1d0000380000460043000032000048
:100ca4001600f700ffdbff00c9ffc400ffcdff0003
:100cb400e1fffa00ff1400002800320000310000b8
:100cc4002400100000faff00e6ffd900ffd5ff0062
:100cd400dbffe900fffcff000e001c000024000005
:100ce40023001a00000c0000fcffee00ffe5ff00eb
:100cf400e2ffe600fff0ff00fdff0a000013000022
:100d040019001800001200000800fd00fff4ff00a5
:100d1400edffec00ffeeff00f5fffe00ff06000014
:100d24000d001000001000000c00060000feff0083
:100d3400f8fff400fff3ff00f4fff900fffeff00eb
:100d440004000800000a00000a0008000004000073
:100d5400fffffb00fff8ff00f8fff900fffbff00b7
:100d6400ffff020000050000060006000005000069
:100d74000200000000fdff00fcfffb00fffcff0081
:100d8400fdffff00ff01000003000400000300005a
:100d94000300010000000000fefffe00fffdff0055
:100da400feffff00ff000000010001000002000040
:100db40002000100000100000000ff00ffffff002f
:100dc400ffffff00ffffff00000000000001000024
:100dd400010001000000000000000000000000000d
:100de40000000000000000000000000000000000ff
:100df40000000000000000000000000000000000ef
:100e040000000000000000000000000000000000de
:100e14000000000000380000100400000000000082
:100e2400c0470000400000000000000080470000b0
:100e340040000000000000004047000040000000a7
:100e44000000000000470000400000000000000017
:040e5400aa08800068
:020000040000fa
:100e58000000fa0021e1a9002021a90020c1a90071
:100e6800000980000040a1000050a100000988008e
:100e78001821ef0000402000e0088800900580005d
:100e88000000a0000010a1000020a100900588002b
:100e98008780a9009780a90021e1a8000019800097
:100ea8000080a0000090a0000019880000198000b0
:100eb8000050a1000060a1000070a0000019880087
:100ec8002043a8001019800000d0a10000e0a10074
:100ed80000f0a000101988002143a8002203a800f0
:100ee800101980000080a1000090a100101988004e
:100ef80025e3a90090c0b30024e3b7002183a8002c
:100f0800101980000020a1000030a1000040a100bd
:100f18000050a100101988004119800000fe2f0020
:100f2800008060004019880028e3a9000080eb00d9
:100f3800601988002c03a90085a0a90095a0a90024
:100f480021e3a800c01c80000040a1000050a100bf
:100f5800c01c8800c01c80000000a1000010a00078
:100f6800c01c880099a3a90000302000001d88003b
:100f7800f0012000101d8800d0002000d01c88003f
:100f880000782000e01c8800007c2000f01c88000d
:100f98008700a9009700a80099e3a800601c8000ba
:100fa8000040a1000050a100601c8800601c800067
:100fb8000000a1000010a000601c88008da3a800fc
:100fc800803f2000a01c8800f0012000b01c880091
:100fd800f0042000701c880000742000801c880029
:100fe80000702000901c880085c0a90095c0a8004a
:100ff8008de3a800f2e3a800f3e3a800f243a800f9
:10100800f343a800f183a900811f800000f82f0096
:10101800008060003000b300801f8800f103a80042
:10102800f1e3a800f423ef00e01e200080e089002f
:101038000080200090e08900a0bd2000a0e0890089
:1010480000f02f00b0e0890000802300c0e0890094
:10105800a0bd2300d0e0890000802300e0e08900e3
:1010680000c12300c4fd07000080fa00000006004c
:101078000000fa00e0012000303a8800203a8000a1
:101088000060a1000070a100203a8800213a800089
:1010980000fe2f0000806000203a88003200200007
:1010a80080072000a10920003374200080497800bf
:1010b8008149780082497800103a80000001780060
:1010c8000200a000600420007105200023742000a5
:1010d8008049780081497800824978000000000042
:1010e800113a800000002700808060000000230083
:1010f800808f5000faff3a0000000000113a80008b
:1011080000022000008060000000e000fbff3200c9
:10111800503a80000080a0000090a10000a0a0002c
:10112800503a88000080fa00000006000000fa002b
:10113800cfff0700d122a900d102a900d0e2a9005f
:0c114800d0c2a90042ff0700ffff3700e3
:020000040000fa
:041154000000000097
:020000040000fa
:0200000401f009
:04000000ffff0000fe
:020000040000fa
:0200000401f009
:04000400ffff0000fa
:020000040000fa
:0200000401f009
:04000800ffff0000f6
:020000040000fa
:0200000401f009
:04000c0000000000f0
:020000040000fa
:0200000401f009
:040010006500000087
:020000040000fa
:0200000401f009
:040014005f00000089
:020000040000fa
:0200000401f009
:04001800f7000000ed
:020000040000fa
:0200000401f009
:04001c00dfff000002
:00000001FF
