:020000040000fa
:080000000002040000000000f2
:020000040000fa
:040008003c030000b5
:020000040000fa
:04000c0000030000ed
:020000040000fa
:0400100006030000e3
:020000040000fa
:040014000c030000d9
:020000040000fa
:0400180012030000cf
:020000040000fa
:04001c0018030000c5
:020000040000fa
:040020003c0300009d
:020000040000fa
:040024003c03000099
:020000040000fa
:040028003c03000095
:020000040000fa
:04002c003c03000091
:020000040000fa
:040030003c0300008d
:020000040000fa
:040034003c03000089
:020000040000fa
:04003800a80200001a
:020000040000fa
:04003c003c03000081
:020000040000fa
:040040003c0300007d
:020000040000fa
:040044003c03000079
:020000040000fa
:040048003c03000075
:020000040000fa
:04004c003c03000071
:020000040000fa
:040050003c0300006d
:020000040000fa
:040054003c03000069
:020000040000fa
:040058003c03000065
:020000040000fa
:04005c003c03000061
:020000040000fa
:04006000b0020000ea
:020000040000fa
:040064003c03000059
:020000040000fa
:040068003c03000055
:020000040000fa
:04006c003c03000051
:020000040000fa
:040070003c0300004d
:020000040000fa
:040074003c03000049
:020000040000fa
:040078003c03000045
:020000040000fa
:04007c003c03000041
:020000040000fa
:040080003c0300003d
:020000040000fa
:040084003c03000039
:020000040000fa
:04008800b8020000ba
:020000040000fa
:04008c003c03000031
:020000040000fa
:040090003c0300002d
:020000040000fa
:040094003c03000029
:020000040000fa
:040098003c03000025
:020000040000fa
:04009c003c03000021
:020000040000fa
:0400a0003c0300001d
:020000040000fa
:0400a4003c03000019
:020000040000fa
:0400a8003c03000015
:020000040000fa
:0400ac003c03000011
:020000040000fa
:0400b0003c0300000d
:020000040000fa
:0400b4003c03000009
:020000040000fa
:0400b8003c03000005
:020000040000fa
:0400bc003c03000001
:020000040000fa
:0400c0003c030000fd
:020000040000fa
:0400c4003c030000f9
:020000040000fa
:0400c8003c030000f5
:020000040000fa
:0400cc003c030000f1
:020000040000fa
:0400d0003c030000ed
:020000040000fa
:0400d4003c030000e9
:020000040000fa
:0400d8003c030000e5
:020000040000fa
:0400dc003c030000e1
:020000040000fa
:0400e0003c030000dd
:020000040000fa
:0400e4003c030000d9
:020000040000fa
:0400e8003c030000d5
:020000040000fa
:0400ec003c030000d1
:020000040000fa
:0400f0003c030000cd
:020000040000fa
:0400f4003c030000c9
:020000040000fa
:0400f8003c030000c5
:020000040000fa
:0400fc003c030000c1
:020000040000fa
:040100003c030000bc
:020000040000fa
:040104003c030000b8
:020000040000fa
:040108003c030000b4
:020000040000fa
:04010c003c030000b0
:020000040000fa
:040110003c030000ac
:020000040000fa
:040114003c030000a8
:020000040000fa
:040118003c030000a4
:020000040000fa
:04011c003c030000a0
:020000040000fa
:040120003c0300009c
:020000040000fa
:040124003c03000098
:020000040000fa
:040128003c03000094
:020000040000fa
:04012c003c03000090
:020000040000fa
:040130003c0300008c
:020000040000fa
:040134003c03000088
:020000040000fa
:040138003c03000084
:020000040000fa
:04013c003c03000080
:020000040000fa
:040140003c0300007c
:020000040000fa
:040144003c03000078
:020000040000fa
:040148003c03000074
:020000040000fa
:04014c003c03000070
:020000040000fa
:040150003c0300006c
:020000040000fa
:040154003c03000068
:020000040000fa
:040158003c03000064
:020000040000fa
:04015c003c03000060
:020000040000fa
:040160003c0300005c
:020000040000fa
:040164003c03000058
:020000040000fa
:040208003c030000b3
:020000040000fa
:04020c001e030000cd
:020000040000fa
:0402100024030000c3
:020000040000fa
:040214002a030000b9
:020000040000fa
:0402180030030000af
:020000040000fa
:04021c0036030000a5
:020000040000fa
:040220003c0300009b
:020000040000fa
:040224003c03000097
:020000040000fa
:040228003c03000093
:020000040000fa
:04022c003c0300008f
:020000040000fa
:040230003c0300008b
:020000040000fa
:040234003c03000087
:020000040000fa
:040238003c03000083
:020000040000fa
:04023c003c0300007f
:020000040000fa
:040240003c0300007b
:020000040000fa
:040244003c03000077
:020000040000fa
:040248003c03000073
:020000040000fa
:04024c003c0300006f
:020000040000fa
:040250003c0300006b
:020000040000fa
:040254003c03000067
:020000040000fa
:040258003c03000063
:020000040000fa
:04025c003c0300005f
:020000040000fa
:040260003c0300005b
:020000040000fa
:040264003c03000057
:020000040000fa
:040268003c03000053
:020000040000fa
:04026c003c0300004f
:020000040000fa
:040270003c0300004b
:020000040000fa
:040274003c03000047
:020000040000fa
:040278003c03000043
:020000040000fa
:04027c003c0300003f
:020000040000fa
:040280003c0300003b
:020000040000fa
:040284003c03000037
:020000040000fa
:040288003c03000033
:020000040000fa
:04028c003c0300002f
:020000040000fa
:040290003c0300002b
:020000040000fa
:040294003c03000027
:020000040000fa
:040298003c03000023
:020000040000fa
:04029c003c0300001f
:020000040000fa
:0402a0003c0300001b
:020000040000fa
:0402a4003c03000017
:020000040000fa
:0402a8003c03000013
:020000040000fa
:0402ac003c0300000f
:020000040000fa
:0402b0003c0300000b
:020000040000fa
:0402b4003c03000007
:020000040000fa
:0402b8003c03000003
:020000040000fa
:0402bc003c030000ff
:020000040000fa
:0402c0003c030000fb
:020000040000fa
:0402c4003c030000f7
:020000040000fa
:0402c8003c030000f3
:020000040000fa
:0402cc003c030000ef
:020000040000fa
:0402d0003c030000eb
:020000040000fa
:0402d4003c030000e7
:020000040000fa
:0402d8003c030000e3
:020000040000fa
:0402dc003c030000df
:020000040000fa
:0402e0003c030000db
:020000040000fa
:0402e4003c030000d7
:020000040000fa
:0402e8003c030000d3
:020000040000fa
:0402ec003c030000cf
:020000040000fa
:0402f0003c030000cb
:020000040000fa
:0402f4003c030000c7
:020000040000fa
:0402f8003c030000c3
:020000040000fa
:0402fc003c030000bf
:020000040000fa
:040300003c030000ba
:020000040000fa
:040304003c030000b6
:020000040000fa
:040308003c030000b2
:020000040000fa
:04030c003c030000ae
:020000040000fa
:040310003c030000aa
:020000040000fa
:040314003c030000a6
:020000040000fa
:040318003c030000a2
:020000040000fa
:04031c003c0300009e
:020000040000fa
:040320003c0300009a
:020000040000fa
:040324003c03000096
:020000040000fa
:040328003c03000092
:020000040000fa
:04032c003c0300008e
:020000040000fa
:040330003c0300008a
:020000040000fa
:040334003c03000086
:020000040000fa
:040338003c03000082
:020000040000fa
:04033c003c0300007e
:020000040000fa
:040340003c0300007a
:020000040000fa
:040344003c03000076
:020000040000fa
:040348003c03000072
:020000040000fa
:04034c003c0300006e
:020000040000fa
:040350003c0300006a
:020000040000fa
:040354003c03000066
:020000040000fa
:040358003c03000062
:020000040000fa
:04035c003c0300005e
:020000040000fa
:040360003c0300005a
:020000040000fa
:040364003c03000056
:020000040000fa
:100400008fb820000ebf23000e01880000000000fe
:10041000000020000000e000020032000001200087
:10042000200288000c000700a03c200001002000f2
:1004300011000700000020000000e0000200320070
:100440000000020000000000d007020000000000d1
:100450000040da000000fe004440a9000000200037
:100460000000e0000300320000002000a00188002e
:100470004440a80000000600910188008000780038
:100480000000eb0015003700e280400032a0b4000d
:100490009101ba00e280400032a0b4009102ba009b
:1004a000e280400032a0b4000002eb00472bde00e7
:1004b000f507b200602ce10004003a000059eb009f
:1004c0008301e900fdff3e00040037006128e100e0
:1004d000010032000082eb000b00070011c3ba00dc
:1004e0001101ba000604e00003003a000200e00037
:1004f000e5ff3a0000000600f607b200960188000a
:1005000082007800f5ff37003159ba008301e90015
:100510000c0032002159ba008301e90008003200c2
:100520000400e00003003a00e280400032a0b40082
:10053000f5ff370011d9ba008301e900faff3a004c
:100540008100e800e180400032a0b4000000060015
:100550000000fa008480a9000080fa000040060034
:100560000000fa0085c0a9000080fa0000400600e3
:100570003600f800809fbe00829fbe00849fbe00b0
:10058000869fbe000000fa00101f8000640060001b
:100590000000e00008003200017c2400007024000c
:1005a00063f8230001017800800078000002200039
:1005b0003a00070007003700017824000074240087
:1005c00063f8230001017800800078000002200019
:1005d00032000700305c80000000a200305c880020
:1005e0008700a9000080fa004f03be004f02be0042
:1005f0004f01be004f00be003600f900004006006b
:100600000000fa008020a900ffff37000000fa0078
:100610008060a900ffff37000000fa008040a900b9
:10062000ffff37000000fa008080a900ffff3700bd
:100630000000fa0080a0a900ffff37000000fa00c8
:100640008020a900ffff37000000fa008060a900a9
:10065000ffff37000000fa008040a900ffff3700cd
:100660000000fa008080a900ffff37000000fa00b8
:1006700080a0a900ffff37000000fa00ffff37004d
:10068000800090000101e900c000900000002000ff
:10069000028009008018780000000600889fbe00d4
:1006a0008a9fbe008c9fbe008e1f78004400f80019
:1006b000080f2000280288003400f8004600f800e7
:1006c0004800f8004a00f8004c00f8004e00f8001e
:1006d0008a0a2c003a0288002304900058028800fd
:1006e0001304900048028800530590007a028800a5
:1006f000430590006a028800811f78000f07780088
:100700003305900007f02f000a38e10004003200a2
:10071000270280004700b30027028800aa01880052
:100720006305900003029000630252000000e9009c
:100730000080080007000000320d78000000000073
:100740004618c300048009004618c4004218c400bb
:100750001201c4003100cd00ea0198008e07780034
:100760004f0078004e00f9004c00f9004a00f900f3
:100770004800f9004600f9003400f9004400f9008f
:100780004f0778004f06be004f05be004f04be0065
:04079000000006005f
:020000040000fa
:10079400863f00000e00000000000000860b0000f1
:1007a4000200000000000000c047000040000000fc
:1007b400000000008047000040000000000000002e
:1007c4004047000040000000000000000047000017
:1007d4004000000000000000000800008603000044
:1007e4000200000000000000000000000000000003
:1007f40000000000000000000000000000000000f5
:1008040000000000000000000000000000000000e4
:100814000000000000000000000000000000ff00d5
:10082400ffffff00ffffff00ff00000000000100ca
:100834000002000002000200000100000000ff00ae
:10084400fffeff00fdfffd00fffeff00ffff0100b4
:100854000002000004000400000300000200000085
:1008640000feff00fcfffb00fffbff00fcffff009e
:10087400ff0100000400060000060000060003005b
:1008840000000000fdfffa00fff8ff00f9fffb0085
:10089400fffeff000200050000080000080007003a
:1008a400000400000000fc00fff9ff00f8fff8005e
:1008b400fffbff00feff0200000500000700070029
:1008c400000600000300000000fdff00fcfffb0029
:1008d400fffcff00feffff00ff000000010001001d
:1008e40000000000ffffff00ff0000000200040002
:1008f400000700000700060000030000fdfff700ea
:10090400fff2ff00effff000fff6ff00ffff0b0018
:10091400001600001d001e00001800000a00f80068
:10092400ffe5ff00d7ffd100ffd5ff00e5fffe0084
:10093400ff1a000032004200004300003400160099
:1009440000f0ff00cbffae00ffa3ff00adffcc0023
:10095400fffaff002e005b000076000077005b00ca
:1009640000280000e7ffa700ff78ff0066ff77007c
:10097400ffaaff00f5ff4800008e0000b800b80091
:10098400008d00003e00dc00ff7dff0037ff1d00ee
:10099400ff37ff0082ffee00ff640000c800020082
:1009a40001030100c600590000d1ff004ffff10010
:1009b400fecefe00f1fe5500ffe5ff0080000400be
:1009c400014f01004f01010001740000c8ff240021
:1009d400ffadfe0082feae00fe2aff00dbff9900a1
:1009e4000039010094019400013601008f00c20017
:1009f400ff00ff0075fe4200fe75fe0005ffd100fa
:100a0400ffab00006101c90001c901005f01a4003e
:100a140000c0ff00e9fe4f00fe18fe0050feec008f
:100a2400fec8ff00b300770001e50100e501760090
:100a340001b10000c2ffe200fe42fe00097e420056
:100a4400fee2fe00c2ffb10000760100e501e50010
:100a540001770100b300c800ffecfe0050fe18004f
:100a6400fe4ffe00e9fec000ffa400005f01c900c4
:100a740001c901006101ab0000d1ff0005ff750051
:100a8400fe42fe0075fe0000ffc2ff008f0036002c
:100a9400019401009401390001990000dbff2a0050
:100aa400ffaefe0082fead00fe24ff00c8ff74000e
:100ab400000101004f014f00010401008000e50026
:100ac400ff55ff00f1fece00fef1fe004fffd10006
:100ad400ff590000c600030001020100c8006400c1
:100ae40000eeff0082ff3700ff1dff0037ff7d008f
:100af400ffdcff003e008d0000b80000b8008e004f
:100b040000480000f5ffaa00ff77ff0066ff7800a9
:100b1400ffa7ff00e7ff2800005b000077007600d6
:100b2400005b00002e00fa00ffccff00adffa30025
:100b3400ffaeff00cbfff000ff16000034004300bf
:100b44000042000032001a0000feff00e5ffd5005d
:100b5400ffd1ff00d7ffe500fff8ff000a001800ef
:100b6400001e00001d001600000b0000fffff60031
:100b7400fff0ff00effff200fff7ff00fdff0300af
:100b84000006000007000700000400000200000047
:100b940000ffff00ffff0000000100000100000053
:100ba40000ffff00fefffc00fffbff00fcfffd0059
:100bb400ff00000003000600000700000700050016
:100bc40000020000fefffb00fff8ff00f8fff90041
:100bd400fffcff00000004000007000008000800fc
:100be400000500000200fe00fffbff00f9fff80013
:100bf400fffaff00fdff00000003000006000600ee
:100c0400000600000400010000ffff00fcfffb00e1
:100c1400fffbff00fcfffe00ff00000002000300da
:100c2400000400000400020000010000fffffe00b9
:100c3400fffdff00fdfffe00ffffff0000000100bd
:100c44000002000002000200000100000000000099
:100c540000ffff00ffffff00ffffff000000000098
:100c64000000000000000000000000000000000080
:100c74000000000000000000000000000000000070
:100c84000000000000000000000000000000000060
:100c94000000000000000000003c0000860300008b
:080ca40000000000fc078000c5
:020000040000fa
:100cac000000fa0021e1a9002021a90020c1a9001f
:100cbc00000980000040a1000050a100000988003c
:100ccc001821ef0000402000e0088800900580000b
:100cdc000000a0000010a1000020a10090058800d9
:100cec008780a9009780a90021e1a8001019800035
:100cfc0000d0a10000e0a10000f0a00010198800b5
:100d0c00101980000080a1000090a100101988002b
:100d1c002043a800001980000080a0000090a000d3
:100d2c0000198800001980000050a1000060a1008b
:100d3c000070a0000019880025e3a90090c0b30042
:100d4c0024e3b7002143a8002203a8002183a800b4
:100d5c00101980000020a1000030a1000040a1006b
:100d6c000050a100101988004119800000fe2f00ce
:100d7c00008060004019880028e3a9000080eb0087
:100d8c00601988002c03a90085a0a90095a0a900d2
:100d9c0021e3a800c01c80000040a1000050a1006d
:100dac00c01c8800c01c80000000a1000010a00026
:100dbc00c01c880099a3a90000302000001d8800e9
:100dcc00f0012000101d8800d0002000d01c8800ed
:100ddc00007c2000e01c880000782000f01c8800bb
:100dec008700a9009700a80099e3a800001c8000c8
:100dfc000040a1000050a100001c8800001c8000d5
:100e0c000000a1000010a000001c880081a3a80015
:100e1c00603f2000401c8800f0012000501c88001e
:100e2c00e0042000101c880000782000201c8800a2
:100e3c00007c2000301c88008480a9009480a800cd
:100e4c0081e3a800601c80000040a1000050a100bc
:100e5c00601c8800601c80000000a1000010a00035
:100e6c00601c88008da3a800803f2000a01c880077
:100e7c00f0012000b01c8800f0042000701c8800d9
:100e8c0000742000801c880000702000901c8800da
:100e9c0085c0a90095c0a8008de3a800f2e3a800c6
:100eac00f3e3a800f243a800f343a800f183a900e0
:100ebc00811f800000f82f00008060003000b3001c
:100ecc00801f8800f103a800f1e3a800f423ef00d1
:100edc000080fa00000006000000fa00e00120008b
:100eec00303a8800203a80000060a1000070a10018
:100efc00203a8800213a800000fe2f00008060001c
:100f0c00203a88003200200080072000a109200030
:100f1c003374200080497800814978008249780038
:100f2c00103a8000000178000200a000600420004c
:100f3c0071052000237420008049780081497800d5
:100f4c008249780000000000113a80000000270060
:100f5c008080600000002300808f5000faff3a0070
:100f6c0000000000113a80000002200000806000a8
:100f7c000000e000fbff3200503a80000080a0002f
:100f8c000090a10000a0a000503a88000080fa0058
:100f9c00000006000000fa00cfff070040ff07002a
:100fac00d122a900d522a800301c200030fc8900d9
:100fbc000080200040fc890040b8200050fc8900d3
:100fcc0000f02f0060fc890000c0230070fc890039
:100fdc0040f8230080fc890000c0230090fc8900ad
:0c0fec0060f82300a3fd0700ffff3700a2
:020000040000fa
:040ff80000000000f5
:020000040000fa
:0200000401f009
:04000000ffff0000fe
:020000040000fa
:0200000401f009
:04000400ffff0000fa
:020000040000fa
:0200000401f009
:04000800ffff0000f6
:020000040000fa
:0200000401f009
:04000c0000000000f0
:020000040000fa
:0200000401f009
:040010006500000087
:020000040000fa
:0200000401f009
:040014005f00000089
:020000040000fa
:0200000401f009
:04001800f7000000ed
:020000040000fa
:0200000401f009
:04001c00dfff000002
:00000001FF
