:020000040000fa
:080000000002040000000000f2
:020000040000fa
:0400080014040000dc
:020000040000fa
:04000c00d803000015
:020000040000fa
:04001000de0300000b
:020000040000fa
:04001400e403000001
:020000040000fa
:04001800ea030000f7
:020000040000fa
:04001c00f0030000ed
:020000040000fa
:0400200014040000c4
:020000040000fa
:0400240014040000c0
:020000040000fa
:0400280014040000bc
:020000040000fa
:04002c0014040000b8
:020000040000fa
:0400300014040000b4
:020000040000fa
:0400340014040000b0
:020000040000fa
:04003800b003000011
:020000040000fa
:04003c0014040000a8
:020000040000fa
:0400400014040000a4
:020000040000fa
:0400440014040000a0
:020000040000fa
:04004800140400009c
:020000040000fa
:04004c001404000098
:020000040000fa
:040050001404000094
:020000040000fa
:04005400c4030000e1
:020000040000fa
:04005800140400008c
:020000040000fa
:04005c001404000088
:020000040000fa
:040060005203000047
:020000040000fa
:040064001404000080
:020000040000fa
:04006800140400007c
:020000040000fa
:04006c001404000078
:020000040000fa
:040070001404000074
:020000040000fa
:040074001404000070
:020000040000fa
:04007800140400006c
:020000040000fa
:04007c001404000068
:020000040000fa
:040080001404000064
:020000040000fa
:040084001404000060
:020000040000fa
:04008800a8020000ca
:020000040000fa
:04008c001404000058
:020000040000fa
:040090001404000054
:020000040000fa
:040094001404000050
:020000040000fa
:04009800140400004c
:020000040000fa
:04009c001404000048
:020000040000fa
:0400a0001404000044
:020000040000fa
:0400a4001404000040
:020000040000fa
:0400a800140400003c
:020000040000fa
:0400ac001404000038
:020000040000fa
:0400b0001404000034
:020000040000fa
:0400b4001404000030
:020000040000fa
:0400b800140400002c
:020000040000fa
:0400bc001404000028
:020000040000fa
:0400c0001404000024
:020000040000fa
:0400c4001404000020
:020000040000fa
:0400c800140400001c
:020000040000fa
:0400cc001404000018
:020000040000fa
:0400d0001404000014
:020000040000fa
:0400d4001404000010
:020000040000fa
:0400d800140400000c
:020000040000fa
:0400dc001404000008
:020000040000fa
:0400e0001404000004
:020000040000fa
:0400e4001404000000
:020000040000fa
:0400e80014040000fc
:020000040000fa
:0400ec0014040000f8
:020000040000fa
:0400f00014040000f4
:020000040000fa
:0400f40014040000f0
:020000040000fa
:0400f80014040000ec
:020000040000fa
:0400fc0014040000e8
:020000040000fa
:0401000014040000e3
:020000040000fa
:0401040014040000df
:020000040000fa
:0401080014040000db
:020000040000fa
:04010c0014040000d7
:020000040000fa
:0401100014040000d3
:020000040000fa
:0401140014040000cf
:020000040000fa
:0401180014040000cb
:020000040000fa
:04011c0014040000c7
:020000040000fa
:0401200014040000c3
:020000040000fa
:0401240014040000bf
:020000040000fa
:0401280014040000bb
:020000040000fa
:04012c0014040000b7
:020000040000fa
:0401300014040000b3
:020000040000fa
:0401340014040000af
:020000040000fa
:0401380014040000ab
:020000040000fa
:04013c0014040000a7
:020000040000fa
:0401400014040000a3
:020000040000fa
:04014400140400009f
:020000040000fa
:04014800140400009b
:020000040000fa
:04014c001404000097
:020000040000fa
:040150001404000093
:020000040000fa
:04015400140400008f
:020000040000fa
:04015800140400008b
:020000040000fa
:04015c001404000087
:020000040000fa
:040160001404000083
:020000040000fa
:04016400140400007f
:020000040000fa
:0402080014040000da
:020000040000fa
:04020c00f6030000f5
:020000040000fa
:04021000fc030000eb
:020000040000fa
:0402140002040000e0
:020000040000fa
:0402180008040000d6
:020000040000fa
:04021c000e040000cc
:020000040000fa
:0402200014040000c2
:020000040000fa
:0402240014040000be
:020000040000fa
:0402280014040000ba
:020000040000fa
:04022c0014040000b6
:020000040000fa
:0402300014040000b2
:020000040000fa
:0402340014040000ae
:020000040000fa
:0402380014040000aa
:020000040000fa
:04023c0014040000a6
:020000040000fa
:0402400014040000a2
:020000040000fa
:04024400140400009e
:020000040000fa
:04024800140400009a
:020000040000fa
:04024c001404000096
:020000040000fa
:040250001404000092
:020000040000fa
:04025400140400008e
:020000040000fa
:04025800140400008a
:020000040000fa
:04025c001404000086
:020000040000fa
:040260001404000082
:020000040000fa
:04026400140400007e
:020000040000fa
:04026800140400007a
:020000040000fa
:04026c001404000076
:020000040000fa
:040270001404000072
:020000040000fa
:04027400140400006e
:020000040000fa
:04027800140400006a
:020000040000fa
:04027c001404000066
:020000040000fa
:040280001404000062
:020000040000fa
:04028400140400005e
:020000040000fa
:04028800140400005a
:020000040000fa
:04028c001404000056
:020000040000fa
:040290001404000052
:020000040000fa
:04029400140400004e
:020000040000fa
:04029800140400004a
:020000040000fa
:04029c001404000046
:020000040000fa
:0402a0001404000042
:020000040000fa
:0402a400140400003e
:020000040000fa
:0402a800140400003a
:020000040000fa
:0402ac001404000036
:020000040000fa
:0402b0001404000032
:020000040000fa
:0402b400140400002e
:020000040000fa
:0402b800140400002a
:020000040000fa
:0402bc001404000026
:020000040000fa
:0402c0001404000022
:020000040000fa
:0402c400140400001e
:020000040000fa
:0402c800140400001a
:020000040000fa
:0402cc001404000016
:020000040000fa
:0402d0001404000012
:020000040000fa
:0402d400140400000e
:020000040000fa
:0402d800140400000a
:020000040000fa
:0402dc001404000006
:020000040000fa
:0402e0001404000002
:020000040000fa
:0402e40014040000fe
:020000040000fa
:0402e80014040000fa
:020000040000fa
:0402ec0014040000f6
:020000040000fa
:0402f00014040000f2
:020000040000fa
:0402f40014040000ee
:020000040000fa
:0402f80014040000ea
:020000040000fa
:0402fc0014040000e6
:020000040000fa
:0403000014040000e1
:020000040000fa
:0403040014040000dd
:020000040000fa
:0403080014040000d9
:020000040000fa
:04030c0014040000d5
:020000040000fa
:0403100014040000d1
:020000040000fa
:0403140014040000cd
:020000040000fa
:0403180014040000c9
:020000040000fa
:04031c0014040000c5
:020000040000fa
:0403200014040000c1
:020000040000fa
:0403240014040000bd
:020000040000fa
:0403280014040000b9
:020000040000fa
:04032c0014040000b5
:020000040000fa
:0403300014040000b1
:020000040000fa
:0403340014040000ad
:020000040000fa
:0403380014040000a9
:020000040000fa
:04033c0014040000a5
:020000040000fa
:0403400014040000a1
:020000040000fa
:04034400140400009d
:020000040000fa
:040348001404000099
:020000040000fa
:04034c001404000095
:020000040000fa
:040350001404000091
:020000040000fa
:04035400140400008d
:020000040000fa
:040358001404000089
:020000040000fa
:04035c001404000085
:020000040000fa
:040360001404000081
:020000040000fa
:04036400140400007d
:020000040000fa
:10040000cf9a20000e6b24000e018800000000002f
:10041000000020000000e000020032000001200087
:10042000200288000c000700e0602000010020008e
:1004300011000700000020000000e0000200320070
:10044000000002000000000088060200000000001a
:100450000040da000000fe004440a9000000200037
:100460000000e0000300320000002000a00188002e
:100470004440a80000000600910188008000780038
:100480000000eb0015003700e280400032a0b4000d
:100490009101ba00e280400032a0b4009102ba009b
:1004a000e280400032a0b4000002eb00472bde00e7
:1004b000f507b200602ce10004003a000059eb009f
:1004c0008301e900fdff3e00040037006128e100e0
:1004d000010032000082eb000b00070011c3ba00dc
:1004e0001101ba000604e00003003a000200e00037
:1004f000e5ff3a0000000600f607b200960188000a
:1005000082007800f5ff37003159ba008301e90015
:100510000c0032002159ba008301e90008003200c2
:100520000400e00003003a00e280400032a0b40082
:10053000f5ff370011d9ba008301e900faff3a004c
:100540008100e800e180400032a0b4000000060015
:100550003600f800809fbe00829fbe00849fbe00d0
:10056000869fbe000000fa00101f8000640060003b
:100570000000e00016003200017c2400808c200086
:10058000839820000101780080007800000220009c
:10059000b5000700017c24008090200043992000d2
:1005a000010178008000780000022000ae00070002
:1005b000017c240080942000039a2000010178002f
:1005c0008000780000022000a70007001500370017
:1005d00001782400808c200083982000010178009d
:1005e00080007800000220009f00070001782400ae
:1005f000809020004399200001017800800078005d
:100600000002200098000700017824008094200058
:10061000039a200001017800800078000002200089
:100620009100070082428000818c2000808c200095
:10063000820178000101780080007800000220002b
:100640007b00070092428000819020008090200073
:10065000820178000101780080007800000220000b
:1006600073000700a2428000819420008094200043
:1006700082017800010178008000780000022000eb
:100680006b0007008700a9000080fa004f03be003e
:100690004f02be004f01be004f00be003600f90001
:1006a00000400600809fbe00821f78000200fa0012
:1006b000101f8000620060000000e00012003200a5
:1006c0000000eb00000f78000b0037001e007800e0
:1006d0008000400080902000008040009000780062
:1006e0001e0078000001400000742400000041005a
:1006f000010878001e0fe8001e007800ff0f500070
:10070000f2ff3400110037000000eb00000f78000a
:100710000b0037001e007800800040008090200011
:1007200000804000900078001e007800000140002a
:100730000070240000004100010878001e0fe8004e
:100740001e007800ff0f5000f2ff340085c0a900a2
:100750000080fa004f0178004f00be000040060004
:100760003400f800881f780008002000a8018800e5
:100770004f0478000000fa008480a9000080fa008d
:100780003400f900004006003400f800881f7800ab
:1007900008002000a80188004f0478000000fa003b
:1007a0008560a9000080fa003400f90000400600ce
:1007b0000000fa008020a900ffff37000000fa00c7
:1007c0008060a900ffff37000000fa008040a90008
:1007d000ffff37000000fa008080a900ffff37000c
:1007e0000000fa0080a0a900ffff37000000fa0017
:1007f0008020a900ffff37000000fa008060a900f8
:10080000ffff37000000fa008040a900ffff37001b
:100810000000fa008080a900ffff37000000fa0006
:1008200080a0a900ffff37000000fa00ffff37009b
:100830004400f800040f200024028800811f780083
:100840000000e900030278000080080002000000b8
:10085000b20278001301c0003100cd004f007800d3
:100860004400f90000000600889fbe008a9fbe0079
:100870008c9fbe008e1f78004400f800080f2000f7
:10088000280288003400f800811f78000f077800e4
:100890002305900007f02f000a38e1000400320021
:1008a000270280004700b30027028800aa018800c1
:1008b00003029000d30490000000e90000800800cb
:1008c000150000001304900033059000c30590004c
:1008d000320378009a00ca00b80278000480080049
:1008e0000a0000005210c4009b80ca008707cd0098
:1008f0005290c4005290c500ba87cd005390c400f6
:100900008607cd009a00ca005290c500bb87cd0073
:100910000600ca000900c8003100cd008e0778002b
:100920004f0078003400f9004400f9004f077800c8
:100930004f06be004f05be004f04be00000006007b
:10094000b00090004001900000009000008008007e
:10095000010000008018eb000019eb000000060009
:020000040000fa
:100960000000fa0021e1a9002021a90020c1a9006e
:10097000000980000040a1000050a100000988008b
:100980001821ef0000402000e0088800900580005a
:100990000000a0000010a1000020a1009005880028
:1009a0008780a9009780a90021e1a8001019800084
:1009b00000d0a10000e0a10000f0a0001019880004
:1009c000101980000080a1000090a100101988007b
:1009d0002043a800001980000080a0000090a00023
:1009e00000198800001980000050a1000060a100db
:1009f0000070a0000019880025e3a90090c0b30092
:100a000024e3b7002143a8002203a8002183a80003
:100a1000101980000020a1000030a1000040a100ba
:100a20000050a100101988004119800000fe2f001d
:100a3000008060004019880028e3a9000080eb00d6
:100a4000601988002c03a90085a0a90095a0a90021
:100a500021e3a800c01c80000040a1000050a100bc
:100a6000c01c8800c01c80000000a1000010a00075
:100a7000c01c880099a3a90000302000001d880038
:100a8000f0012000101d8800d0002000d01c88003c
:100a9000007c2000e01c880000782000f01c88000a
:100aa000800580000000a0000010a0000020a00031
:100ab000800588008700a9009700a80099e3a80096
:100ac000001c80000040a1000050a100001c880014
:100ad000001c80000000a1000010a000001c880085
:100ae00081a3a800603f2000401c8800f001200086
:100af000501c8800e0042000101c880000782000b2
:100b0000201c8800007c2000301c88008480a90004
:100b10009480a80081e3a800601c80000040a10030
:100b20000050a100601c8800601c80000000a10033
:100b30000010a000601c88008da3a800803f20004a
:100b4000a01c8800f0012000b01c8800f0042000e8
:100b5000701c880000742000801c88000070200039
:100b6000901c880085c0a90095c0a8008de3a8004e
:100b7000f2e3a800f3e3a800f243a800f343a800bf
:100b8000f183a900811f800000f82f000080600021
:100b90003000b300801f8800f103a800f1e3a80033
:100ba000f423ef002135800000fe2f00008060005c
:100bb0004001b3002035880091368000f00f2e00f0
:100bc00080806000003020000100700090368800b6
:100bd0002002a900001180000010a1000020a10047
:100be0000011880020a2a9002062a9003010200076
:100bf000401188009560a800101180000060a100dd
:100c00000070a100101188008560a90021e2a800f1
:0c0c10002342a8000080fa00000006004b
:020000040000fa
:100c1c00c8080000e400000000000000c04700000d
:100c2c004000000000000000804700004000000071
:100c3c0000000000404700004000000000000000e1
:100c4c0000470000400000000000000050080000b9
:100c5c0006000000020000000040000040004000c0
:100c6c006008000028000000020000004f009e00f9
:100c7c0000a773004f001900cb4f00009e00a70087
:100c8c00734f000019cb4f00009e0000a7734f005c
:100c9c000019cb004f009e0000a773004f001900f5
:100cac00cb000000a008000028000000020000009b
:100cbc00f834100096356900f834e100d2f83400ad
:100ccc001096350069f83400e1d2f8003410960023
:100cdc003569f80034e1d200f8341000963569001b
:100cec00f834e100d20000000008000050000000c1
:100cfc0000000000c04600004000000000000000a2
:040d0c004607800016
:020000040000fa
:100d10000000fa002e00070011ff0700d122a900f1
:100d2000d522a80030002000404c8800008620001a
:100d3000504c880000f02f00604c8800006c2400ac
:100d4000704c8800806c2400804c88000000eb0010
:100d5000904c880030002000a04c8800008a2000c1
:100d6000b04c880000f02f00c04c8800006d2400bb
:100d7000d04c8800806d2400e04c88000000eb001f
:100d8000f04c880070002000004d8800008020009a
:100d9000104d880000f02f00204d8800006e2400c8
:100da000304d8800006f2400404d88000000eb00ab
:100db000504d880080982000e1fe070040992000f7
:100dc000dffe0700009a2000ddfe0700ffff37006e
:100dd0000000fa00e0012000303a8800203a80004c
:100de0000060a1000070a100203a8800213a800034
:100df00000fe2f0000806000203a880032002000b2
:100e000080072000a1092000337420008049780069
:100e10008149780082497800103a8000000178000a
:100e20000200a0006004200071052000237420004f
:100e300080497800814978008249780000000000ec
:100e4000113a80000000270080806000000023002d
:100e5000808f5000faff3a0000000000113a800035
:100e600000022000008060000000e000fbff320074
:100e7000503a80000080a0000090a10000a0a000d7
:0c0e8000503a88000080fa0000000600d4
:020000040000fa
:040e8c000000000062
:020000040000fa
:0200000401f009
:04000000ffff0000fe
:020000040000fa
:0200000401f009
:04000400ffff0000fa
:020000040000fa
:0200000401f009
:04000800ffff0000f6
:020000040000fa
:0200000401f009
:04000c0000000000f0
:020000040000fa
:0200000401f009
:040010006500000087
:020000040000fa
:0200000401f009
:040014005f00000089
:020000040000fa
:0200000401f009
:04001800f7000000ed
:020000040000fa
:0200000401f009
:04001c00dfff000002
:00000001FF
