:020000040000fa
:080000000002040000000000f2
:020000040000fa
:04000800c004000030
:020000040000fa
:04000c008404000068
:020000040000fa
:040010008a0400005e
:020000040000fa
:040014009004000054
:020000040000fa
:04001800960400004a
:020000040000fa
:04001c009c04000040
:020000040000fa
:04002000c004000018
:020000040000fa
:04002400c004000014
:020000040000fa
:04002800c004000010
:020000040000fa
:04002c00c00400000c
:020000040000fa
:04003000c004000008
:020000040000fa
:04003400c004000004
:020000040000fa
:04003800b002000012
:020000040000fa
:04003c00c0040000fc
:020000040000fa
:04004000c0040000f8
:020000040000fa
:04004400c0040000f4
:020000040000fa
:04004800c0040000f0
:020000040000fa
:04004c00c0040000ec
:020000040000fa
:04005000c0040000e8
:020000040000fa
:040054009c03000009
:020000040000fa
:04005800c0040000e0
:020000040000fa
:04005c00c0040000dc
:020000040000fa
:040060009403000005
:020000040000fa
:04006400c0040000d4
:020000040000fa
:04006800c0040000d0
:020000040000fa
:04006c00c0040000cc
:020000040000fa
:04007000c0040000c8
:020000040000fa
:04007400c0040000c4
:020000040000fa
:04007800c0040000c0
:020000040000fa
:04007c00c0040000bc
:020000040000fa
:04008000c0040000b8
:020000040000fa
:04008400c0040000b4
:020000040000fa
:04008800c0040000b0
:020000040000fa
:04008c00c0040000ac
:020000040000fa
:04009000c0040000a8
:020000040000fa
:04009400c0040000a4
:020000040000fa
:04009800a8020000ba
:020000040000fa
:04009c00c00400009c
:020000040000fa
:0400a000c004000098
:020000040000fa
:0400a400c004000094
:020000040000fa
:0400a800c004000090
:020000040000fa
:0400ac00c00400008c
:020000040000fa
:0400b000c004000088
:020000040000fa
:0400b400c004000084
:020000040000fa
:0400b800c004000080
:020000040000fa
:0400bc00c00400007c
:020000040000fa
:0400c000c004000078
:020000040000fa
:0400c400c004000074
:020000040000fa
:0400c800c004000070
:020000040000fa
:0400cc00c00400006c
:020000040000fa
:0400d000c004000068
:020000040000fa
:0400d400c004000064
:020000040000fa
:0400d800c004000060
:020000040000fa
:0400dc00c00400005c
:020000040000fa
:0400e000c004000058
:020000040000fa
:0400e400c004000054
:020000040000fa
:0400e800c004000050
:020000040000fa
:0400ec00c00400004c
:020000040000fa
:0400f000c004000048
:020000040000fa
:0400f400c004000044
:020000040000fa
:0400f800c004000040
:020000040000fa
:0400fc00c00400003c
:020000040000fa
:04010000c004000037
:020000040000fa
:04010400c004000033
:020000040000fa
:04010800c00400002f
:020000040000fa
:04010c00c00400002b
:020000040000fa
:04011000c004000027
:020000040000fa
:04011400c004000023
:020000040000fa
:04011800c00400001f
:020000040000fa
:04011c00c00400001b
:020000040000fa
:04012000c004000017
:020000040000fa
:04012400c004000013
:020000040000fa
:04012800c00400000f
:020000040000fa
:04012c00c00400000b
:020000040000fa
:04013000c004000007
:020000040000fa
:04013400c004000003
:020000040000fa
:04013800c0040000ff
:020000040000fa
:04013c00c0040000fb
:020000040000fa
:04014000c0040000f7
:020000040000fa
:04014400c0040000f3
:020000040000fa
:04014800c0040000ef
:020000040000fa
:04014c00c0040000eb
:020000040000fa
:04015000c0040000e7
:020000040000fa
:04015400c0040000e3
:020000040000fa
:04015800c0040000df
:020000040000fa
:04015c00c0040000db
:020000040000fa
:04016000c0040000d7
:020000040000fa
:04016400c0040000d3
:020000040000fa
:04020800c00400002e
:020000040000fa
:04020c00a204000048
:020000040000fa
:04021000a80400003e
:020000040000fa
:04021400ae04000034
:020000040000fa
:04021800b40400002a
:020000040000fa
:04021c00ba04000020
:020000040000fa
:04022000c004000016
:020000040000fa
:04022400c004000012
:020000040000fa
:04022800c00400000e
:020000040000fa
:04022c00c00400000a
:020000040000fa
:04023000c004000006
:020000040000fa
:04023400c004000002
:020000040000fa
:04023800c0040000fe
:020000040000fa
:04023c00c0040000fa
:020000040000fa
:04024000c0040000f6
:020000040000fa
:04024400c0040000f2
:020000040000fa
:04024800c0040000ee
:020000040000fa
:04024c00c0040000ea
:020000040000fa
:04025000c0040000e6
:020000040000fa
:04025400c0040000e2
:020000040000fa
:04025800c0040000de
:020000040000fa
:04025c00c0040000da
:020000040000fa
:04026000c0040000d6
:020000040000fa
:04026400c0040000d2
:020000040000fa
:04026800c0040000ce
:020000040000fa
:04026c00c0040000ca
:020000040000fa
:04027000c0040000c6
:020000040000fa
:04027400c0040000c2
:020000040000fa
:04027800c0040000be
:020000040000fa
:04027c00c0040000ba
:020000040000fa
:04028000c0040000b6
:020000040000fa
:04028400c0040000b2
:020000040000fa
:04028800c0040000ae
:020000040000fa
:04028c00c0040000aa
:020000040000fa
:04029000c0040000a6
:020000040000fa
:04029400c0040000a2
:020000040000fa
:04029800c00400009e
:020000040000fa
:04029c00c00400009a
:020000040000fa
:0402a000c004000096
:020000040000fa
:0402a400c004000092
:020000040000fa
:0402a800c00400008e
:020000040000fa
:0402ac00c00400008a
:020000040000fa
:0402b000c004000086
:020000040000fa
:0402b400c004000082
:020000040000fa
:0402b800c00400007e
:020000040000fa
:0402bc00c00400007a
:020000040000fa
:0402c000c004000076
:020000040000fa
:0402c400c004000072
:020000040000fa
:0402c800c00400006e
:020000040000fa
:0402cc00c00400006a
:020000040000fa
:0402d000c004000066
:020000040000fa
:0402d400c004000062
:020000040000fa
:0402d800c00400005e
:020000040000fa
:0402dc00c00400005a
:020000040000fa
:0402e000c004000056
:020000040000fa
:0402e400c004000052
:020000040000fa
:0402e800c00400004e
:020000040000fa
:0402ec00c00400004a
:020000040000fa
:0402f000c004000046
:020000040000fa
:0402f400c004000042
:020000040000fa
:0402f800c00400003e
:020000040000fa
:0402fc00c00400003a
:020000040000fa
:04030000c004000035
:020000040000fa
:04030400c004000031
:020000040000fa
:04030800c00400002d
:020000040000fa
:04030c00c004000029
:020000040000fa
:04031000c004000025
:020000040000fa
:04031400c004000021
:020000040000fa
:04031800c00400001d
:020000040000fa
:04031c00c004000019
:020000040000fa
:04032000c004000015
:020000040000fa
:04032400c004000011
:020000040000fa
:04032800c00400000d
:020000040000fa
:04032c00c004000009
:020000040000fa
:04033000c004000005
:020000040000fa
:04033400c004000001
:020000040000fa
:04033800c0040000fd
:020000040000fa
:04033c00c0040000f9
:020000040000fa
:04034000c0040000f5
:020000040000fa
:04034400c0040000f1
:020000040000fa
:04034800c0040000ed
:020000040000fa
:04034c00c0040000e9
:020000040000fa
:04035000c0040000e5
:020000040000fa
:04035400c0040000e1
:020000040000fa
:04035800c0040000dd
:020000040000fa
:04035c00c0040000d9
:020000040000fa
:04036000c0040000d5
:020000040000fa
:04036400c0040000d1
:020000040000fa
:10040000ef9220000e7324000e018800000000000f
:10041000000020000000e000020032000001200087
:10042000200288000c000700606f200001002000ff
:1004300011000700000020000000e0000200320070
:100440000000020000000000fe07020000000000a3
:100450000040da000000fe004440a9000000200037
:100460000000e0000300320000002000a00188002e
:100470004440a80000000600910188008000780038
:100480000000eb0015003700e280400032a0b4000d
:100490009101ba00e280400032a0b4009102ba009b
:1004a000e280400032a0b4000002eb00472bde00e7
:1004b000f507b200602ce10004003a000059eb009f
:1004c0008301e900fdff3e00040037006128e100e0
:1004d000010032000082eb000b00070011c3ba00dc
:1004e0001101ba000604e00003003a000200e00037
:1004f000e5ff3a0000000600f607b200960188000a
:1005000082007800f5ff37003159ba008301e90015
:100510000c0032002159ba008301e90008003200c2
:100520000400e00003003a00e280400032a0b40082
:10053000f5ff370011d9ba008301e900faff3a004c
:100540008100e800e180400032a0b4000000060015
:100550000000fa008780a9000080fa000040060031
:100560003600f800809fbe00829fbe00849fbe00c0
:10057000869fbe000000fa008480a900101f800042
:10058000610060000000e0002e003a00017e2400bf
:1005900000458000a38a200001017800e18c200042
:1005a00016010700017e240000458000638b2000b7
:1005b00001017800e18e200010010700017e240077
:1005c00000458000638b200001017800e19020004d
:1005d0000a01070011458000004580008101780074
:1005e000e28c2000e18c2000e7000700214580001c
:1005f0000045800081017800e28e2000e18e20001d
:10060000e10007003145800000458000810178004d
:10061000e2902000e1902000db0007000045800010
:10062000e38e2000e28c2000e18e2000e400070031
:10063000017a240000458000e3902000e28e200033
:10064000df000700101f8000610060000000e00074
:100650002e003200017c240000458000a38a200087
:1006600001017800e18c2000e4000700017c2400f7
:1006700000458000638b200001017800e18e20009e
:10068000de000700017c240000458000638b200011
:1006900001017800e1902000d8000700114580009a
:1006a0000045800081017800e28c2000e18c200070
:1006b000b5000700214580000045800081017800d9
:1006c000e28e2000e18e2000af000700314580005f
:1006d0000045800081017800e2902000e190200038
:1006e000a900070000458000e38e2000e28c200076
:1006f000e18e2000b2000700017824000045800050
:10070000e3902000e28e2000ad0007000080fa0098
:100710004f03be004f02be004f01be004f00be009f
:100720003600f900004006000000fa0085c0a9006c
:100730000080fa0000400600809fbe00821f780003
:100740000000fa008560a900a116800000082000c2
:100750000080600000f0a7000000ea000000e9004f
:100760004f00de00004078000080fb006100600068
:100770004700dd00a2168000f1f72f008100610024
:1007800001007000a0168800301180000040780041
:10079000a8e8b700a8c8bf000000fb005104200073
:1007a000810f50002700320051042000810f5000bb
:1007b00007003c0011042000810f50002b00320084
:1007c00041042000810f5000380032004a003700f9
:1007d00031052000810f50002c00320071052000ef
:1007e000810f50000d00320011052000810f5000d4
:1007f00041003a00104580008000780060772f00ab
:10080000808f500031003e0011458000d0cc200088
:1008100000804000104588003700370030458000d8
:100820008000780060772f00808f500029003e0004
:1008300031458000d0cc2000008040003045880049
:100840002d003700204580008000780060772f0061
:10085000808f500021003e0021458000d0cc200038
:1008600000804000204588002300370010458000ac
:100870000000e0001b0034001145800030332f00e1
:1008800000804000104588001b0037003045800084
:100890000000e000150034003145800030332f00a7
:1008a000008040003045880013003700204580005c
:1008b0000000e0000f0034002145800030332f009d
:1008c00000804000204588000b0037000000000039
:1008d000090037000000000007003700000000009a
:1008e0000500370000000000030037000000000092
:1008f00001003700000000000080fa004f0178007e
:100900004f00be00004006000000fa008020a90051
:10091000ffff37000000fa008060a900ffff3700ea
:100920000000fa008040a900ffff37000000fa0035
:100930008080a900ffff37000000fa0080a0a90016
:10094000ffff37000000fa008020a900ffff3700fa
:100950000000fa008060a900ffff37000000fa00e5
:100960008040a900ffff37000000fa008080a90046
:10097000ffff37000000fa0080a0a900ffff37004a
:100980000000fa00ffff37004400f800040f2000c9
:1009900024028800811f78000000e900030278002b
:1009a0000080080002000000b20278001301c000bd
:1009b0003100cd004f0078004400f900000006002f
:1009c0004400f800040f200024028800010278008f
:1009d0000000e9000080080004000000b202780076
:1009e0000500ca00b30278000500c9003100cc0040
:1009f000040078004400f90000000600889fbe0053
:100a00008a9fbe008c9fbe008e1f78004400f800b5
:100a1000080f2000280288003400f800811f7800a9
:100a20000f0778002305900007f02f000a38e10037
:100a300004003200270280004700b300270288002c
:100a4000aa01880003029000d30490000000e9008e
:100a5000008008001500000013049000330590008a
:100a6000c3059000320378009a00ca00b8027800eb
:100a7000048008000a0000005210c4009b80ca00d5
:100a80008707cd005290c4005290c500ba87cd00b0
:100a90005390c4008607cd009a00ca005290c5004a
:100aa000bb87cd000600ca000900c8003100cd0098
:100ab0008e0778004f0078003400f9004400f900f8
:100ac0004f0778004f06be004f05be004f04be0022
:100ad00000000600b000900040019000000090006f
:100ae00000800800010000008018eb000019eb00f6
:040af00000000600fc
:020000040000fa
:100af4000000fa00300020005045880000802000eb
:100b04006045880000f02f007045880000742400c0
:100b14008045880080742400904588000000eb0024
:100b2400a0458800a08a2000e9ff070030002000cb
:100b3400b045880080822000c045880000f02f0066
:100b4400d045880000752400e045880080752400a5
:100b5400f04588000000eb0000468800608b200010
:100b6400dbff07007000200010468800008520008d
:100b74002046880000f02f003046880000762400cc
:100b84004046880000772400504688000000eb00af
:100b940060468800208c2000cdff0700001c8000e8
:100ba4000040a1000050a100001c8800001c80002f
:100bb4000000a1000010a000001c880081a3a9006f
:100bc40000302000401c8800f0002000501c8800e9
:100bd400d0002000101c8800007e2000201c88000b
:100be400007c2000301c88008480a9009480a80028
:100bf40081e3a800601c80000040a1000050a10017
:100c0400601c8800601c80000000a1000010a0008f
:100c1400601c88008da3a800603f2000a01c8800f1
:100c2400f0002000b01c8800e0042000701c880044
:100c3400007a2000801c880000782000901c880026
:100c440085c0a90095c0a8008de3a8000019800004
:100c54000080a0000090a000001988000019800006
:100c64000050a1000060a1000070a00000198800dd
:100c74002043a8002143a8001019800000d0a1003f
:100c840000e0a10000f0a0001019880010198000f5
:100c94000080a1000090a1001019880025e3a9009c
:100ca40090c0b30024e3b7002183a800101980008a
:100cb4000020a1000030a1000040a1000050a100cc
:100cc400101988004119800000fe2f000080600088
:100cd4004019880028e3a9000080eb00601988000f
:100ce4002c03a90085a0a90095a0a90021e3a800d0
:100cf40021e1a9002021a90020c1a9000009800048
:100d04000040a1000050a100000988001821ef0054
:100d140000402000e0088800900580000000a0004a
:100d24000010a1000020a100900588008780a90080
:100d34009780a90021e1a800f2e3a800f3e3a8004a
:100d4400f243a800f343a800f183a900811f8000a7
:100d540000f82f00008060003000b300801f88007e
:100d6400f103a800f1e3a800f423ef00913680001a
:100d7400f00f2e0080806000003020000100700021
:100d8400903688002135800000fe2f00008060002e
:100d94004001b3002035880021e2a9002002a90007
:100da400001180000010a1000020a10000118800a3
:100db40020a2a9002062a900301020004011880060
:100dc400101180000060a1000070a10010118800c3
:100dd4009560a8008560a90021e2a8002342a8002c
:080de4000080fa000000060087
:020000040000fa
:100dec00a80800000200000000000000aa08000093
:100dfc00840000000000000000080000a0000000bb
:100e0c00020000001500290000da79001500d2005c
:100e1c00c51500002900da0079150000d2c51500af
:100e2c0000290000da79150000d2c5001500290050
:100e3c0000da79001500d200c5fb39000b8cc80014
:100e4c0074fb39002ecafb00390b8c00c874fb00f4
:100e5c00392eca00fb390b008cc87400fb392e00ec
:100e6c00cafb39000b8cc80074fb39002eca4e002b
:100e7c00029d04001f5b4e00028cdb004e029d00a5
:100e8c00041f5b004e028c00db4e02009d041f0011
:100e9c005b4e02008cdb4e00029d04001f5b4e007b
:100eac00028cdb005d3e470083277e005d3ed10057
:100ebc00c15d3e00478327007e5d3e00d1c15d00d1
:100ecc003e478300277e5d003ed1c1005d3e47005a
:100edc0083277e005d3ed100c1000000404700002a
:100eec004000000000000000e0470000200000006f
:100efc0000000000c04700002000000000000000bf
:100f0c00a047000020000000000000008047000007
:100f1c002000000000000000a008000008000000f5
:100f2c0002000000100000004000400000400000e3
:040f3c000a0880001f
:020000040000fa
:100f40000000fa00e0012000303a8800203a8000da
:100f50000060a1000070a100203a8800213a8000c2
:100f600000fe2f0000806000203a88003200200040
:100f700080072000a10920003374200080497800f8
:100f80008149780082497800103a80000001780099
:100f90000200a000600420007105200023742000de
:100fa000804978008149780082497800000000007b
:100fb000113a8000000027008080600000002300bc
:100fc000808f5000faff3a0000000000113a8000c4
:100fd00000022000008060000000e000fbff320003
:100fe000503a80000080a0000090a10000a0a00066
:100ff000503a88000080fa00000006000000fa0065
:10100000cfff0700bbfe07006910090000000000c9
:04101000ffff3700a7
:020000040000fa
:0410140000000000d8
:020000040000fa
:0200000401f009
:04000000ffff0000fe
:020000040000fa
:0200000401f009
:04000400ffff0000fa
:020000040000fa
:0200000401f009
:04000800ffff0000f6
:020000040000fa
:0200000401f009
:04000c0000000000f0
:020000040000fa
:0200000401f009
:040010006500000087
:020000040000fa
:0200000401f009
:040014005f00000089
:020000040000fa
:0200000401f009
:04001800f7000000ed
:020000040000fa
:0200000401f009
:04001c00dfff000002
:00000001FF
