:020000040000fa
:080000000002040000000000f2
:020000040000fa
:0400080034030000bd
:020000040000fa
:04000c00f8020000f6
:020000040000fa
:04001000fe020000ec
:020000040000fa
:0400140004030000e1
:020000040000fa
:040018000a030000d7
:020000040000fa
:04001c0010030000cd
:020000040000fa
:0400200034030000a5
:020000040000fa
:0400240034030000a1
:020000040000fa
:04002800340300009d
:020000040000fa
:04002c003403000099
:020000040000fa
:040030003403000095
:020000040000fa
:040034003403000091
:020000040000fa
:04003800b002000012
:020000040000fa
:04003c003403000089
:020000040000fa
:040040003403000085
:020000040000fa
:040044003403000081
:020000040000fa
:04004800340300007d
:020000040000fa
:04004c003403000079
:020000040000fa
:040050003403000075
:020000040000fa
:040054003403000071
:020000040000fa
:04005800340300006d
:020000040000fa
:04005c003403000069
:020000040000fa
:04006000f0020000aa
:020000040000fa
:040064003403000061
:020000040000fa
:04006800340300005d
:020000040000fa
:04006c003403000059
:020000040000fa
:040070003403000055
:020000040000fa
:040074003403000051
:020000040000fa
:04007800340300004d
:020000040000fa
:04007c003403000049
:020000040000fa
:040080003403000045
:020000040000fa
:040084003403000041
:020000040000fa
:04008800340300003d
:020000040000fa
:04008c003403000039
:020000040000fa
:040090003403000035
:020000040000fa
:040094003403000031
:020000040000fa
:04009800a8020000ba
:020000040000fa
:04009c003403000029
:020000040000fa
:0400a0003403000025
:020000040000fa
:0400a4003403000021
:020000040000fa
:0400a800340300001d
:020000040000fa
:0400ac003403000019
:020000040000fa
:0400b0003403000015
:020000040000fa
:0400b4003403000011
:020000040000fa
:0400b800340300000d
:020000040000fa
:0400bc003403000009
:020000040000fa
:0400c0003403000005
:020000040000fa
:0400c4003403000001
:020000040000fa
:0400c80034030000fd
:020000040000fa
:0400cc0034030000f9
:020000040000fa
:0400d00034030000f5
:020000040000fa
:0400d40034030000f1
:020000040000fa
:0400d80034030000ed
:020000040000fa
:0400dc0034030000e9
:020000040000fa
:0400e00034030000e5
:020000040000fa
:0400e40034030000e1
:020000040000fa
:0400e80034030000dd
:020000040000fa
:0400ec0034030000d9
:020000040000fa
:0400f00034030000d5
:020000040000fa
:0400f40034030000d1
:020000040000fa
:0400f80034030000cd
:020000040000fa
:0400fc0034030000c9
:020000040000fa
:0401000034030000c4
:020000040000fa
:0401040034030000c0
:020000040000fa
:0401080034030000bc
:020000040000fa
:04010c0034030000b8
:020000040000fa
:0401100034030000b4
:020000040000fa
:0401140034030000b0
:020000040000fa
:0401180034030000ac
:020000040000fa
:04011c0034030000a8
:020000040000fa
:0401200034030000a4
:020000040000fa
:0401240034030000a0
:020000040000fa
:04012800340300009c
:020000040000fa
:04012c003403000098
:020000040000fa
:040130003403000094
:020000040000fa
:040134003403000090
:020000040000fa
:04013800340300008c
:020000040000fa
:04013c003403000088
:020000040000fa
:040140003403000084
:020000040000fa
:040144003403000080
:020000040000fa
:04014800340300007c
:020000040000fa
:04014c003403000078
:020000040000fa
:040150003403000074
:020000040000fa
:040154003403000070
:020000040000fa
:04015800340300006c
:020000040000fa
:04015c003403000068
:020000040000fa
:040160003403000064
:020000040000fa
:040164003403000060
:020000040000fa
:0402080034030000bb
:020000040000fa
:04020c0016030000d5
:020000040000fa
:040210001c030000cb
:020000040000fa
:0402140022030000c1
:020000040000fa
:0402180028030000b7
:020000040000fa
:04021c002e030000ad
:020000040000fa
:0402200034030000a3
:020000040000fa
:04022400340300009f
:020000040000fa
:04022800340300009b
:020000040000fa
:04022c003403000097
:020000040000fa
:040230003403000093
:020000040000fa
:04023400340300008f
:020000040000fa
:04023800340300008b
:020000040000fa
:04023c003403000087
:020000040000fa
:040240003403000083
:020000040000fa
:04024400340300007f
:020000040000fa
:04024800340300007b
:020000040000fa
:04024c003403000077
:020000040000fa
:040250003403000073
:020000040000fa
:04025400340300006f
:020000040000fa
:04025800340300006b
:020000040000fa
:04025c003403000067
:020000040000fa
:040260003403000063
:020000040000fa
:04026400340300005f
:020000040000fa
:04026800340300005b
:020000040000fa
:04026c003403000057
:020000040000fa
:040270003403000053
:020000040000fa
:04027400340300004f
:020000040000fa
:04027800340300004b
:020000040000fa
:04027c003403000047
:020000040000fa
:040280003403000043
:020000040000fa
:04028400340300003f
:020000040000fa
:04028800340300003b
:020000040000fa
:04028c003403000037
:020000040000fa
:040290003403000033
:020000040000fa
:04029400340300002f
:020000040000fa
:04029800340300002b
:020000040000fa
:04029c003403000027
:020000040000fa
:0402a0003403000023
:020000040000fa
:0402a400340300001f
:020000040000fa
:0402a800340300001b
:020000040000fa
:0402ac003403000017
:020000040000fa
:0402b0003403000013
:020000040000fa
:0402b400340300000f
:020000040000fa
:0402b800340300000b
:020000040000fa
:0402bc003403000007
:020000040000fa
:0402c0003403000003
:020000040000fa
:0402c40034030000ff
:020000040000fa
:0402c80034030000fb
:020000040000fa
:0402cc0034030000f7
:020000040000fa
:0402d00034030000f3
:020000040000fa
:0402d40034030000ef
:020000040000fa
:0402d80034030000eb
:020000040000fa
:0402dc0034030000e7
:020000040000fa
:0402e00034030000e3
:020000040000fa
:0402e40034030000df
:020000040000fa
:0402e80034030000db
:020000040000fa
:0402ec0034030000d7
:020000040000fa
:0402f00034030000d3
:020000040000fa
:0402f40034030000cf
:020000040000fa
:0402f80034030000cb
:020000040000fa
:0402fc0034030000c7
:020000040000fa
:0403000034030000c2
:020000040000fa
:0403040034030000be
:020000040000fa
:0403080034030000ba
:020000040000fa
:04030c0034030000b6
:020000040000fa
:0403100034030000b2
:020000040000fa
:0403140034030000ae
:020000040000fa
:0403180034030000aa
:020000040000fa
:04031c0034030000a6
:020000040000fa
:0403200034030000a2
:020000040000fa
:04032400340300009e
:020000040000fa
:04032800340300009a
:020000040000fa
:04032c003403000096
:020000040000fa
:040330003403000092
:020000040000fa
:04033400340300008e
:020000040000fa
:04033800340300008a
:020000040000fa
:04033c003403000086
:020000040000fa
:040340003403000082
:020000040000fa
:04034400340300007e
:020000040000fa
:04034800340300007a
:020000040000fa
:04034c003403000076
:020000040000fa
:040350003403000072
:020000040000fa
:04035400340300006e
:020000040000fa
:04035800340300006a
:020000040000fa
:04035c003403000066
:020000040000fa
:040360003403000062
:020000040000fa
:04036400340300005e
:020000040000fa
:100400002fc020000ebf23000e0188000000000056
:10041000000020000000e000020032000001200087
:10042000200288000c000700203c20000100200072
:1004300011000700000020000000e0000200320070
:1004400000000200000000000e0802000000000092
:100450000040da000000fe004440a9000000200037
:100460000000e0000300320000002000a00188002e
:100470004440a80000000600910188008000780038
:100480000000eb0015003700e280400032a0b4000d
:100490009101ba00e280400032a0b4009102ba009b
:1004a000e280400032a0b4000002eb00472bde00e7
:1004b000f507b200602ce10004003a000059eb009f
:1004c0008301e900fdff3e00040037006128e100e0
:1004d000010032000082eb000b00070011c3ba00dc
:1004e0001101ba000604e00003003a000200e00037
:1004f000e5ff3a0000000600f607b200960188000a
:1005000082007800f5ff37003159ba008301e90015
:100510000c0032002159ba008301e90008003200c2
:100520000400e00003003a00e280400032a0b40082
:10053000f5ff370011d9ba008301e900faff3a004c
:100540008100e800e180400032a0b4000000060015
:100550000000fa008780a9000080fa000040060031
:100560003600f800809fbe00829fbe00849fbe00c0
:10057000869fbe000000fa008480a900101f800042
:10058000610060000000e00005003200027e2400ef
:10059000017a240000608000030024003b00070073
:1005a000101f8000610060000000e00005003a00bc
:1005b000027c2400017824000060800003002400f5
:1005c000320007000080fa004f03be004f02be0059
:1005d0004f01be004f00be003600f900004006008b
:1005e0000000fa0085c0a9000080fa000040060063
:1005f0000000fa008020a900ffff37000000fa0089
:100600008060a900ffff37000000fa008040a900c9
:10061000ffff37000000fa008080a900ffff3700cd
:100620000000fa0080a0a900ffff37000000fa00d8
:100630008020a900ffff37000000fa008060a900b9
:10064000ffff37000000fa008040a900ffff3700dd
:100650000000fa008080a900ffff37000000fa00c8
:1006600080a0a900ffff37000000fa00ffff37005d
:10067000800090000101e900c0009000000020000f
:10068000028009008018780000000600889fbe00e4
:100690008a9fbe008c9fbe008e1f78004400f80029
:1006a000080f2000280288003400f8004600f800f7
:1006b0004800f8004a00f8004c00f8004e00f8002e
:1006c0008a0a2c003a02880023049000580288000d
:1006d0001304900048028800530590007a028800b5
:1006e000430590006a028800811f78000f07780098
:1006f0003305900007f02f000a38e10004003200b3
:10070000270280004700b30027028800aa01880062
:100710006305900003029000630252000000e900ac
:100720000080080007000000320d78000000000083
:100730004618c300048009004618c4004218c400cb
:100740001201c4003100cd00ea0198008e07780044
:100750004f0078004e00f9004c00f9004a00f90003
:100760004800f9004600f9003400f9004400f9009f
:100770004f0778004f06be004f05be004f04be0075
:04078000000006006f
:020000040000fa
:10078400004000000e00000000000000000800000f
:100794000004000002000000030005000006000041
:1007a4000600040000010000fefffb00fff9ff004b
:1007b400f9fffa00fffdff0000000400000600003e
:1007c40008000700000500000100fe00fffaff001a
:1007d400f8fff800fffaff00fdff0000000400002e
:1007e40007000800000800000500020000feff00ea
:1007f400fafff800fff8ff00f9fffc00ff0000001b
:1008040004000700000800000700050000010000c4
:10081400fefffb00fffaff00fafffb00fffeff00f4
:1008240000000200000400000400030000020000b5
:100834000000000000ffff000000000000010000b5
:100844000100000000feff00fdfffb00fffaff00b7
:10085400fcfffe00ff02000007000a00000c00007d
:100864000b00070000000000f8fff100ffedff009f
:10087400edfff100fffbff0006001200001a00006c
:100884001d001900000f00000000ef00ffe2ff0050
:10089400daffdb00ffe5ff00f6ff0b00001f00009e
:1008a4002c003100002a00001800000000e7ff00bf
:1008b400d2ffc700ffc9ff00d8fff100ff0e000000
:1008c4002a003d0000420000380020000001000022
:1008d400e1ffc700ffbaff00bdffcf00ffedff003f
:1008e40010002f000044000049003d0000230000d8
:1008f4000200e000ffc6ff00baffbe00ffd1ff0008
:10090400eeff0e00002a00003b003e000033000012
:100914001d00020000e8ff00d6ffcf00ffd4ff0057
:10092400e2fff500ff08000016001d00001b000098
:1009340014000a0000010000fbfffb00fffeff00a3
:100944000300060000040000fcfff100ffe4ff00c8
:10095400dcffdc00ffe7ff00fdff1a0000360000ab
:100964004a004e00003f00001c00ed00ffbbff00ea
:1009740093ff8100ff8cff00b6fff600ff410000eb
:100984008400ae0000b200008a003e0000dbff00dd
:1009940079ff2f00ff11ff002aff7800ffecff0012
:1009a4006e00df00002201002501e2000066000065
:1009b400caff3100ffc1fe0096febd00fe33ff00fa
:1009c400dfff9c00003c01009a019c00013d0100f6
:1009d4009000bb00ffecfe0057fe1e00fe55fe001b
:1009e400f0fed100ffc400009101070002080200dc
:1009f4009001b80000b0ff00b3fefe00fdbbfd0097
:100a0400fdfdb800fec2ff00e000d0000159020065
:100a14005902cf0001d80000acff8e00fec3fd00d8
:100a240079fdc300fd91fe00b6ffee0000f2010067
:100a34008502860002f20100eb00ae00ff83fe0097
:100a4400aefd4a007daefd0083feae00ffeb00006c
:100a5400f201860002850200f201ee0000b6ff00fa
:100a640091fec300fd79fd00c3fd8e00feacff00c6
:100a7400d800cf00015902005902d00001e0000063
:100a8400c2ffb800fefdfd00bbfdfe00fdb3fe008d
:100a9400b0ffb800009001000802070002910100b5
:100aa400c400d100fff0fe0055fe1e00fe57fe00fc
:100ab400ecfebb00ff9000003d019c00019a010088
:100ac4003c019c0000dfff0033ffbd00fe96fe00ea
:100ad400c1fe3100ffcaff006600e20000250100ec
:100ae4002201df00006e0000ecff7800ff2aff0007
:100af40011ff2f00ff79ff00dbff3e00008a00009a
:100b0400b200ae00008400004100f600ffb6ff0012
:100b14008cff8100ff93ff00bbffed00ff1c000072
:100b24003f004e00004a000036001a0000fdff009e
:100b3400e7ffdc00ffdcff00e4fff100fffcff0047
:100b44000400060000030000fefffb00fffbff00a3
:100b540001000a00001400001b001d000016000024
:100b64000800f500ffe2ff00d4ffcf00ffd6ff002e
:100b7400e8ff0200001d000033003e00003b0000bf
:100b84002a000e0000eeff00d1ffbe00ffbaff00f6
:100b9400c6ffe000ff02000023003d000049000002
:100ba40044002f0000100000edffcf00ffbdff0048
:100bb400baffc700ffe1ff00010020000038000079
:100bc40042003d00002a00000e00f100ffd8ff00a3
:100bd400c9ffc700ffd2ff00e7ff000000180000b4
:100be4002a003100002c00001f000b0000f6ff005b
:100bf400e5ffdb00ffdaff00e2ffef00ff0000008b
:100c04000f001900001d00001a0012000006000069
:100c1400fbfff100ffedff00edfff100fff8ff0027
:100c240000000700000b00000c000a000007000091
:100c34000200fe00fffcff00fafffb00fffdff00c7
:100c4400feff0000000100000100000000000000a1
:100c5400ffff000000000000020003000004000089
:100c64000400020000000000fefffb00fffaff008a
:100c7400fafffb00fffeff00010005000007000073
:100c840008000700000400000000fc00fff9ff005a
:100c9400f8fff800fffaff00feff02000005000065
:100ca40008000800000700000400000000fdff0029
:100cb400fafff800fff8ff00fafffe00ff01000052
:100cc4000500070000080000060004000000000002
:100cd400fdfffa00fff9ff00f9fffb00fffeff0034
:100ce40001000400000600000600000000000000ef
:100cf400003c00000004000000000000e047000089
:100d04002000000000000000c04700002000000098
:100d140000000000a04700002000000000000000c8
:100d2400804700002000000000000000000c0000cc
:100d340002000000020000001000000016088000fd
:020000040000fa
:100d44000000fa000020200000008a00008020003b
:100d540010008a00e0bf200020008a0000f02f006d
:100d640030008a0000c0230040008a00e0ff230016
:100d740050008a0000c0230060008a0000002400a4
:100d84003afe0700001c80000040a1000050a100b2
:100d9400001c8800001c80000000a1000010a000be
:100da400001c880081a3a90000302000401c88009a
:100db400f0002000501c8800d0002000101c880087
:100dc400007e2000201c8800007c2000301c88004d
:100dd4008480a9009480a80081e3a800601c80009e
:100de4000040a1000050a100601c8800601c80002d
:100df4000000a1000010a000601c88008da3a800c2
:100e0400603f2000a01c8800f0002000b01c880077
:100e1400e0042000701c8800007a2000801c8800f8
:100e240000782000901c880085c0a90095c0a80007
:100e34008de3a800001980000080a0000090a000ad
:100e440000198800001980000050a1000060a10072
:100e54000070a000001988002043a8002143a800c6
:100e64001019800000d0a10000e0a10000f0a00053
:100e740010198800101980000080a1000090a100c2
:100e84001019880025e3a90090c0b30024e3b7003b
:100e94002183a800101980000020a1000030a100c7
:100ea4000040a1000050a1001019880041198000e1
:100eb40000fe2f00008060004019880028e3a9008c
:100ec4000080eb00601988002c03a90085a0a9000c
:100ed40095a0a90021e3a80021e1a9002021a900ef
:100ee40020c1a900000980000040a1000050a10019
:100ef400000988001821ef0000402000e008880065
:100f0400900580000000a0000010a1000020a100b6
:100f1400900588008780a9009780a90021e1a80096
:100f2400f2e3a800f3e3a800f243a800f343a80007
:100f3400f183a900811f800000f82f000080600069
:100f44003000b300801f8800f103a800f1e3a8007b
:100f5400f423ef000080fa00000006000000fa000d
:100f6400e0012000303a8800203a80000060a100af
:100f74000070a100203a8800213a800000fe2f0072
:100f840000806000203a88003200200080072000a2
:100f9400a109200033742000804978008149780039
:100fa40082497800103a8000000178000200a00015
:100fb400600420007105200023742000804978001b
:100fc400814978008249780000000000113a8000cd
:100fd400000027008080600000002300808f500004
:100fe400faff3a0000000000113a800000022000dd
:100ff400008060000000e000fbff3200503a8000f7
:101004000080a0000090a10000a0a000503a880039
:101014000080fa00000006000000fa00cfff07007d
:0810240047ff0700ffff370042
:020000040000fa
:04102c0000000000c0
:020000040000fa
:0200000401f009
:04000000ffff0000fe
:020000040000fa
:0200000401f009
:04000400ffff0000fa
:020000040000fa
:0200000401f009
:04000800ffff0000f6
:020000040000fa
:0200000401f009
:04000c0000000000f0
:020000040000fa
:0200000401f009
:040010006500000087
:020000040000fa
:0200000401f009
:040014005f00000089
:020000040000fa
:0200000401f009
:04001800f7000000ed
:020000040000fa
:0200000401f009
:04001c00dfff000002
:00000001FF
