:020000040000fa
:080000000002040000000000f2
:020000040000fa
:040008003c030000b5
:020000040000fa
:04000c0000030000ed
:020000040000fa
:0400100006030000e3
:020000040000fa
:040014000c030000d9
:020000040000fa
:0400180012030000cf
:020000040000fa
:04001c0018030000c5
:020000040000fa
:040020003c0300009d
:020000040000fa
:040024003c03000099
:020000040000fa
:040028003c03000095
:020000040000fa
:04002c003c03000091
:020000040000fa
:040030003c0300008d
:020000040000fa
:040034003c03000089
:020000040000fa
:04003800c8020000fa
:020000040000fa
:04003c003c03000081
:020000040000fa
:040040003c0300007d
:020000040000fa
:040044003c03000079
:020000040000fa
:040048003c03000075
:020000040000fa
:04004c003c03000071
:020000040000fa
:040050003c0300006d
:020000040000fa
:040054003c03000069
:020000040000fa
:040058003c03000065
:020000040000fa
:04005c003c03000061
:020000040000fa
:040060003c0300005d
:020000040000fa
:040064003c03000059
:020000040000fa
:040068003c03000055
:020000040000fa
:04006c003c03000051
:020000040000fa
:040070003c0300004d
:020000040000fa
:040074003c03000049
:020000040000fa
:040078003c03000045
:020000040000fa
:04007c003c03000041
:020000040000fa
:040080003c0300003d
:020000040000fa
:040084003c03000039
:020000040000fa
:04008800e40200008e
:020000040000fa
:04008c003c03000031
:020000040000fa
:040090003c0300002d
:020000040000fa
:040094003c03000029
:020000040000fa
:040098003c03000025
:020000040000fa
:04009c003c03000021
:020000040000fa
:0400a0003c0300001d
:020000040000fa
:0400a4003c03000019
:020000040000fa
:0400a8003c03000015
:020000040000fa
:0400ac003c03000011
:020000040000fa
:0400b0003c0300000d
:020000040000fa
:0400b4003c03000009
:020000040000fa
:0400b8003c03000005
:020000040000fa
:0400bc003c03000001
:020000040000fa
:0400c0003c030000fd
:020000040000fa
:0400c4003c030000f9
:020000040000fa
:0400c8003c030000f5
:020000040000fa
:0400cc003c030000f1
:020000040000fa
:0400d0003c030000ed
:020000040000fa
:0400d4003c030000e9
:020000040000fa
:0400d8003c030000e5
:020000040000fa
:0400dc003c030000e1
:020000040000fa
:0400e0003c030000dd
:020000040000fa
:0400e4003c030000d9
:020000040000fa
:0400e8003c030000d5
:020000040000fa
:0400ec003c030000d1
:020000040000fa
:0400f0003c030000cd
:020000040000fa
:0400f4003c030000c9
:020000040000fa
:0400f8003c030000c5
:020000040000fa
:0400fc003c030000c1
:020000040000fa
:040100003c030000bc
:020000040000fa
:040104003c030000b8
:020000040000fa
:040108003c030000b4
:020000040000fa
:04010c003c030000b0
:020000040000fa
:040110003c030000ac
:020000040000fa
:040114003c030000a8
:020000040000fa
:040118003c030000a4
:020000040000fa
:04011c003c030000a0
:020000040000fa
:040120003c0300009c
:020000040000fa
:040124003c03000098
:020000040000fa
:040128003c03000094
:020000040000fa
:04012c003c03000090
:020000040000fa
:040130003c0300008c
:020000040000fa
:040134003c03000088
:020000040000fa
:040138003c03000084
:020000040000fa
:04013c003c03000080
:020000040000fa
:040140003c0300007c
:020000040000fa
:040144003c03000078
:020000040000fa
:040148003c03000074
:020000040000fa
:04014c003c03000070
:020000040000fa
:040150003c0300006c
:020000040000fa
:040154003c03000068
:020000040000fa
:040158003c03000064
:020000040000fa
:04015c003c03000060
:020000040000fa
:040160003c0300005c
:020000040000fa
:040164003c03000058
:020000040000fa
:040208003c030000b3
:020000040000fa
:04020c001e030000cd
:020000040000fa
:0402100024030000c3
:020000040000fa
:040214002a030000b9
:020000040000fa
:0402180030030000af
:020000040000fa
:04021c0036030000a5
:020000040000fa
:040220003c0300009b
:020000040000fa
:040224003c03000097
:020000040000fa
:040228003c03000093
:020000040000fa
:04022c003c0300008f
:020000040000fa
:040230003c0300008b
:020000040000fa
:040234003c03000087
:020000040000fa
:040238003c03000083
:020000040000fa
:04023c003c0300007f
:020000040000fa
:040240003c0300007b
:020000040000fa
:040244003c03000077
:020000040000fa
:040248003c03000073
:020000040000fa
:04024c003c0300006f
:020000040000fa
:040250003c0300006b
:020000040000fa
:040254003c03000067
:020000040000fa
:040258003c03000063
:020000040000fa
:04025c003c0300005f
:020000040000fa
:040260003c0300005b
:020000040000fa
:040264003c03000057
:020000040000fa
:040268003c03000053
:020000040000fa
:04026c003c0300004f
:020000040000fa
:040270003c0300004b
:020000040000fa
:040274003c03000047
:020000040000fa
:040278003c03000043
:020000040000fa
:04027c003c0300003f
:020000040000fa
:040280003c0300003b
:020000040000fa
:040284003c03000037
:020000040000fa
:040288003c03000033
:020000040000fa
:04028c003c0300002f
:020000040000fa
:040290003c0300002b
:020000040000fa
:040294003c03000027
:020000040000fa
:040298003c03000023
:020000040000fa
:04029c003c0300001f
:020000040000fa
:0402a0003c0300001b
:020000040000fa
:0402a4003c03000017
:020000040000fa
:0402a8003c03000013
:020000040000fa
:0402ac003c0300000f
:020000040000fa
:0402b0003c0300000b
:020000040000fa
:0402b4003c03000007
:020000040000fa
:0402b8003c03000003
:020000040000fa
:0402bc003c030000ff
:020000040000fa
:0402c0003c030000fb
:020000040000fa
:0402c4003c030000f7
:020000040000fa
:0402c8003c030000f3
:020000040000fa
:0402cc003c030000ef
:020000040000fa
:0402d0003c030000eb
:020000040000fa
:0402d4003c030000e7
:020000040000fa
:0402d8003c030000e3
:020000040000fa
:0402dc003c030000df
:020000040000fa
:0402e0003c030000db
:020000040000fa
:0402e4003c030000d7
:020000040000fa
:0402e8003c030000d3
:020000040000fa
:0402ec003c030000cf
:020000040000fa
:0402f0003c030000cb
:020000040000fa
:0402f4003c030000c7
:020000040000fa
:0402f8003c030000c3
:020000040000fa
:0402fc003c030000bf
:020000040000fa
:040300003c030000ba
:020000040000fa
:040304003c030000b6
:020000040000fa
:040308003c030000b2
:020000040000fa
:04030c003c030000ae
:020000040000fa
:040310003c030000aa
:020000040000fa
:040314003c030000a6
:020000040000fa
:040318003c030000a2
:020000040000fa
:04031c003c0300009e
:020000040000fa
:040320003c0300009a
:020000040000fa
:040324003c03000096
:020000040000fa
:040328003c03000092
:020000040000fa
:04032c003c0300008e
:020000040000fa
:040330003c0300008a
:020000040000fa
:040334003c03000086
:020000040000fa
:040338003c03000082
:020000040000fa
:04033c003c0300007e
:020000040000fa
:040340003c0300007a
:020000040000fa
:040344003c03000076
:020000040000fa
:040348003c03000072
:020000040000fa
:04034c003c0300006e
:020000040000fa
:040350003c0300006a
:020000040000fa
:040354003c03000066
:020000040000fa
:040358003c03000062
:020000040000fa
:04035c003c0300005e
:020000040000fa
:040360003c0300005a
:020000040000fa
:040364003c03000056
:020000040000fa
:100400000f4121000e7f23000e0188000000000034
:10041000000020000000e000020032000001200087
:100420002002880014000700e00007000000e00040
:1004300003003a00803d2000010020000200370048
:100440000000200001002000810f70000100320038
:1004500014000700000020000000e000020032004d
:100460000000020000000000200802000000000060
:100470000040da000000fe004440a9000000200017
:100480000000e0000300320000002000a00188000e
:100490004440a800000006008a1f78008b1f7800e7
:1004a0000000060091018800800478000000eb0045
:1004b0001a003700e284440032a0b4009905ba0063
:1004c000e284440032a0b4009906ba00e2844400f9
:1004d00032a0b4000006eb00476fde00fd07b2005b
:1004e000636ce10003003a00ebff07000000eb0043
:1004f0000a003700606ce10004003a00005deb0088
:100500008b05e900fdff3e00040037006168e10053
:10051000010032000086eb000b00070019c7ba008b
:100520001905ba000e04e00003003a000a00e000da
:10053000e0ff3a0000000600fe07b2009e018800be
:100540008a047800f5ff3700395dba008b05e900b1
:100550000c003200295dba008b05e900080032006a
:100560000c00e00003003a00e284440032a0b40032
:10057000f5ff370019ddba008b05e900faff3a00f4
:100580008904e800e184440032a0b40000000600c1
:10059000801f78000000fa00101f800061006000da
:1005a00000f0a7000000ea000000e9004f00de00b4
:1005b0000040780000e8b7008480a9000080fa00bd
:1005c0004f00780000400600801f78000000fa000d
:1005d000101f80006400600000f0a7000000ea0027
:1005e0000000e9004f00de000040780001e8b7009d
:1005f0008700a9000080fa004f0078000040060044
:100600000000fa008020a900ffff37000000fa0078
:100610008060a900ffff37000000fa008040a900b9
:10062000ffff37000000fa008080a900ffff3700bd
:100630000000fa0080a0a900ffff37000000fa00c8
:100640008020a900ffff37000000fa008060a900a9
:10065000ffff37000000fa008040a900ffff3700cd
:100660000000fa008080a900ffff37000000fa00b8
:1006700080a0a900ffff37000000fa00ffff37004d
:10068000810178000000e90000800900b2187800bc
:100690000300780000000600800090000101e900de
:1006a000c00090000000200002800900801878003f
:1006b00000000600889fbe008a9fbe008c9fbe007f
:1006c0008e1f78004400f800080f200028028800e0
:1006d0003400f8004600f8004800f8004a00f8002e
:1006e0004c00f8004e00f8008a0a2c003a028800fc
:1006f00023049000580288001304900048028800e8
:10070000530590007a028800430590006a02880031
:10071000811f78000f0778003305900007f02f0045
:100720000a38e10004003200270280004700b300cd
:1007300027028800aa018800630590000302900048
:10074000630252000000e90000800800070000007a
:10075000320d7800000000004618c3000480090034
:100760004618c4004218c4001201c4003100cd0074
:10077000ea0198008e0778004f0078004e00f900db
:100780004c00f9004a00f9004800f9004600f90061
:100790003400f9004400f9004f0778004f06be000e
:1007a0004f05be004f04be0000000600000005001b
:020000040000fa
:1007b00002080000ce000000000000000010000051
:1007c0001004000002000000000000000000000013
:1007d0000000000000000000000000000000000019
:1007e0000000000000000000000000000000000009
:1007f00000000000000000000000000000000000f9
:1008000000000000000000000000000000ffff00ea
:10081000ffffff00ffffff000000000000010000dd
:1008200001000100000100000100000000ffff00c6
:10083000fefffe00fffeff00ffff000000010000c2
:1008400002000300000300000200010000ffff009f
:10085000fefffc00fffcff00fcfffd00ff000000ae
:100860000200040000050000060004000002000071
:10087000fffffc00fffaff00f8fff900fffcff009c
:10088000ffff03000007000009000a000008000045
:100890000400fe00fff9ff00f5fff400fff5ff0084
:1008a000f9ffff00ff0500000b000f00000f000024
:1008b0000c00060000feff00f6fff000ffedff0059
:1008c000effff500fffeff0008001100001600001a
:1008d0001700120000090000fdfff100ffe8ff0013
:1008e000e4ffe600ffefff00fcff0b000018000034
:1008f00020002100001b00000d00fc00ffebff00aa
:10090000ddffd700ffdbff00e7fffa00ff0f00006d
:1009100022002e00003000002600130000fbff0024
:10092000e2ffcf00ffc7ff00cbffdd00fff7ff00b6
:1009300015002f000040000043003600001b00009f
:10094000f9ffd700ffbdff00b1ffb700ffcfff00e9
:10095000f3ff1c000040000057005b00004a00004d
:100960002600f800ffc9ff00a5ff9500ff9dff00ce
:10097000bcffed00ff25000056007600007c000063
:100980006500350000f7ff00b8ff8700ff70ff002b
:100990007affa300ffe5ff0030007300009e000017
:1009a000a700880000490000f5ffa000ff5eff00df
:1009b0003eff4a00ff82ff00d9ff3e000099000081
:1009c000d400e10000b900006400f400ff81ff00e2
:1009d00026fffa00fe09ff0053ffc900ff52000086
:1009e000cf0021000134010000018d0000f3ff0061
:1009f00053ffd400fe94fe00a7fe0b00ffafff00e4
:100a00006f00200001970100b6016f0001ce0000c9
:100a1000f2ff0b00ff50fe00eefd0300fe92fe0011
:100a200082ffa00000ae01006a02a100023d0200a8
:100a30004801f100ff7ffe0047fd9a00fcacfc007e
:100a40008dfd1c00ff0f0100fb026a0004f504008d
:100a50005d049d0002f0ff00d3fced00f9f7f70004
:100a60009cf75400f949fd004d03d4000a0a130015
:100a7000ed1a7a0021ce250052a7d1002580210051
:100a8000f51a110013d90a004f034800fd4ff90071
:100a900095f7f000f7e7f900cffcf000ffa00200a7
:100aa0006304fc000471040000031100011bff003b
:100ab00088fda500fc92fc0041fd7b00fef1ff00db
:100ac0004c01430002a802007002b30001a2000022
:100ad00080ff8e00fefdfd00e7fd4a00fe08ff00de
:100ae000f1ffd10000750100bd019e00012401004d
:100af0007100ae00ff07ff00a1fe8e00fecffe00da
:100b000050fff200ff90000005013b0001270100ab
:100b1000d300540000c8ff004fff0300fff3fe00a6
:100b200021ff7e00fff3ff006700be0000e700002a
:100b3000da009d0000400000d8ff7e00ff45ff0066
:100b400039ff5900ff9dff00f5ff4b00008c0000ae
:100b5000ac00a300007600003100e400ffa0ff001d
:100b600075ff6b00ff82ff00b5fff600ff37000046
:100b700068008000007a00005900260000ecff00a9
:100b8000baff9900ff91ff00a2ffc700fff8ff0026
:100b900028004d00005f00005b004300001d0000c6
:100ba000f2ffcc00ffb4ff00aeffba00ffd5ff009c
:100bb000f9ff1d000038000046004300003200002d
:100bc0001600f700ffdbff00c9ffc400ffcdff00e8
:100bd000e1fffa00ff14000028003200003100009d
:100be0002400100000faff00e6ffd900ffd5ff0047
:100bf000dbffe900fffcff000e001c0000240000ea
:100c000023001a00000c0000fcffee00ffe5ff00cf
:100c1000e2ffe600fff0ff00fdff0a000013000006
:100c200019001800001200000800fd00fff4ff008a
:100c3000edffec00ffeeff00f5fffe00ff060000f9
:100c40000d001000001000000c00060000feff0068
:100c5000f8fff400fff3ff00f4fff900fffeff00d0
:100c600004000800000a00000a0008000004000058
:100c7000fffffb00fff8ff00f8fff900fffbff009c
:100c8000ffff02000005000006000600000500004e
:100c90000200000000fdff00fcfffb00fffcff0066
:100ca000fdffff00ff01000003000400000300003f
:100cb0000300010000000000fefffe00fffdff003a
:100cc000feffff00ff000000010001000002000025
:100cd00002000100000100000000ff00ffffff0014
:100ce000ffffff00ffffff00000000000001000009
:100cf00001000100000000000000000000000000f2
:100d000000000000000000000000000000000000e3
:100d100000000000000000000000000000000000d3
:100d200000000000000000000000000000000000c3
:100d30000000000000380000100400000000000067
:100d4000c047000040000000000000008047000095
:100d5000400000000000000040470000400000008c
:100d600000000000004700004000000000000000fc
:100d70000008000002000000020000000202000063
:040d8000000000006f
:020000040000fa
:100d84000000fa00d522a900d122a900070007001b
:100d94008b0007005b0007001700070076000700c0
:100da4002a0007000080fa00000006000000fa0094
:100db400802020001040880000002100204088008e
:100dc400e04021003040880000f02f0040408800bf
:100dd4000080230050408800e0c023006040880069
:100de40000802300704088002080200029fe070036
:100df4000080fa00000006000000fa0021e1a900ca
:100e04002021a90020c1a90001098000f0fc2f00c5
:100e140000806000000988001821ef0000402000d5
:100e2400e00888009105800080ff2f0000806000aa
:100e34000000a000900588008780a9009780a90081
:100e440021e1a8000080fa00000006000000fa007a
:100e5400e0ff2f006019880011198000f0ff2100c5
:100e640080806000000028000100700010198800d4
:100e740025e3a9002143a80011198000f0cf2f0019
:100e8400008060001019880001198000f0f12f0023
:100e9400008060000070a000001988002119800003
:100ea400f00f2e00808060000050200001007000d0
:100eb4002019880001198000003020000100700012
:100ec4000019880090c0b30024e3b70041198000e2
:100ed40000fe2f0000806000401988002043a80015
:100ee4001119800030fc2f00008060001019880068
:100ef4002183a80028e3a90021e3a8000080fa00c8
:100f0400000006000000fa00c11c8000f0fc2f0065
:100f140000806000c01c8800c11c8000c0ff2f003e
:100f2400008060000010a000c01c880099a3a900e4
:100f340000302000001d8800f0012000101d8800f2
:100f4400d0002000d01c880000742000e01c880021
:100f540000702000f01c8800800580007000b30041
:100f6400800588008700a9009700a80099e3a800dd
:100f74000080fa00000006000000fa00f2e3a80076
:100f8400f3e3a900f243a800f343a900f183a90005
:100f9400811f800000f82f00008060003000b30043
:100fa400801f8800f103a800f423ef008dc0a9007e
:100fb4009dc0a900f1e3a8000080fa00000006002b
:100fc4000000fa00011c8000f0fc2f00008060008b
:100fd400001c8800011c8000c0ff2f0000806000fe
:100fe4000010a000001c880081a3a800603f20001e
:100ff400401c8800f0012000501c8800e004200000
:10100400101c8800007c2000201c88000078200030
:10101400301c88008480a9009480a80031058000d9
:1010240080ff2f00008060006000b300300588005e
:1010340081e3a8000080fa00000006000000fa0026
:101044003e0007004eff070001c8bf000000fb0080
:101054000000e00003003200e10f500011003200f4
:1010640020003700027024000189200000022000c3
:1010740082fd0700238020000289200001812000d6
:10108400000220008afd0700028120000185200063
:101094000002200079fd070020c0b30001e8b7007a
:1010a400100037000274240001892000000220008f
:1010b40072fd0700238020000289200001812000a6
:1010c400000220007afd0700028120000185200033
:1010d4000002200069fd070020c0b30001e8b7004a
:1010e4000000000000c8bf000000fb000000e0009a
:1010f40003003200e10f5000080032000e003700f8
:101104000285200001782400000220005bfd070016
:1011140020c0b30000e8b7000700370002852000b4
:10112400017c24000002200054fd070020c0b3000d
:1011340000e8b70000000000c3ff37000000fa0019
:10114400e0012000303a8800213a8000f0f32f00bb
:1011540000806000203a8800213a800000fe2f00c1
:1011640000806000203a88003200200080072000c0
:10117400a109200033742000804978008149780057
:1011840082497800103a8000000178000200a00033
:101194006004200071052000237420008049780039
:1011a400814978008249780000000000113a8000eb
:1011b400000027008080600000002300808f500022
:1011c400faff3a0000000000113a800000022000fb
:1011d400008060000000e000fbff3200513a800014
:1011e400f08f2f008080600000502000010070000c
:0c11f400503a88000080fa00000006005d
:020000040000fa
:0200000401f009
:04000000ffff0000fe
:020000040000fa
:0200000401f009
:04000400ffff0000fa
:020000040000fa
:0200000401f009
:04000800ffff0000f6
:020000040000fa
:0200000401f009
:04000c0078ff000079
:020000040000fa
:0200000401f009
:040010007dff000070
:020000040000fa
:0200000401f009
:040014007fff00006a
:020000040000fa
:0200000401f009
:04001800ffff0000e6
:020000040000fa
:0200000401f009
:04001c00dfff000002
:00000001FF
