:020000040000fa
:080000000002040000000000f2
:020000040000fa
:04000800560300009b
:020000040000fa
:04000c001a030000d3
:020000040000fa
:0400100020030000c9
:020000040000fa
:0400140026030000bf
:020000040000fa
:040018002c030000b5
:020000040000fa
:04001c0032030000ab
:020000040000fa
:040020005603000083
:020000040000fa
:04002400560300007f
:020000040000fa
:04002800560300007b
:020000040000fa
:04002c005603000077
:020000040000fa
:040030005603000073
:020000040000fa
:04003400560300006f
:020000040000fa
:04003800c8020000fa
:020000040000fa
:04003c005603000067
:020000040000fa
:040040005603000063
:020000040000fa
:04004400560300005f
:020000040000fa
:04004800560300005b
:020000040000fa
:04004c005603000057
:020000040000fa
:040050005603000053
:020000040000fa
:04005400560300004f
:020000040000fa
:04005800560300004b
:020000040000fa
:04005c005603000047
:020000040000fa
:04006000d0020000ca
:020000040000fa
:04006400560300003f
:020000040000fa
:04006800560300003b
:020000040000fa
:04006c005603000037
:020000040000fa
:040070005603000033
:020000040000fa
:04007400560300002f
:020000040000fa
:04007800560300002b
:020000040000fa
:04007c005603000027
:020000040000fa
:040080005603000023
:020000040000fa
:04008400560300001f
:020000040000fa
:04008800d80200009a
:020000040000fa
:04008c005603000017
:020000040000fa
:040090005603000013
:020000040000fa
:04009400560300000f
:020000040000fa
:04009800560300000b
:020000040000fa
:04009c005603000007
:020000040000fa
:0400a0005603000003
:020000040000fa
:0400a40056030000ff
:020000040000fa
:0400a80056030000fb
:020000040000fa
:0400ac0056030000f7
:020000040000fa
:0400b00056030000f3
:020000040000fa
:0400b40056030000ef
:020000040000fa
:0400b80056030000eb
:020000040000fa
:0400bc0056030000e7
:020000040000fa
:0400c00056030000e3
:020000040000fa
:0400c40056030000df
:020000040000fa
:0400c80056030000db
:020000040000fa
:0400cc0056030000d7
:020000040000fa
:0400d00056030000d3
:020000040000fa
:0400d40056030000cf
:020000040000fa
:0400d80056030000cb
:020000040000fa
:0400dc0056030000c7
:020000040000fa
:0400e00056030000c3
:020000040000fa
:0400e40056030000bf
:020000040000fa
:0400e80056030000bb
:020000040000fa
:0400ec0056030000b7
:020000040000fa
:0400f00056030000b3
:020000040000fa
:0400f40056030000af
:020000040000fa
:0400f80056030000ab
:020000040000fa
:0400fc0056030000a7
:020000040000fa
:0401000056030000a2
:020000040000fa
:04010400560300009e
:020000040000fa
:04010800560300009a
:020000040000fa
:04010c005603000096
:020000040000fa
:040110005603000092
:020000040000fa
:04011400560300008e
:020000040000fa
:04011800560300008a
:020000040000fa
:04011c005603000086
:020000040000fa
:040120005603000082
:020000040000fa
:04012400560300007e
:020000040000fa
:04012800560300007a
:020000040000fa
:04012c005603000076
:020000040000fa
:040130005603000072
:020000040000fa
:04013400560300006e
:020000040000fa
:04013800560300006a
:020000040000fa
:04013c005603000066
:020000040000fa
:040140005603000062
:020000040000fa
:04014400560300005e
:020000040000fa
:04014800560300005a
:020000040000fa
:04014c005603000056
:020000040000fa
:040150005603000052
:020000040000fa
:04015400560300004e
:020000040000fa
:04015800560300004a
:020000040000fa
:04015c005603000046
:020000040000fa
:040160005603000042
:020000040000fa
:04016400560300003e
:020000040000fa
:040208005603000099
:020000040000fa
:04020c0038030000b3
:020000040000fa
:040210003e030000a9
:020000040000fa
:04021400440300009f
:020000040000fa
:040218004a03000095
:020000040000fa
:04021c00500300008b
:020000040000fa
:040220005603000081
:020000040000fa
:04022400560300007d
:020000040000fa
:040228005603000079
:020000040000fa
:04022c005603000075
:020000040000fa
:040230005603000071
:020000040000fa
:04023400560300006d
:020000040000fa
:040238005603000069
:020000040000fa
:04023c005603000065
:020000040000fa
:040240005603000061
:020000040000fa
:04024400560300005d
:020000040000fa
:040248005603000059
:020000040000fa
:04024c005603000055
:020000040000fa
:040250005603000051
:020000040000fa
:04025400560300004d
:020000040000fa
:040258005603000049
:020000040000fa
:04025c005603000045
:020000040000fa
:040260005603000041
:020000040000fa
:04026400560300003d
:020000040000fa
:040268005603000039
:020000040000fa
:04026c005603000035
:020000040000fa
:040270005603000031
:020000040000fa
:04027400560300002d
:020000040000fa
:040278005603000029
:020000040000fa
:04027c005603000025
:020000040000fa
:040280005603000021
:020000040000fa
:04028400560300001d
:020000040000fa
:040288005603000019
:020000040000fa
:04028c005603000015
:020000040000fa
:040290005603000011
:020000040000fa
:04029400560300000d
:020000040000fa
:040298005603000009
:020000040000fa
:04029c005603000005
:020000040000fa
:0402a0005603000001
:020000040000fa
:0402a40056030000fd
:020000040000fa
:0402a80056030000f9
:020000040000fa
:0402ac0056030000f5
:020000040000fa
:0402b00056030000f1
:020000040000fa
:0402b40056030000ed
:020000040000fa
:0402b80056030000e9
:020000040000fa
:0402bc0056030000e5
:020000040000fa
:0402c00056030000e1
:020000040000fa
:0402c40056030000dd
:020000040000fa
:0402c80056030000d9
:020000040000fa
:0402cc0056030000d5
:020000040000fa
:0402d00056030000d1
:020000040000fa
:0402d40056030000cd
:020000040000fa
:0402d80056030000c9
:020000040000fa
:0402dc0056030000c5
:020000040000fa
:0402e00056030000c1
:020000040000fa
:0402e40056030000bd
:020000040000fa
:0402e80056030000b9
:020000040000fa
:0402ec0056030000b5
:020000040000fa
:0402f00056030000b1
:020000040000fa
:0402f40056030000ad
:020000040000fa
:0402f80056030000a9
:020000040000fa
:0402fc0056030000a5
:020000040000fa
:0403000056030000a0
:020000040000fa
:04030400560300009c
:020000040000fa
:040308005603000098
:020000040000fa
:04030c005603000094
:020000040000fa
:040310005603000090
:020000040000fa
:04031400560300008c
:020000040000fa
:040318005603000088
:020000040000fa
:04031c005603000084
:020000040000fa
:040320005603000080
:020000040000fa
:04032400560300007c
:020000040000fa
:040328005603000078
:020000040000fa
:04032c005603000074
:020000040000fa
:040330005603000070
:020000040000fa
:04033400560300006c
:020000040000fa
:040338005603000068
:020000040000fa
:04033c005603000064
:020000040000fa
:040340005603000060
:020000040000fa
:04034400560300005c
:020000040000fa
:040348005603000058
:020000040000fa
:04034c005603000054
:020000040000fa
:040350005603000050
:020000040000fa
:04035400560300004c
:020000040000fa
:040358005603000048
:020000040000fa
:04035c005603000044
:020000040000fa
:040360005603000040
:020000040000fa
:04036400560300003c
:020000040000fa
:10040000efb120000ebf23000e01880000000000a5
:10041000000020000000e000020032000001200087
:100420002002880014000700e70007000000e00039
:1004300003003a00603e2000010020000200370067
:100440000000200001002000810f70000100320038
:1004500014000700000020000000e000020032004d
:100460000000020000000000d607020000000000ab
:100470000040da000000fe004440a9000000200017
:100480000000e0000300320000002000a00188000e
:100490004440a800000006008a1f78008b1f7800e7
:1004a0000000060091018800800478000000eb0045
:1004b0001a003700e284440032a0b4009905ba0063
:1004c000e284440032a0b4009906ba00e2844400f9
:1004d00032a0b4000006eb00476fde00fd07b2005b
:1004e000636ce10003003a00ebff07000000eb0043
:1004f0000a003700606ce10004003a00005deb0088
:100500008b05e900fdff3e00040037006168e10053
:10051000010032000086eb000b00070019c7ba008b
:100520001905ba000e04e00003003a000a00e000da
:10053000e0ff3a0000000600fe07b2009e018800be
:100540008a047800f5ff3700395dba008b05e900b1
:100550000c003200295dba008b05e900080032006a
:100560000c00e00003003a00e284440032a0b40032
:10057000f5ff370019ddba008b05e900faff3a00f4
:100580008904e800e184440032a0b40000000600c1
:100590000000fa008480a9000080fa0000400600f4
:1005a0000000fa0085c0a9000080fa0000400600a3
:1005b0003600f800809fbe00829fbe00849fbe0070
:1005c000869fbe000000fa008700a900101f80006f
:1005d000610060000000e00008003200017c24009f
:1005e00000742400e3f1230001017800800078000a
:1005f00000022000360007000700370001782400c1
:1006000000702400e3f123000101780080007800ed
:10061000000220002e0007000080fa004f03be00f9
:100620004f02be004f01be004f00be003600f90071
:10063000004006000000fa008020a900ffff3700fc
:100640000000fa008060a900ffff37000000fa00f8
:100650008040a900ffff37000000fa008080a90059
:10066000ffff37000000fa0080a0a900ffff37005d
:100670000000fa008020a900ffff37000000fa0008
:100680008060a900ffff37000000fa008040a90049
:10069000ffff37000000fa008080a900ffff37004d
:1006a0000000fa0080a0a900ffff37000000fa0058
:1006b000ffff3700800090000101e900c0009000ba
:1006c0000000200002800900801878000000060069
:1006d000889fbe008a9fbe008c9fbe008e1f780040
:1006e0004400f800080f2000280288003400f800b9
:1006f0004600f8004800f8004a00f8004c00f800f6
:100700004e00f8008a0a2c003a0288002304900068
:100710005802880013049000480288005305900096
:100720007a028800430590006a028800811f7800e1
:100730000f0778003305900007f02f000a38e1001a
:1007400004003200270280004700b300270288001f
:10075000aa01880063059000030290006302520022
:100760000000e9000080080007000000320d78005a
:10077000000000004618c300048009004618c400a9
:100780004218c4001201c4003100cd00ea019800f3
:100790008e0778004f0078004e00f9004c00f900f9
:1007a0004a00f9004800f9004600f9003400f90059
:1007b0004400f9004f0778004f06be004f05be0009
:0c07c0004f04be00000006000000050011
:020000040000fa
:1007cc001e3f00004e00000000000000000800006a
:1007dc001e030000020000000000000000000000ea
:1007ec0000000000000000000000000000000000fd
:1007fc0000000000000000000000000000000000ed
:10080c0000000100000100000100000000000000d9
:10081c00ffffff00ffffff00ffffff00ff000000d6
:10082c0000000100000200000200020000010000b4
:10083c000000ff00fffeff00fdfffd00fffeff00bc
:10084c00ffff010000020000030004000003000091
:10085c000200000000feff00fdfffc00fffcff009b
:10086c00fdffff00ff010000030004000004000076
:10087c000300020000000000fffffe00fffdff0070
:10088c00feffff00ff000000000001000000000060
:10089c000000ff00ffffff0000000100000300004c
:1008ac0004000500000400000200fe00fffaff0037
:1008bc00f6fff400fff5ff00f9ffff00ff08000052
:1008cc0010001500001600001100080000faff00cf
:1008dc00ecffe100ffdcff00dfffeb00fffeff00a1
:1008ec00140027000034000035002900001200001d
:1008fc00f3ffd500ffbeff00b4ffbc00ffd5ff0027
:10090c00fbff2600004c000063006400004d00005b
:10091c002200ea00ffb4ff008bff7b00ff89ff0081
:10092c00b5fff700ff3f00007d00a20000a3000010
:10093c007e00380000e0ff008aff4a00ff32ff0013
:10094c0049ff8d00fff0ff005c00b80000ef0000d5
:10095c00ef00b80000520000d4ff5b00ff02ff0064
:10096c00e0fe0100ff5fff00e6ff7a0000f70000e9
:10097c003f01400001f600007000ca00ff2cff0090
:10098c00b9fe8f00feb9fe0030ffdc00ff950000c1
:10099c0031018b00018b010030018c0000c3ff0082
:1009ac0004ff7b00fe49fe007bfe0800ffd1ff0028
:1009bc00a9005e0001c50100c5015d0001a3000096
:1009cc00c1ffea00fe51fe0019fe5100feecfe00d4
:1009dc00c8ffb30000760100e501e50001760100d7
:1009ec00b000c200ffe2fe0042fe09007e42fe00a3
:1009fc00e2fec200ffb000007601e50001e5010057
:100a0c007601b30000c8ff00ecfe5100fe19fe0099
:100a1c0051feea00fec1ff00a3005d0001c501000c
:100a2c00c5015e0001a90000d1ff0800ff7bfe009c
:100a3c0049fe7b00fe04ff00c3ff8c000030010068
:100a4c008b018b00013101009500dc00ff30ff00b1
:100a5c00b9fe8f00feb9fe002cffca00ff7000002b
:100a6c00f6004000013f0100f7007a0000e6ff00ad
:100a7c005fff0100ffe0fe0002ff5b00ffd4ff0000
:100a8c005200b80000ef0000ef00b800005c00005e
:100a9c00f0ff8d00ff49ff0032ff4a00ff8aff0084
:100aac00e0ff3800007e0000a300a200007d0000e3
:100abc003f00f700ffb5ff0089ff7b00ff8bff00b5
:100acc00b4ffea00ff2200004d0064000063000048
:100adc004c00260000fbff00d5ffbc00ffb4ff005c
:100aec00beffd500fff3ff00120029000035000007
:100afc003400270000140000feffeb00ffdfff00b6
:100b0c00dcffe100ffecff00faff08000011000021
:100b1c0016001500001000000800ff00fff9ff0090
:100b2c00f5fff400fff6ff00fafffe00ff020000e5
:100b3c000400050000040000030001000000000098
:100b4c00ffffff00ff00000000000100000000009c
:100b5c000000ff00fffeff00fdfffe00ffffff0097
:100b6c000000020000030000040004000003000069
:100b7c000100ff00fffdff00fcfffc00fffdff007c
:100b8c00feff000000020000030004000003000050
:100b9c000200010000ffff00fefffd00fffdff0053
:100bac00feffff00ff000000010002000002000039
:100bbc0002000100000000000000ff00ffffff002a
:100bcc00ffffff00ffffff0000000000000100001e
:100bdc000100010000000000000000000000000007
:100bec0000000000000000000000000000000000f9
:100bfc0000000000000000000000000000000000e9
:100c0c00003c00001e03000000000000c047000074
:100c1c004000000000000000804700004000000081
:100c2c0000000000404700004000000000000000f1
:100c3c000047000040000000000000000000000021
:020000040000fa
:100c4c000000fa00f0182000f0f889000080200065
:100c5c0000f9890000f9810080007800f0f881002b
:100c6c0000004000008040000000e90010f98900fd
:100c7c0000f02f0020f9890000c0230030f9890012
:100c8c0030f9810080007800f0f88100000040000d
:100c9c00008040000000e90040f9890000c02300fa
:100cac0050f98900e0f123007ffe0700011c800051
:100cbc00f0fc2f0000806000001c8800011c8000ec
:100ccc00c0ff2f00008060000010a000001c8800f6
:100cdc0081a3a800603f2000401c8800f001200088
:100cec00501c8800e0042000101c880000742000b8
:100cfc00201c880000702000301c88008480a90013
:100d0c009480a80081e3a800611c8000f0fc2f00f7
:100d1c0000806000601c8800611c8000c0ff2f00f8
:100d2c00008060000010a000601c88008da3a8004b
:100d3c00803f2000a01c8800f0012000b01c88001f
:100d4c00f0042000701c880000742000801c8800b7
:100d5c0000702000901c880085c0a90095c0a800d8
:100d6c008de3a800c11c8000f0fc2f000080600007
:100d7c00c01c8800c11c8000c0ff2f0000806000d8
:100d8c000010a000c01c880099a3a900003020000e
:100d9c00001d8800f0012000101d8800d0002000ec
:100dac00d01c8800007c2000e01c8800007820000b
:100dbc00f01c88008700a9009700a80099e3a80000
:100dcc00011980000030200001007000001988001b
:100ddc0001198000f0f12f00008060000070a0006d
:100dec00001988002043a8002143a8001119800095
:100dfc00f0ff2100808060000000280001007000de
:100e0c001019880011198000f0cf2f0000806000ad
:100e1c001019880025e3a90010c0b30024e3b70023
:100e2c002183a8001119800030fc2f000080600085
:100e3c00101988004119800000fe2f00008060000e
:100e4c004019880028e3a9000080eb006019880095
:100e5c002c03a90085a0a90095a0a90021e3a80056
:100e6c0021e1a9002021a90020c1a90001098000cd
:100e7c00f0fc2f0000806000000988001821ef00b2
:100e8c0000402000e00888009105800080ff2f00c2
:100e9c00008060000000a000900588008780a900f9
:100eac009780a90021e1a800f2e3a800f3e3a800d1
:100ebc00f243a800f343a800f183a900811f80002e
:100ecc0000f82f00008060003000b300801f880005
:100edc00f103a800f1e3a8000080fa00000006006e
:100eec000000fa00e0012000303a8800213a80002e
:100efc00f0f32f0000806000203a8800213a800037
:100f0c0000fe2f0000806000203a88003200200094
:100f1c0080072000a109200033742000804978004c
:100f2c008149780082497800103a800000017800ed
:100f3c000200a00060042000710520002374200032
:100f4c0080497800814978008249780000000000cf
:100f5c00113a800000002700808060000000230010
:100f6c00808f5000faff3a0000000000113a800018
:100f7c0000022000008060000000e000fbff320057
:100f8c00513a8000f08f2f008080600000502000cc
:100f9c0001007000503a88000080fa000000060042
:100fac000000fa00ceff070025ff0700ffff370007
:020000040000fa
:0200000401f009
:04000000ffff0000fe
:020000040000fa
:0200000401f009
:04000400ffff0000fa
:020000040000fa
:0200000401f009
:04000800ffff0000f6
:020000040000fa
:0200000401f009
:04000c0000000000f0
:020000040000fa
:0200000401f009
:040010006500000087
:020000040000fa
:0200000401f009
:040014005f00000089
:020000040000fa
:0200000401f009
:04001800f7000000ed
:020000040000fa
:0200000401f009
:04001c00dfff000002
:00000001FF
